{
  "_format": "hh-sol-artifact-1",
  "contractName": "ERC20Pausable",
  "sourceName": "contracts/ERC20Pausable.sol",
  "abi": [
    {
      "anonymous": false,
      "inputs": [
        {
          "indexed": true,
          "internalType": "address",
          "name": "owner",
          "type": "address"
        },
        {
          "indexed": true,
          "internalType": "address",
          "name": "spender",
          "type": "address"
        },
        {
          "indexed": false,
          "internalType": "uint256",
          "name": "amount",
          "type": "uint256"
        }
      ],
      "name": "Approved",
      "type": "event"
    },
    {
      "anonymous": false,
      "inputs": [
        {
          "indexed": false,
          "internalType": "address",
          "name": "account",
          "type": "address"
        }
      ],
      "name": "Paused",
      "type": "event"
    },
    {
      "anonymous": false,
      "inputs": [
        {
          "indexed": true,
          "internalType": "address",
          "name": "account",
          "type": "address"
        }
      ],
      "name": "PauserAdded",
      "type": "event"
    },
    {
      "anonymous": false,
      "inputs": [
        {
          "indexed": true,
          "internalType": "address",
          "name": "account",
          "type": "address"
        }
      ],
      "name": "PauserRemoved",
      "type": "event"
    },
    {
      "anonymous": false,
      "inputs": [
        {
          "indexed": true,
          "internalType": "address",
          "name": "from",
          "type": "address"
        },
        {
          "indexed": true,
          "internalType": "address",
          "name": "to",
          "type": "address"
        },
        {
          "indexed": false,
          "internalType": "uint256",
          "name": "amount",
          "type": "uint256"
        }
      ],
      "name": "Transfer",
      "type": "event"
    },
    {
      "anonymous": false,
      "inputs": [
        {
          "indexed": false,
          "internalType": "address",
          "name": "account",
          "type": "address"
        }
      ],
      "name": "Unpaused",
      "type": "event"
    },
    {
      "inputs": [
        {
          "internalType": "address",
          "name": "account",
          "type": "address"
        }
      ],
      "name": "addPauser",
      "outputs": [],
      "stateMutability": "nonpayable",
      "type": "function"
    },
    {
      "inputs": [
        {
          "internalType": "address",
          "name": "owner",
          "type": "address"
        },
        {
          "internalType": "address",
          "name": "spender",
          "type": "address"
        }
      ],
      "name": "allowance",
      "outputs": [
        {
          "internalType": "uint256",
          "name": "",
          "type": "uint256"
        }
      ],
      "stateMutability": "view",
      "type": "function"
    },
    {
      "inputs": [
        {
          "internalType": "address",
          "name": "spender",
          "type": "address"
        },
        {
          "internalType": "uint256",
          "name": "value",
          "type": "uint256"
        }
      ],
      "name": "approve",
      "outputs": [
        {
          "internalType": "bool",
          "name": "",
          "type": "bool"
        }
      ],
      "stateMutability": "nonpayable",
      "type": "function"
    },
    {
      "inputs": [
        {
          "internalType": "address",
          "name": "owner",
          "type": "address"
        }
      ],
      "name": "balanceOf",
      "outputs": [
        {
          "internalType": "uint256",
          "name": "",
          "type": "uint256"
        }
      ],
      "stateMutability": "view",
      "type": "function"
    },
    {
      "inputs": [
        {
          "internalType": "address",
          "name": "spender",
          "type": "address"
        },
        {
          "internalType": "uint256",
          "name": "subtractedValue",
          "type": "uint256"
        }
      ],
      "name": "decreaseAllowance",
      "outputs": [
        {
          "internalType": "bool",
          "name": "success",
          "type": "bool"
        }
      ],
      "stateMutability": "nonpayable",
      "type": "function"
    },
    {
      "inputs": [
        {
          "internalType": "address",
          "name": "spender",
          "type": "address"
        },
        {
          "internalType": "uint256",
          "name": "addedValue",
          "type": "uint256"
        }
      ],
      "name": "increaseAllowance",
      "outputs": [
        {
          "internalType": "bool",
          "name": "success",
          "type": "bool"
        }
      ],
      "stateMutability": "nonpayable",
      "type": "function"
    },
    {
      "inputs": [
        {
          "internalType": "address",
          "name": "account",
          "type": "address"
        }
      ],
      "name": "isPauser",
      "outputs": [
        {
          "internalType": "bool",
          "name": "",
          "type": "bool"
        }
      ],
      "stateMutability": "view",
      "type": "function"
    },
    {
      "inputs": [],
      "name": "pause",
      "outputs": [],
      "stateMutability": "nonpayable",
      "type": "function"
    },
    {
      "inputs": [],
      "name": "paused",
      "outputs": [
        {
          "internalType": "bool",
          "name": "",
          "type": "bool"
        }
      ],
      "stateMutability": "view",
      "type": "function"
    },
    {
      "inputs": [],
      "name": "renouncePauser",
      "outputs": [],
      "stateMutability": "nonpayable",
      "type": "function"
    },
    {
      "inputs": [],
      "name": "totalSupply",
      "outputs": [
        {
          "internalType": "uint256",
          "name": "",
          "type": "uint256"
        }
      ],
      "stateMutability": "view",
      "type": "function"
    },
    {
      "inputs": [
        {
          "internalType": "address",
          "name": "to",
          "type": "address"
        },
        {
          "internalType": "uint256",
          "name": "value",
          "type": "uint256"
        }
      ],
      "name": "transfer",
      "outputs": [
        {
          "internalType": "bool",
          "name": "",
          "type": "bool"
        }
      ],
      "stateMutability": "nonpayable",
      "type": "function"
    },
    {
      "inputs": [
        {
          "internalType": "address",
          "name": "from",
          "type": "address"
        },
        {
          "internalType": "address",
          "name": "to",
          "type": "address"
        },
        {
          "internalType": "uint256",
          "name": "value",
          "type": "uint256"
        }
      ],
      "name": "transferFrom",
      "outputs": [
        {
          "internalType": "bool",
          "name": "",
          "type": "bool"
        }
      ],
      "stateMutability": "nonpayable",
      "type": "function"
    },
    {
      "inputs": [],
      "name": "unpause",
      "outputs": [],
      "stateMutability": "nonpayable",
      "type": "function"
    }
  ],
  "bytecode": "0x608060405234801561001057600080fd5b5061001a33610029565b6004805460ff191690556100ec565b61003460038261006b565b6040516001600160a01b038216907f6719d08c1888103bea251a4ed56406bd0c3e69723c8a1686e017e7bbe159b6f890600090a250565b6001600160a01b03811661007e57600080fd5b61008882826100b7565b1561009257600080fd5b6001600160a01b0316600090815260209190915260409020805460ff19166001179055565b60006001600160a01b0382166100cc57600080fd5b506001600160a01b03166000908152602091909152604090205460ff1690565b610965806100fb6000396000f3fe608060405234801561001057600080fd5b50600436106100ea5760003560e01c80636ef8d66d1161008c5780638456cb59116100665780638456cb59146101bb578063a457c2d7146101c3578063a9059cbb146101d6578063dd62ed3e146101e957600080fd5b80636ef8d66d1461017757806370a082311461017f57806382dc1ec4146101a857600080fd5b806339509351116100c8578063395093511461013c5780633f4ba83a1461014f57806346fbf68e146101595780635c975abb1461016c57600080fd5b8063095ea7b3146100ef57806318160ddd1461011757806323b872dd14610129575b600080fd5b6101026100fd36600461083f565b610220565b60405190151581526020015b60405180910390f35b6002545b60405190815260200161010e565b610102610137366004610869565b610246565b61010261014a36600461083f565b61026c565b610157610289565b005b6101026101673660046108a5565b6102ea565b60045460ff16610102565b6101576102f7565b61011b61018d3660046108a5565b6001600160a01b031660009081526001602052604090205490565b6101576101b63660046108a5565b610302565b610157610320565b6101026101d136600461083f565b61037f565b6101026101e436600461083f565b61039c565b61011b6101f73660046108c0565b6001600160a01b0391821660009081526020818152604080832093909416825291909152205490565b60045460009060ff161561023357600080fd5b61023d83836103b9565b90505b92915050565b60045460009060ff161561025957600080fd5b610264848484610431565b949350505050565b60045460009060ff161561027f57600080fd5b61023d83836104ec565b610292336102ea565b61029b57600080fd5b60045460ff166102aa57600080fd5b6004805460ff191690556040513381527f5db9ee0a495bf2e6ff9c91a7834c1ba4fdd244a5e8aa4e537bd38aeae4b073aa906020015b60405180910390a1565b6000610240600383610582565b610300336105b7565b565b61030b336102ea565b61031457600080fd5b61031d816105f9565b50565b610329336102ea565b61033257600080fd5b60045460ff161561034257600080fd5b6004805460ff191660011790556040513381527f62e78cea01bee320cd4e420270b5ea74000d11b0c9f74754ebdbfc544b05a258906020016102e0565b60045460009060ff161561039257600080fd5b61023d838361063b565b60045460009060ff16156103af57600080fd5b61023d838361067c565b60006001600160a01b0383166103ce57600080fd5b336000818152602081815260408083206001600160a01b03881680855290835292819020869055518581529192917f80da462ebfbe41cfc9bc015e7a9a3c7a2a73dbccede72d8ceb583606c27f8f9091015b60405180910390a350600192915050565b6001600160a01b03831660009081526020818152604080832033845290915281205461045d9083610692565b6001600160a01b03851660009081526020818152604080832033845290915290205561048a8484846106ad565b6001600160a01b03841660008181526020818152604080832033808552908352928190205490519081529192917f80da462ebfbe41cfc9bc015e7a9a3c7a2a73dbccede72d8ceb583606c27f8f90910160405180910390a35060019392505050565b60006001600160a01b03831661050157600080fd5b336000908152602081815260408083206001600160a01b038716845290915290205461052d9083610773565b336000818152602081815260408083206001600160a01b038916808552908352928190208590555193845290927f80da462ebfbe41cfc9bc015e7a9a3c7a2a73dbccede72d8ceb583606c27f8f909101610420565b60006001600160a01b03821661059757600080fd5b506001600160a01b03166000908152602091909152604090205460ff1690565b6105c260038261078f565b6040516001600160a01b038216907fcd265ebaf09df2871cc7bd4133404a235ba12eff2041bb89d9c714a2621c7c7e90600090a250565b6106046003826107d7565b6040516001600160a01b038216907f6719d08c1888103bea251a4ed56406bd0c3e69723c8a1686e017e7bbe159b6f890600090a250565b60006001600160a01b03831661065057600080fd5b336000908152602081815260408083206001600160a01b038716845290915290205461052d9083610692565b60006106893384846106ad565b50600192915050565b6000828211156106a157600080fd5b60006102648385610909565b6001600160a01b0382166106c057600080fd5b6001600160a01b0383166000908152600160205260409020546106e39082610692565b6001600160a01b0380851660009081526001602052604080822093909355908416815220546107129082610773565b6001600160a01b0380841660008181526001602052604090819020939093559151908516907fddf252ad1be2c89b69c2b068fc378daa952ba7f163c4a11628f55a4df523b3ef906107669085815260200190565b60405180910390a3505050565b600080610780838561091c565b90508381101561023d57600080fd5b6001600160a01b0381166107a257600080fd5b6107ac8282610582565b6107b557600080fd5b6001600160a01b0316600090815260209190915260409020805460ff19169055565b6001600160a01b0381166107ea57600080fd5b6107f48282610582565b156107fe57600080fd5b6001600160a01b0316600090815260209190915260409020805460ff19166001179055565b80356001600160a01b038116811461083a57600080fd5b919050565b6000806040838503121561085257600080fd5b61085b83610823565b946020939093013593505050565b60008060006060848603121561087e57600080fd5b61088784610823565b925061089560208501610823565b9150604084013590509250925092565b6000602082840312156108b757600080fd5b61023d82610823565b600080604083850312156108d357600080fd5b6108dc83610823565b91506108ea60208401610823565b90509250929050565b634e487b7160e01b600052601160045260246000fd5b81810381811115610240576102406108f3565b80820180821115610240576102406108f356fea2646970667358221220b56b97696f2af5f8352d1224d464dbe861eeb63c3b3eb159f74e694c02ee07c664736f6c63430008140033",
  "linkReferences": {},
  "deployedLinkReferences": {}
}