{"contracts/MultiSigTransactions.sol":{"MultiSigTransaction":{"abi":[{"inputs":[{"internalType":"address[]","name":"_owners","type":"address[]"},{"internalType":"uint256","name":"_quorum","type":"uint256"}],"stateMutability":"nonpayable","type":"constructor"},{"anonymous":false,"inputs":[{"indexed":true,"internalType":"address","name":"sender","type":"address"},{"indexed":false,"internalType":"uint256","name":"transactionId","type":"uint256"}],"name":"Confirmation","type":"event"},{"anonymous":false,"inputs":[{"indexed":true,"internalType":"address","name":"sender","type":"address"},{"indexed":false,"internalType":"uint256","name":"amount","type":"uint256"}],"name":"Deposit","type":"event"},{"anonymous":false,"inputs":[{"indexed":false,"internalType":"uint256","name":"amount","type":"uint256"},{"indexed":false,"internalType":"uint256","name":"transactionId","type":"uint256"}],"name":"ExecutionERC20","type":"event"},{"anonymous":false,"inputs":[{"indexed":false,"internalType":"uint256","name":"amount","type":"uint256"},{"indexed":false,"internalType":"uint256","name":"transactionId","type":"uint256"}],"name":"ExecutionNative","type":"event"},{"anonymous":false,"inputs":[{"indexed":true,"internalType":"address","name":"owner","type":"address"}],"name":"OwnerAddition","type":"event"},{"anonymous":false,"inputs":[{"indexed":true,"internalType":"address","name":"owner","type":"address"}],"name":"OwnerRemoval","type":"event"},{"anonymous":false,"inputs":[{"indexed":false,"internalType":"uint256","name":"quorum","type":"uint256"}],"name":"QuorumChanged","type":"event"},{"anonymous":false,"inputs":[{"indexed":true,"internalType":"address","name":"sender","type":"address"},{"indexed":false,"internalType":"uint256","name":"transactionId","type":"uint256"}],"name":"Revocation","type":"event"},{"anonymous":false,"inputs":[{"indexed":true,"internalType":"address","name":"destination","type":"address"},{"indexed":false,"internalType":"uint256","name":"transactionId","type":"uint256"}],"name":"Submission","type":"event"},{"stateMutability":"payable","type":"fallback"},{"inputs":[{"internalType":"address","name":"owner","type":"address"}],"name":"addOwner","outputs":[],"stateMutability":"nonpayable","type":"function"},{"inputs":[{"internalType":"uint256","name":"newQuorum","type":"uint256"}],"name":"changeQuorum","outputs":[],"stateMutability":"nonpayable","type":"function"},{"inputs":[{"internalType":"uint256","name":"transactionId","type":"uint256"}],"name":"confirmTransaction","outputs":[],"stateMutability":"nonpayable","type":"function"},{"inputs":[{"internalType":"bytes32","name":"","type":"bytes32"},{"internalType":"address","name":"","type":"address"}],"name":"confirmations","outputs":[{"internalType":"uint256","name":"","type":"uint256"}],"stateMutability":"view","type":"function"},{"inputs":[],"name":"deposit","outputs":[],"stateMutability":"payable","type":"function"},{"inputs":[{"internalType":"uint256","name":"transactionId","type":"uint256"}],"name":"executeTransaction","outputs":[],"stateMutability":"nonpayable","type":"function"},{"inputs":[{"internalType":"uint256","name":"transactionId","type":"uint256"}],"name":"getConfirmationCount","outputs":[{"internalType":"uint256","name":"count","type":"uint256"}],"stateMutability":"nonpayable","type":"function"},{"inputs":[{"internalType":"uint256","name":"transactionId","type":"uint256"}],"name":"getConfirmations","outputs":[{"internalType":"address[]","name":"_confirmations","type":"address[]"}],"stateMutability":"nonpayable","type":"function"},{"inputs":[],"name":"getOwnerCount","outputs":[{"internalType":"uint256","name":"res","type":"uint256"}],"stateMutability":"view","type":"function"},{"inputs":[],"name":"getOwners","outputs":[{"internalType":"address[]","name":"","type":"address[]"}],"stateMutability":"view","type":"function"},{"inputs":[],"name":"getQuorum","outputs":[{"internalType":"uint256","name":"res","type":"uint256"}],"stateMutability":"view","type":"function"},{"inputs":[{"internalType":"uint256","name":"transactionId","type":"uint256"}],"name":"getRevocationCount","outputs":[{"internalType":"uint256","name":"count","type":"uint256"}],"stateMutability":"nonpayable","type":"function"},{"inputs":[{"internalType":"uint256","name":"transactionId","type":"uint256"}],"name":"getRevocations","outputs":[{"internalType":"address[]","name":"_confirmations","type":"address[]"}],"stateMutability":"nonpayable","type":"function"},{"inputs":[],"name":"getTokenBalance","outputs":[{"internalType":"uint256","name":"bal","type":"uint256"}],"stateMutability":"view","type":"function"},{"inputs":[],"name":"getTransactionCount","outputs":[{"internalType":"uint256","name":"count","type":"uint256"}],"stateMutability":"view","type":"function"},{"inputs":[{"internalType":"uint256","name":"transactionId","type":"uint256"},{"internalType":"address","name":"owner","type":"address"}],"name":"getUserConfirmationStatus","outputs":[{"internalType":"bool","name":"","type":"bool"}],"stateMutability":"nonpayable","type":"function"},{"inputs":[],"name":"hashId","outputs":[{"internalType":"bytes32","name":"","type":"bytes32"}],"stateMutability":"view","type":"function"},{"inputs":[{"internalType":"uint256","name":"","type":"uint256"}],"name":"hashesId","outputs":[{"internalType":"bytes32","name":"","type":"bytes32"}],"stateMutability":"view","type":"function"},{"inputs":[{"internalType":"uint256","name":"","type":"uint256"}],"name":"idToHashes","outputs":[{"internalType":"bytes32","name":"","type":"bytes32"}],"stateMutability":"view","type":"function"},{"inputs":[{"internalType":"uint256","name":"transactionId","type":"uint256"}],"name":"isConfirmed","outputs":[{"internalType":"bool","name":"res","type":"bool"}],"stateMutability":"nonpayable","type":"function"},{"inputs":[{"internalType":"address","name":"","type":"address"}],"name":"isOwner","outputs":[{"internalType":"bool","name":"","type":"bool"}],"stateMutability":"view","type":"function"},{"inputs":[{"internalType":"uint256","name":"transactionId","type":"uint256"}],"name":"isRevoked","outputs":[{"internalType":"bool","name":"res","type":"bool"}],"stateMutability":"nonpayable","type":"function"},{"inputs":[{"internalType":"uint256","name":"","type":"uint256"}],"name":"owners","outputs":[{"internalType":"address","name":"","type":"address"}],"stateMutability":"view","type":"function"},{"inputs":[],"name":"quorum","outputs":[{"internalType":"uint256","name":"","type":"uint256"}],"stateMutability":"view","type":"function"},{"inputs":[{"internalType":"address","name":"owner","type":"address"}],"name":"removeOwner","outputs":[],"stateMutability":"nonpayable","type":"function"},{"inputs":[{"internalType":"uint256","name":"transactionId","type":"uint256"}],"name":"revokeTransaction","outputs":[],"stateMutability":"nonpayable","type":"function"},{"inputs":[{"internalType":"address","name":"tokenContractAddress","type":"address"}],"name":"setTokenContractAddress","outputs":[],"stateMutability":"nonpayable","type":"function"},{"inputs":[{"internalType":"address","name":"destination","type":"address"},{"internalType":"uint256","name":"value","type":"uint256"},{"internalType":"enum MultiSigTransaction.TransactionType","name":"transactionType","type":"uint8"}],"name":"submitTransaction","outputs":[{"internalType":"uint256","name":"transactionId","type":"uint256"}],"stateMutability":"nonpayable","type":"function"},{"inputs":[],"name":"transactionCount","outputs":[{"internalType":"uint256","name":"","type":"uint256"}],"stateMutability":"view","type":"function"},{"inputs":[{"internalType":"bytes32","name":"","type":"bytes32"}],"name":"transactions","outputs":[{"internalType":"address","name":"destination","type":"address"},{"internalType":"address","name":"submitterAddress","type":"address"},{"internalType":"uint256","name":"value","type":"uint256"},{"internalType":"enum MultiSigTransaction.TransactionType","name":"transactionType","type":"uint8"},{"internalType":"bool","name":"executed","type":"bool"}],"stateMutability":"view","type":"function"},{"inputs":[{"internalType":"address","name":"addressToVerify","type":"address"}],"name":"verifyOwner","outputs":[{"internalType":"bool","name":"res","type":"bool"}],"stateMutability":"view","type":"function"},{"stateMutability":"payable","type":"receive"}],"devdoc":{"details":"Contract for handling multi-signature transactions including native and ERC20 token transfers.","events":{"Confirmation(address,uint256)":{"details":"Emitted when a transaction is confirmed by an owner.","params":{"sender":"The address of the owner who confirmed the transaction.","transactionId":"The ID of the confirmed transaction."}},"Deposit(address,uint256)":{"details":"Emitted when native tokens are deposited into the contract.","params":{"amount":"The amount of native tokens deposited.","sender":"The address of the sender who made the deposit."}},"ExecutionERC20(uint256,uint256)":{"details":"Emitted when an ERC20 token transaction is executed.","params":{"amount":"The amount of ERC20 tokens transferred.","transactionId":"The ID of the executed transaction."}},"ExecutionNative(uint256,uint256)":{"details":"Emitted when a native token transaction is executed.","params":{"amount":"The amount of native tokens transferred.","transactionId":"The ID of the executed transaction."}},"OwnerAddition(address)":{"details":"Emitted when a new owner is added to the contract.","params":{"owner":"The address of the newly added owner."}},"OwnerRemoval(address)":{"details":"Emitted when an owner is removed from the contract.","params":{"owner":"The address of the owner being removed."}},"QuorumChanged(uint256)":{"details":"Emitted when the quorum requirement is changed.","params":{"quorum":"The new quorum requirement."}},"Revocation(address,uint256)":{"details":"Emitted when a transaction confirmation is revoked by an owner.","params":{"sender":"The address of the owner who revoked the transaction confirmation.","transactionId":"The ID of the transaction whose confirmation was revoked."}},"Submission(address,uint256)":{"details":"Emitted when a new transaction is submitted.","params":{"destination":"The destination address of the transaction.","transactionId":"The ID of the submitted transaction."}}},"kind":"dev","methods":{"addOwner(address)":{"details":"Adds a new owner to the contract. Restricted to existing owners.","params":{"owner":"The address to be added as a new owner."}},"changeQuorum(uint256)":{"details":"Changes the quorum requirement. Restricted to existing owners.","params":{"newQuorum":"The new quorum requirement."}},"confirmTransaction(uint256)":{"details":"Allows an owner to confirm a transaction. Emits a Confirmation event.","params":{"transactionId":"The ID of the transaction to be confirmed."}},"constructor":{"details":"Initializes the contract with a set of owners and a quorum requirement.      Extends the initialization functionality from MultiSigAdministration.","params":{"_owners":"List of initial owners.","_quorum":"The initial quorum requirement for transaction confirmations."}},"deposit()":{"details":"Allows anyone to deposit native tokens into the contract. Emits a Deposit event."},"executeTransaction(uint256)":{"details":"Executes a confirmed transaction. Determines the type of transaction and executes accordingly.","params":{"transactionId":"The ID of the transaction to be executed."}},"getConfirmationCount(uint256)":{"details":"Returns the number of confirmations for a transaction.","params":{"transactionId":"The ID of the transaction."},"returns":{"count":": The count of confirmations for the transaction."}},"getConfirmations(uint256)":{"details":"Returns an array of addresses that have confirmed a given transaction.","params":{"transactionId":"The ID of the transaction."},"returns":{"_confirmations":": A list of addresses that have confirmed the transaction."}},"getOwnerCount()":{"details":"Returns the total number of owners.","returns":{"res":": The total number of owners."}},"getOwners()":{"details":"Returns the list of current owners.","returns":{"_0":"The current list of owner addresses."}},"getQuorum()":{"details":"Returns the current quorum requirement.","returns":{"res":": The current quorum requirement."}},"getRevocationCount(uint256)":{"details":"Returns the number of revocations for a transaction.","params":{"transactionId":"The ID of the transaction."},"returns":{"count":": The count of revocations for the transaction."}},"getRevocations(uint256)":{"details":"Returns an array of addresses that have revoked a given transaction.","params":{"transactionId":"The ID of the transaction."},"returns":{"_confirmations":": A list of addresses that have revoked their confirmation for the transaction."}},"getTransactionCount()":{"details":"Returns the total number of transactions submitted to the contract.","returns":{"count":": The total count of transactions."}},"getUserConfirmationStatus(uint256,address)":{"details":"Checks if an owner has confirmed a transaction or not (revoked or not voted yet).","params":{"owner":"The address of the owner whose confirmation status is to be checked.","transactionId":"The ID of the transaction to check."},"returns":{"_0":"`true` if the owner has confirmed, `false` otherwise."}},"isConfirmed(uint256)":{"details":"Checks if a transaction has reached the required quorum of confirmations.","params":{"transactionId":"The ID of the transaction to check."},"returns":{"res":"`true` if the transaction is confirmed, `false` otherwise."}},"isRevoked(uint256)":{"details":"Checks if a transaction has reached the required quorum of revokations.","params":{"transactionId":"The ID of the transaction to check."},"returns":{"res":"`true` if the transaction is revoked, `false` otherwise."}},"removeOwner(address)":{"details":"Removes an existing owner from the contract. Restricted to existing owners.","params":{"owner":"The address of the owner to be removed."}},"revokeTransaction(uint256)":{"details":"Allows an owner to revoke their confirmation for a transaction. Emits a Revocation event.","params":{"transactionId":"The ID of the transaction for which the confirmation is to be revoked."}},"setTokenContractAddress(address)":{"details":"Sets the ERC20 token contract address for the contract.","params":{"tokenContractAddress":"The address of the ERC20 token contract."}},"submitTransaction(address,uint256,uint8)":{"details":"Allows an owner to submit a new transaction. Emits a Submission event.","params":{"destination":"The destination address for the transaction.","transactionType":"The type of transaction being submitted.","value":"The value (amount of native tokens or token ID) involved in the transaction."},"returns":{"transactionId":"The ID of the submitted transaction."}},"verifyOwner(address)":{"details":"Checks if a given address is an owner of the contract.","params":{"addressToVerify":"The address to be verified."},"returns":{"res":": `true` if the address is an owner, `false` otherwise."}}},"title":"Multi-Signature Transaction Contract","version":1},"evm":{"bytecode":{"linkReferences":{},"object":"60806040523480156200001157600080fd5b5060405162002a5038038062002a508339810160408190526200003491620002ef565b81818151818181111580156200004957508015155b80156200005557508115155b620000a75760405162461bcd60e51b815260206004820152601660248201527f436f6e646974696f6e7320617265206e6f74206d65740000000000000000000060448201526064015b60405180910390fd5b60005b84518110156200021157600080868381518110620000cc57620000cc620003c9565b6020908102919091018101516001600160a01b031682528101919091526040016000205460ff1615801562000130575060006001600160a01b03168582815181106200011c576200011c620003c9565b60200260200101516001600160a01b031614155b620001b05760405162461bcd60e51b815260206004820152604360248201527f416464726573732073686f756c646e277420626520616c7265616479206c697360448201527f746564206173206f776e65722c206e6f722073686f756c64206974206265204e60648201526215531360ea1b608482015260a4016200009e565b6001600080878481518110620001ca57620001ca620003c9565b6020908102919091018101516001600160a01b03168252810191909152604001600020805460ff1916911515919091179055806200020881620003df565b915050620000aa565b508351620002279060019060208701906200023b565b505050600255505060006005555062000407565b82805482825590600052602060002090810192821562000293579160200282015b828111156200029357825182546001600160a01b0319166001600160a01b039091161782556020909201916001909101906200025c565b50620002a1929150620002a5565b5090565b5b80821115620002a15760008155600101620002a6565b634e487b7160e01b600052604160045260246000fd5b80516001600160a01b0381168114620002ea57600080fd5b919050565b600080604083850312156200030357600080fd5b82516001600160401b03808211156200031b57600080fd5b818501915085601f8301126200033057600080fd5b8151602082821115620003475762000347620002bc565b8160051b604051601f19603f830116810181811086821117156200036f576200036f620002bc565b6040529283528183019350848101820192898411156200038e57600080fd5b948201945b83861015620003b757620003a786620002d2565b8552948201949382019362000393565b97909101519698969750505050505050565b634e487b7160e01b600052603260045260246000fd5b6000600182016200040057634e487b7160e01b600052601160045260246000fd5b5060010190565b61263980620004176000396000f3fe6080604052600436106101dc5760003560e01c80638b51d13f11610102578063c26c12eb11610095578063d2cd96bd11610064578063d2cd96bd146105be578063ee22610b146105de578063ef18374a146105fe578063f6bdc03014610613576101eb565b8063c26c12eb14610573578063c59bcee814610588578063c85c41e91461059e578063d0e30db0146101eb576101eb565b8063b23d4854116100d1578063b23d4854146104fd578063b5dc40c31461051d578063b77bf6001461053d578063c01a8c8414610553576101eb565b80638b51d13f146104625780638c85cd8514610482578063a0e67e2b146104bb578063af05445a146104dd576101eb565b80632f54bf6e1161017a5780637065cb48116101495780637065cb48146103ed578063735631ad1461040d578063784547a71461042d57806382b2e2571461044d576101eb565b80632f54bf6e146103115780633c680462146103415780635ccc561e14610361578063642f2eaf14610381576101eb565b80631703a018116101b65780631703a018146102a6578063173825d9146102bc57806329cd11b2146102dc5780632e7700f0146102fc576101eb565b8063025e7c27146101f35780630c4ecab414610230578063144dee3814610276576101eb565b366101eb576101e9610640565b005b6101e9610640565b3480156101ff57600080fd5b5061021361020e366004612275565b61067e565b6040516001600160a01b0390911681526020015b60405180910390f35b34801561023c57600080fd5b5061026861024b3660046122aa565b600660209081526000928352604080842090915290825290205481565b604051908152602001610227565b34801561028257600080fd5b506102966102913660046122aa565b6106a8565b6040519015158152602001610227565b3480156102b257600080fd5b5061026860025481565b3480156102c857600080fd5b506101e96102d73660046122d6565b61077a565b3480156102e857600080fd5b506102686102f7366004612275565b6109c8565b34801561030857600080fd5b50600554610268565b34801561031d57600080fd5b5061029661032c3660046122d6565b60006020819052908152604090205460ff1681565b34801561034d57600080fd5b5061026861035c3660046122f8565b6109e9565b34801561036d57600080fd5b5061029661037c366004612275565b610afb565b34801561038d57600080fd5b506103dc61039c366004612275565b60046020526000908152604090208054600182015460028301546003909301546001600160a01b0392831693919092169160ff8082169161010090041685565b604051610227959493929190612352565b3480156103f957600080fd5b506101e96104083660046122d6565b610c1d565b34801561041957600080fd5b506101e9610428366004612275565b610e03565b34801561043957600080fd5b50610296610448366004612275565b610f20565b34801561045957600080fd5b5061026861103b565b34801561046e57600080fd5b5061026861047d366004612275565b6110b3565b34801561048e57600080fd5b5061029661049d3660046122d6565b6001600160a01b031660009081526020819052604090205460ff1690565b3480156104c757600080fd5b506104d06111be565b60405161022791906123a7565b3480156104e957600080fd5b506104d06104f8366004612275565b611220565b34801561050957600080fd5b506101e96105183660046122d6565b611483565b34801561052957600080fd5b506104d0610538366004612275565b6114d5565b34801561054957600080fd5b5061026860055481565b34801561055f57600080fd5b506101e961056e366004612275565b611730565b34801561057f57600080fd5b50600254610268565b34801561059457600080fd5b5061026860095481565b3480156105aa57600080fd5b506102686105b9366004612275565b611843565b3480156105ca57600080fd5b506101e96105d9366004612275565b611948565b3480156105ea57600080fd5b506101e96105f9366004612275565b611a18565b34801561060a57600080fd5b50600154610268565b34801561061f57600080fd5b5061026861062e366004612275565b60076020526000908152604090205481565b341561067c5760405134815233907fe1fffcc4923d04b559f4d29a8bfc6cda04eb5b0d3c460751c2402c5c5cc9109c9060200160405180910390a25b565b6001818154811061068e57600080fd5b6000918252602090912001546001600160a01b0316905081565b600082815260076020908152604080832054600955600880548251818502810185019093528083526107109383018282801561070357602002820191906000526020600020905b8154815260200190600101908083116106ef575b5050505050600954611d1f565b6107355760405162461bcd60e51b815260040161072c906123f4565b60405180910390fd5b60095460009081526006602090815260408083206001600160a01b0386168452909152902054600181900361076e576001915050610774565b60009150505b92915050565b3360008181526020819052604090205460ff166107a95760405162461bcd60e51b815260040161072c90612440565b6001600160a01b038216600090815260208190526040902054829060ff166107e35760405162461bcd60e51b815260040161072c90612440565b60018054116108345760405162461bcd60e51b815260206004820152601760248201527f43616e27742072656d6f7665206c617374206f776e6572000000000000000000604482015260640161072c565b60018054610842919061248d565b600254111561085c576001805461085c916105d99161248d565b60005b6001805461086d919061248d565b81101561093b57836001600160a01b031660018281548110610891576108916124a0565b6000918252602090912001546001600160a01b03160361092957600180546108ba90829061248d565b815481106108ca576108ca6124a0565b600091825260209091200154600180546001600160a01b0390921691839081106108f6576108f66124a0565b9060005260206000200160006101000a8154816001600160a01b0302191690836001600160a01b0316021790555061093b565b80610933816124b6565b91505061085f565b506001600160a01b0383166000908152602081905260409020805460ff19169055600180548061096d5761096d6124cf565b600082815260208120820160001990810180546001600160a01b03191690559091019091556040516001600160a01b038516917f8001553a916ef2f495d26a907cc54d96ed840d7bda71e73194bf5a9df7a76b9091a2505050565b600881815481106109d857600080fd5b600091825260209091200154905081565b3360008181526020819052604081205490919060ff16610a1b5760405162461bcd60e51b815260040161072c90612440565b604080513360601b6bffffffffffffffffffffffff1916602080830191909152603482018790524260548084019190915283518084039091018152607490920190925280519101206009819055600880546001810182556000919091527ff3f7a9fe364faab93b216da50a3214154f22a0a2b415b23a84c8169e8b636ee301819055610aae908690339087908790611d72565b9150846001600160a01b03167f7353684080cb3af2a27a8f7a2ea1d406494bd8e78dadcfad3519da376da14bfb83604051610aeb91815260200190565b60405180910390a2509392505050565b60008181526007602090815260408083205460095560088054825181850281018501909352808352610b619383018282801561070357602002820191906000526020600020908154815260200190600101908083116106ef575050505050600954611d1f565b610b7d5760405162461bcd60e51b815260040161072c906123f4565b50600080805b600154811015610c1657600660006009548152602001908152602001600020600060018381548110610bb757610bb76124a0565b60009182526020808320909101546001600160a01b03168352820192909252604001902054600203610bf157610bee6001836124e5565b91505b6002548210610c04575060019392505050565b80610c0e816124b6565b915050610b83565b5050919050565b6001600160a01b038116600090815260208190526040902054819060ff1615610c885760405162461bcd60e51b815260206004820181905260248201527f54686973206164647265737320697320616c726561647920616e206f776e6572604482015260640161072c565b3360008181526020819052604090205460ff16610cb75760405162461bcd60e51b815260040161072c90612440565b826001600160a01b038116610d045760405162461bcd60e51b8152602060048201526013602482015272151a19481859191c995cdcc81a5cc81b9d5b1b606a1b604482015260640161072c565b60018054610d11916124e5565b600254818111158015610d2357508015155b8015610d2e57508115155b610d735760405162461bcd60e51b815260206004820152601660248201527510dbdb991a5d1a5bdb9cc8185c99481b9bdd081b595d60521b604482015260640161072c565b6001600160a01b038616600081815260208190526040808220805460ff19166001908117909155805480820182559083527fb10e2d527612073b26eecdfd717e6a320cf44b4afac2b0732d9fcbe2b7fa0cf60180546001600160a01b03191684179055517ff39e6e1eb0edcf53c221607b54b00cd28f3196fed0a24994dc308b8f611b682d9190a2505050505050565b3360008181526020819052604090205460ff16610e325760405162461bcd60e51b815260040161072c90612440565b6000828152600760209081526040808320548084526004909252909120546001600160a01b0316610e755760405162461bcd60e51b815260040161072c906124f8565b600083815260076020908152604080832054808452600490925290912060030154610100900460ff1615610ebb5760405162461bcd60e51b815260040161072c90612549565b6000848152600760209081526040808320546009819055835260068252808320338085529083529281902060029055518681527ff6a317157440607f36269043eb55f1287a5a19ba2216afeab88cd46cbcfb88e991015b60405180910390a250505050565b60008181526007602090815260408083205460095560088054825181850281018501909352808352610f869383018282801561070357602002820191906000526020600020908154815260200190600101908083116106ef575050505050600954611d1f565b610fa25760405162461bcd60e51b815260040161072c906123f4565b50600080805b600154811015610c1657600660006009548152602001908152602001600020600060018381548110610fdc57610fdc6124a0565b60009182526020808320909101546001600160a01b03168352820192909252604001902054600103611016576110136001836124e5565b91505b6002548210611029575060019392505050565b80611033816124b6565b915050610fa8565b600354604051636eb1769f60e11b81523360048201523060248201526000916001600160a01b03169063dd62ed3e90604401602060405180830381865afa15801561108a573d6000803e3d6000fd5b505050506040513d601f19601f820116820180604052508101906110ae91906125b2565b905090565b600081815260076020908152604080832054600955600880548251818502810185019093528083526111199383018282801561070357602002820191906000526020600020908154815260200190600101908083116106ef575050505050600954611d1f565b6111355760405162461bcd60e51b815260040161072c906123f4565b60005b6001548110156111b85760066000600954815260200190815260200160002060006001838154811061116c5761116c6124a0565b60009182526020808320909101546001600160a01b031683528201929092526040019020546001036111a6576111a36001836124e5565b91505b806111b0816124b6565b915050611138565b50919050565b6060600180548060200260200160405190810160405280929190818152602001828054801561121657602002820191906000526020600020905b81546001600160a01b031681526001909101906020018083116111f8575b5050505050905090565b600081815260076020908152604091829020546009556008805483518184028101840190945280845260609361128e939092919083018282801561070357602002820191906000526020600020908154815260200190600101908083116106ef575050505050600954611d1f565b6112aa5760405162461bcd60e51b815260040161072c906123f4565b60015460009067ffffffffffffffff8111156112c8576112c86125cb565b6040519080825280602002602001820160405280156112f1578160200160208202803683370190505b5090506000805b6001548110156113d35760066000600954815260200190815260200160002060006001838154811061132c5761132c6124a0565b60009182526020808320909101546001600160a01b031683528201929092526040019020546002036113c1576001818154811061136b5761136b6124a0565b9060005260206000200160009054906101000a90046001600160a01b031683838151811061139b5761139b6124a0565b6001600160a01b03909216602092830291909101909101526113be6001836124e5565b91505b806113cb816124b6565b9150506112f8565b8167ffffffffffffffff8111156113ec576113ec6125cb565b604051908082528060200260200182016040528015611415578160200160208202803683370190505b509350600090505b8181101561147b57828181518110611437576114376124a0565b6020026020010151848281518110611451576114516124a0565b6001600160a01b039092166020928302919091019091015280611473816124b6565b91505061141d565b505050919050565b3360008181526020819052604090205460ff166114b25760405162461bcd60e51b815260040161072c90612440565b50600380546001600160a01b0319166001600160a01b0392909216919091179055565b6000818152600760209081526040918290205460095560088054835181840281018401909452808452606093611543939092919083018282801561070357602002820191906000526020600020908154815260200190600101908083116106ef575050505050600954611d1f565b61155f5760405162461bcd60e51b815260040161072c906123f4565b60015460009067ffffffffffffffff81111561157d5761157d6125cb565b6040519080825280602002602001820160405280156115a6578160200160208202803683370190505b5090506000805b600154811015611688576006600060095481526020019081526020016000206000600183815481106115e1576115e16124a0565b60009182526020808320909101546001600160a01b031683528201929092526040019020546001036116765760018181548110611620576116206124a0565b9060005260206000200160009054906101000a90046001600160a01b0316838381518110611650576116506124a0565b6001600160a01b03909216602092830291909101909101526116736001836124e5565b91505b80611680816124b6565b9150506115ad565b8167ffffffffffffffff8111156116a1576116a16125cb565b6040519080825280602002602001820160405280156116ca578160200160208202803683370190505b509350600090505b8181101561147b578281815181106116ec576116ec6124a0565b6020026020010151848281518110611706576117066124a0565b6001600160a01b039092166020928302919091019091015280611728816124b6565b9150506116d2565b3360008181526020819052604090205460ff1661175f5760405162461bcd60e51b815260040161072c90612440565b6000828152600760209081526040808320548084526004909252909120546001600160a01b03166117a25760405162461bcd60e51b815260040161072c906124f8565b600083815260076020908152604080832054808452600490925290912060030154610100900460ff16156117e85760405162461bcd60e51b815260040161072c90612549565b6000848152600760209081526040808320546009819055835260068252808320338085529083529281902060019055518681527f4a504a94899432a9846e1aa406dceb1bcfd538bb839071d49d1e5e23f5be30ef9101610f12565b600081815260076020908152604080832054600955600880548251818502810185019093528083526118a99383018282801561070357602002820191906000526020600020908154815260200190600101908083116106ef575050505050600954611d1f565b6118c55760405162461bcd60e51b815260040161072c906123f4565b60005b6001548110156111b8576006600060095481526020019081526020016000206000600183815481106118fc576118fc6124a0565b60009182526020808320909101546001600160a01b03168352820192909252604001902054600203611936576119336001836124e5565b91505b80611940816124b6565b9150506118c8565b3360008181526020819052604090205460ff166119775760405162461bcd60e51b815260040161072c90612440565b6001548281811180159061198a57508015155b801561199557508115155b6119da5760405162461bcd60e51b815260206004820152601660248201527510dbdb991a5d1a5bdb9cc8185c99481b9bdd081b595d60521b604482015260640161072c565b60028490556040518481527f027863d12a407097e086a48e36475bfc859d0b200b7e6f65b5fd3b218e46632e9060200160405180910390a150505050565b3360008181526020819052604090205460ff16611a475760405162461bcd60e51b815260040161072c90612440565b81611a5181610f20565b80611a605750611a6081610afb565b611abe5760405162461bcd60e51b815260206004820152602960248201527f51756f72756d20686173206e6f74206265656e2072656163686564206279206f6044820152681ddb995c9cc81e595d60ba1b606482015260840161072c565b82611ac881610f20565b611b315760405162461bcd60e51b815260206004820152603460248201527f546865207472616e73616374696f6e20686173206e6f74206265656e20636f6e604482015273199a5c9b595908189e481bdddb995c9cc81e595d60621b606482015260840161072c565b600084815260076020908152604080832054808452600490925290912060030154610100900460ff1615611b775760405162461bcd60e51b815260040161072c90612549565b6000858152600760209081526040918290205460095560088054835181840281018401909452808452611bdf939283018282801561070357602002820191906000526020600020908154815260200190600101908083116106ef575050505050600954611d1f565b611bfb5760405162461bcd60e51b815260040161072c906123f4565b6009546000908152600460205260409020611c1586610f20565b8015611c275750611c2586610afb565b155b15611d17576000600382015460ff166004811115611c4757611c4761233c565b03611c65578054611c60906001600160a01b0316610c1d565b611d17565b6001600382015460ff166004811115611c8057611c8061233c565b03611c99578054611c60906001600160a01b031661077a565b6002600382015460ff166004811115611cb457611cb461233c565b03611cc657611c608160020154611948565b60038082015460ff166004811115611ce057611ce061233c565b03611cee57611c6086611eeb565b6004600382015460ff166004811115611d0957611d0961233c565b03611d1757611d1786612072565b505050505050565b6000805b8351811015611d685782848281518110611d3f57611d3f6124a0565b602002602001015103611d56576001915050610774565b80611d60816124b6565b915050611d23565b5060009392505050565b6000856001600160a01b038116611dc15760405162461bcd60e51b8152602060048201526013602482015272151a19481859191c995cdcc81a5cc81b9d5b1b606a1b604482015260640161072c565b60055491508260076000848152602001908152602001600020819055506040518060a00160405280886001600160a01b03168152602001876001600160a01b03168152602001868152602001856004811115611e1f57611e1f61233c565b8152600060209182018190528581526004808352604091829020845181546001600160a01b039182166001600160a01b031991821617835594860151600183810180549290931691909616179055918401516002830155606084015160038301805493949193909260ff1990911691908490811115611ea057611ea061233c565b021790555060808201518160030160016101000a81548160ff021916908315150217905550905050600160056000828254611edb91906124e5565b9091555091979650505050505050565b60008181526007602090815260408083205460098190558352600490915290206002810154471015611f5f5760405162461bcd60e51b815260206004820181905260248201527f496e73756666696369656e742062616c616e636520696e20636f6e7472616374604482015260640161072c565b805460028201546040516000926001600160a01b031691908381818185875af1925050503d8060008114611faf576040519150601f19603f3d011682016040523d82523d6000602084013e611fb4565b606091505b50509050806120055760405162461bcd60e51b815260206004820152601b60248201527f4661696c656420746f2073656e64204e617469766520746f6b656e0000000000604482015260640161072c565b60095460009081526004602052604090819020600301805461ff001916610100179055600283015490517f5550ebcd63fe55cfee39f1d5d38991f3a21dd4699ab7c41e14112310fd0f877891612065918690918252602082015260400190565b60405180910390a1505050565b6000818152600760209081526040808320546009819055835260049182905280832060035460018201549251636eb1769f60e11b81526001600160a01b039384169481019490945230602485015290939291169063dd62ed3e90604401602060405180830381865afa1580156120ec573d6000803e3d6000fd5b505050506040513d601f19601f8201168201806040525081019061211091906125b2565b9050816002015481101561218c5760405162461bcd60e51b815260206004820152603760248201527f436f6e7472616374206973206e6f7420616c6c6f77656420627920757365722060448201527f746f207472616e73666572207375636820616d6f756e74000000000000000000606482015260840161072c565b6003546001830154835460028501546040516323b872dd60e01b81526001600160a01b039384166004820152918316602483015260448201529116906323b872dd906064016020604051808303816000875af11580156121f0573d6000803e3d6000fd5b505050506040513d601f19601f8201168201806040525081019061221491906125e1565b5060095460009081526004602052604090819020600301805461ff001916610100179055600283015490517f4645e2dffcb6b5be91555757773b76bbf2e4612da04db6995aef42facf6c2b5291612065918690918252602082015260400190565b60006020828403121561228757600080fd5b5035919050565b80356001600160a01b03811681146122a557600080fd5b919050565b600080604083850312156122bd57600080fd5b823591506122cd6020840161228e565b90509250929050565b6000602082840312156122e857600080fd5b6122f18261228e565b9392505050565b60008060006060848603121561230d57600080fd5b6123168461228e565b92506020840135915060408401356005811061233157600080fd5b809150509250925092565b634e487b7160e01b600052602160045260246000fd5b6001600160a01b038681168252851660208201526040810184905260a081016005841061238f57634e487b7160e01b600052602160045260246000fd5b83606083015282151560808301529695505050505050565b6020808252825182820181905260009190848201906040850190845b818110156123e85783516001600160a01b0316835292840192918401916001016123c3565b50909695505050505050565b6020808252602c908201527f4e6f207472616e73616374696f6e20666f756e64206173736f6369617465642060408201526b1dda5d1a081d1a1a5cc8125960a21b606082015260800190565b6020808252601c908201527f546869732061646472657373206973206e6f7420616e206f776e657200000000604082015260600190565b634e487b7160e01b600052601160045260246000fd5b8181038181111561077457610774612477565b634e487b7160e01b600052603260045260246000fd5b6000600182016124c8576124c8612477565b5060010190565b634e487b7160e01b600052603160045260246000fd5b8082018082111561077457610774612477565b60208082526031908201527f5468657265206973206e6f207472616e73616374696f6e206173736f636961746040820152701959081d1bc81d1a1a5cc81a185cda1259607a1b606082015260800190565b60208082526043908201527f546865207472616e73616374696f6e206173736f63696174656420776974682060408201527f7468697320686173682068617320616c7265616479206265656e2065786563756060820152621d195960ea1b608082015260a00190565b6000602082840312156125c457600080fd5b5051919050565b634e487b7160e01b600052604160045260246000fd5b6000602082840312156125f357600080fd5b815180151581146122f157600080fdfea2646970667358221220a767dae04807b8afa00adccc05341278aba052500c1dfd8579b58e5f90f7998364736f6c63430008140033","opcodes":"PUSH1 0x80 PUSH1 0x40 MSTORE CALLVALUE DUP1 ISZERO PUSH3 0x11 JUMPI PUSH1 0x0 DUP1 REVERT JUMPDEST POP PUSH1 0x40 MLOAD PUSH3 0x2A50 CODESIZE SUB DUP1 PUSH3 0x2A50 DUP4 CODECOPY DUP2 ADD PUSH1 0x40 DUP2 SWAP1 MSTORE PUSH3 0x34 SWAP2 PUSH3 0x2EF JUMP JUMPDEST DUP2 DUP2 DUP2 MLOAD DUP2 DUP2 DUP2 GT ISZERO DUP1 ISZERO PUSH3 0x49 JUMPI POP DUP1 ISZERO ISZERO JUMPDEST DUP1 ISZERO PUSH3 0x55 JUMPI POP DUP2 ISZERO ISZERO JUMPDEST PUSH3 0xA7 JUMPI PUSH1 0x40 MLOAD PUSH3 0x461BCD PUSH1 0xE5 SHL DUP2 MSTORE PUSH1 0x20 PUSH1 0x4 DUP3 ADD MSTORE PUSH1 0x16 PUSH1 0x24 DUP3 ADD MSTORE PUSH32 0x436F6E646974696F6E7320617265206E6F74206D657400000000000000000000 PUSH1 0x44 DUP3 ADD MSTORE PUSH1 0x64 ADD JUMPDEST PUSH1 0x40 MLOAD DUP1 SWAP2 SUB SWAP1 REVERT JUMPDEST PUSH1 0x0 JUMPDEST DUP5 MLOAD DUP2 LT ISZERO PUSH3 0x211 JUMPI PUSH1 0x0 DUP1 DUP7 DUP4 DUP2 MLOAD DUP2 LT PUSH3 0xCC JUMPI PUSH3 0xCC PUSH3 0x3C9 JUMP JUMPDEST PUSH1 0x20 SWAP1 DUP2 MUL SWAP2 SWAP1 SWAP2 ADD DUP2 ADD MLOAD PUSH1 0x1 PUSH1 0x1 PUSH1 0xA0 SHL SUB AND DUP3 MSTORE DUP2 ADD SWAP2 SWAP1 SWAP2 MSTORE PUSH1 0x40 ADD PUSH1 0x0 KECCAK256 SLOAD PUSH1 0xFF AND ISZERO DUP1 ISZERO PUSH3 0x130 JUMPI POP PUSH1 0x0 PUSH1 0x1 PUSH1 0x1 PUSH1 0xA0 SHL SUB AND DUP6 DUP3 DUP2 MLOAD DUP2 LT PUSH3 0x11C JUMPI PUSH3 0x11C PUSH3 0x3C9 JUMP JUMPDEST PUSH1 0x20 MUL PUSH1 0x20 ADD ADD MLOAD PUSH1 0x1 PUSH1 0x1 PUSH1 0xA0 SHL SUB AND EQ ISZERO JUMPDEST PUSH3 0x1B0 JUMPI PUSH1 0x40 MLOAD PUSH3 0x461BCD PUSH1 0xE5 SHL DUP2 MSTORE PUSH1 0x20 PUSH1 0x4 DUP3 ADD MSTORE PUSH1 0x43 PUSH1 0x24 DUP3 ADD MSTORE PUSH32 0x416464726573732073686F756C646E277420626520616C7265616479206C6973 PUSH1 0x44 DUP3 ADD MSTORE PUSH32 0x746564206173206F776E65722C206E6F722073686F756C64206974206265204E PUSH1 0x64 DUP3 ADD MSTORE PUSH3 0x155313 PUSH1 0xEA SHL PUSH1 0x84 DUP3 ADD MSTORE PUSH1 0xA4 ADD PUSH3 0x9E JUMP JUMPDEST PUSH1 0x1 PUSH1 0x0 DUP1 DUP8 DUP5 DUP2 MLOAD DUP2 LT PUSH3 0x1CA JUMPI PUSH3 0x1CA PUSH3 0x3C9 JUMP JUMPDEST PUSH1 0x20 SWAP1 DUP2 MUL SWAP2 SWAP1 SWAP2 ADD DUP2 ADD MLOAD PUSH1 0x1 PUSH1 0x1 PUSH1 0xA0 SHL SUB AND DUP3 MSTORE DUP2 ADD SWAP2 SWAP1 SWAP2 MSTORE PUSH1 0x40 ADD PUSH1 0x0 KECCAK256 DUP1 SLOAD PUSH1 0xFF NOT AND SWAP2 ISZERO ISZERO SWAP2 SWAP1 SWAP2 OR SWAP1 SSTORE DUP1 PUSH3 0x208 DUP2 PUSH3 0x3DF JUMP JUMPDEST SWAP2 POP POP PUSH3 0xAA JUMP JUMPDEST POP DUP4 MLOAD PUSH3 0x227 SWAP1 PUSH1 0x1 SWAP1 PUSH1 0x20 DUP8 ADD SWAP1 PUSH3 0x23B JUMP JUMPDEST POP POP POP PUSH1 0x2 SSTORE POP POP PUSH1 0x0 PUSH1 0x5 SSTORE POP PUSH3 0x407 JUMP JUMPDEST DUP3 DUP1 SLOAD DUP3 DUP3 SSTORE SWAP1 PUSH1 0x0 MSTORE PUSH1 0x20 PUSH1 0x0 KECCAK256 SWAP1 DUP2 ADD SWAP3 DUP3 ISZERO PUSH3 0x293 JUMPI SWAP2 PUSH1 0x20 MUL DUP3 ADD JUMPDEST DUP3 DUP2 GT ISZERO PUSH3 0x293 JUMPI DUP3 MLOAD DUP3 SLOAD PUSH1 0x1 PUSH1 0x1 PUSH1 0xA0 SHL SUB NOT AND PUSH1 0x1 PUSH1 0x1 PUSH1 0xA0 SHL SUB SWAP1 SWAP2 AND OR DUP3 SSTORE PUSH1 0x20 SWAP1 SWAP3 ADD SWAP2 PUSH1 0x1 SWAP1 SWAP2 ADD SWAP1 PUSH3 0x25C JUMP JUMPDEST POP PUSH3 0x2A1 SWAP3 SWAP2 POP PUSH3 0x2A5 JUMP JUMPDEST POP SWAP1 JUMP JUMPDEST JUMPDEST DUP1 DUP3 GT ISZERO PUSH3 0x2A1 JUMPI PUSH1 0x0 DUP2 SSTORE PUSH1 0x1 ADD PUSH3 0x2A6 JUMP JUMPDEST PUSH4 0x4E487B71 PUSH1 0xE0 SHL PUSH1 0x0 MSTORE PUSH1 0x41 PUSH1 0x4 MSTORE PUSH1 0x24 PUSH1 0x0 REVERT JUMPDEST DUP1 MLOAD PUSH1 0x1 PUSH1 0x1 PUSH1 0xA0 SHL SUB DUP2 AND DUP2 EQ PUSH3 0x2EA JUMPI PUSH1 0x0 DUP1 REVERT JUMPDEST SWAP2 SWAP1 POP JUMP JUMPDEST PUSH1 0x0 DUP1 PUSH1 0x40 DUP4 DUP6 SUB SLT ISZERO PUSH3 0x303 JUMPI PUSH1 0x0 DUP1 REVERT JUMPDEST DUP3 MLOAD PUSH1 0x1 PUSH1 0x1 PUSH1 0x40 SHL SUB DUP1 DUP3 GT ISZERO PUSH3 0x31B JUMPI PUSH1 0x0 DUP1 REVERT JUMPDEST DUP2 DUP6 ADD SWAP2 POP DUP6 PUSH1 0x1F DUP4 ADD SLT PUSH3 0x330 JUMPI PUSH1 0x0 DUP1 REVERT JUMPDEST DUP2 MLOAD PUSH1 0x20 DUP3 DUP3 GT ISZERO PUSH3 0x347 JUMPI PUSH3 0x347 PUSH3 0x2BC JUMP JUMPDEST DUP2 PUSH1 0x5 SHL PUSH1 0x40 MLOAD PUSH1 0x1F NOT PUSH1 0x3F DUP4 ADD AND DUP2 ADD DUP2 DUP2 LT DUP7 DUP3 GT OR ISZERO PUSH3 0x36F JUMPI PUSH3 0x36F PUSH3 0x2BC JUMP JUMPDEST PUSH1 0x40 MSTORE SWAP3 DUP4 MSTORE DUP2 DUP4 ADD SWAP4 POP DUP5 DUP2 ADD DUP3 ADD SWAP3 DUP10 DUP5 GT ISZERO PUSH3 0x38E JUMPI PUSH1 0x0 DUP1 REVERT JUMPDEST SWAP5 DUP3 ADD SWAP5 JUMPDEST DUP4 DUP7 LT ISZERO PUSH3 0x3B7 JUMPI PUSH3 0x3A7 DUP7 PUSH3 0x2D2 JUMP JUMPDEST DUP6 MSTORE SWAP5 DUP3 ADD SWAP5 SWAP4 DUP3 ADD SWAP4 PUSH3 0x393 JUMP JUMPDEST SWAP8 SWAP1 SWAP2 ADD MLOAD SWAP7 SWAP9 SWAP7 SWAP8 POP POP POP POP POP POP POP JUMP JUMPDEST PUSH4 0x4E487B71 PUSH1 0xE0 SHL PUSH1 0x0 MSTORE PUSH1 0x32 PUSH1 0x4 MSTORE PUSH1 0x24 PUSH1 0x0 REVERT JUMPDEST PUSH1 0x0 PUSH1 0x1 DUP3 ADD PUSH3 0x400 JUMPI PUSH4 0x4E487B71 PUSH1 0xE0 SHL PUSH1 0x0 MSTORE PUSH1 0x11 PUSH1 0x4 MSTORE PUSH1 0x24 PUSH1 0x0 REVERT JUMPDEST POP PUSH1 0x1 ADD SWAP1 JUMP JUMPDEST PUSH2 0x2639 DUP1 PUSH3 0x417 PUSH1 0x0 CODECOPY PUSH1 0x0 RETURN INVALID PUSH1 0x80 PUSH1 0x40 MSTORE PUSH1 0x4 CALLDATASIZE LT PUSH2 0x1DC JUMPI PUSH1 0x0 CALLDATALOAD PUSH1 0xE0 SHR DUP1 PUSH4 0x8B51D13F GT PUSH2 0x102 JUMPI DUP1 PUSH4 0xC26C12EB GT PUSH2 0x95 JUMPI DUP1 PUSH4 0xD2CD96BD GT PUSH2 0x64 JUMPI DUP1 PUSH4 0xD2CD96BD EQ PUSH2 0x5BE JUMPI DUP1 PUSH4 0xEE22610B EQ PUSH2 0x5DE JUMPI DUP1 PUSH4 0xEF18374A EQ PUSH2 0x5FE JUMPI DUP1 PUSH4 0xF6BDC030 EQ PUSH2 0x613 JUMPI PUSH2 0x1EB JUMP JUMPDEST DUP1 PUSH4 0xC26C12EB EQ PUSH2 0x573 JUMPI DUP1 PUSH4 0xC59BCEE8 EQ PUSH2 0x588 JUMPI DUP1 PUSH4 0xC85C41E9 EQ PUSH2 0x59E JUMPI DUP1 PUSH4 0xD0E30DB0 EQ PUSH2 0x1EB JUMPI PUSH2 0x1EB JUMP JUMPDEST DUP1 PUSH4 0xB23D4854 GT PUSH2 0xD1 JUMPI DUP1 PUSH4 0xB23D4854 EQ PUSH2 0x4FD JUMPI DUP1 PUSH4 0xB5DC40C3 EQ PUSH2 0x51D JUMPI DUP1 PUSH4 0xB77BF600 EQ PUSH2 0x53D JUMPI DUP1 PUSH4 0xC01A8C84 EQ PUSH2 0x553 JUMPI PUSH2 0x1EB JUMP JUMPDEST DUP1 PUSH4 0x8B51D13F EQ PUSH2 0x462 JUMPI DUP1 PUSH4 0x8C85CD85 EQ PUSH2 0x482 JUMPI DUP1 PUSH4 0xA0E67E2B EQ PUSH2 0x4BB JUMPI DUP1 PUSH4 0xAF05445A EQ PUSH2 0x4DD JUMPI PUSH2 0x1EB JUMP JUMPDEST DUP1 PUSH4 0x2F54BF6E GT PUSH2 0x17A JUMPI DUP1 PUSH4 0x7065CB48 GT PUSH2 0x149 JUMPI DUP1 PUSH4 0x7065CB48 EQ PUSH2 0x3ED JUMPI DUP1 PUSH4 0x735631AD EQ PUSH2 0x40D JUMPI DUP1 PUSH4 0x784547A7 EQ PUSH2 0x42D JUMPI DUP1 PUSH4 0x82B2E257 EQ PUSH2 0x44D JUMPI PUSH2 0x1EB JUMP JUMPDEST DUP1 PUSH4 0x2F54BF6E EQ PUSH2 0x311 JUMPI DUP1 PUSH4 0x3C680462 EQ PUSH2 0x341 JUMPI DUP1 PUSH4 0x5CCC561E EQ PUSH2 0x361 JUMPI DUP1 PUSH4 0x642F2EAF EQ PUSH2 0x381 JUMPI PUSH2 0x1EB JUMP JUMPDEST DUP1 PUSH4 0x1703A018 GT PUSH2 0x1B6 JUMPI DUP1 PUSH4 0x1703A018 EQ PUSH2 0x2A6 JUMPI DUP1 PUSH4 0x173825D9 EQ PUSH2 0x2BC JUMPI DUP1 PUSH4 0x29CD11B2 EQ PUSH2 0x2DC JUMPI DUP1 PUSH4 0x2E7700F0 EQ PUSH2 0x2FC JUMPI PUSH2 0x1EB JUMP JUMPDEST DUP1 PUSH4 0x25E7C27 EQ PUSH2 0x1F3 JUMPI DUP1 PUSH4 0xC4ECAB4 EQ PUSH2 0x230 JUMPI DUP1 PUSH4 0x144DEE38 EQ PUSH2 0x276 JUMPI PUSH2 0x1EB JUMP JUMPDEST CALLDATASIZE PUSH2 0x1EB JUMPI PUSH2 0x1E9 PUSH2 0x640 JUMP JUMPDEST STOP JUMPDEST PUSH2 0x1E9 PUSH2 0x640 JUMP JUMPDEST CALLVALUE DUP1 ISZERO PUSH2 0x1FF JUMPI PUSH1 0x0 DUP1 REVERT JUMPDEST POP PUSH2 0x213 PUSH2 0x20E CALLDATASIZE PUSH1 0x4 PUSH2 0x2275 JUMP JUMPDEST PUSH2 0x67E JUMP JUMPDEST PUSH1 0x40 MLOAD PUSH1 0x1 PUSH1 0x1 PUSH1 0xA0 SHL SUB SWAP1 SWAP2 AND DUP2 MSTORE PUSH1 0x20 ADD JUMPDEST PUSH1 0x40 MLOAD DUP1 SWAP2 SUB SWAP1 RETURN JUMPDEST CALLVALUE DUP1 ISZERO PUSH2 0x23C JUMPI PUSH1 0x0 DUP1 REVERT JUMPDEST POP PUSH2 0x268 PUSH2 0x24B CALLDATASIZE PUSH1 0x4 PUSH2 0x22AA JUMP JUMPDEST PUSH1 0x6 PUSH1 0x20 SWAP1 DUP2 MSTORE PUSH1 0x0 SWAP3 DUP4 MSTORE PUSH1 0x40 DUP1 DUP5 KECCAK256 SWAP1 SWAP2 MSTORE SWAP1 DUP3 MSTORE SWAP1 KECCAK256 SLOAD DUP2 JUMP JUMPDEST PUSH1 0x40 MLOAD SWAP1 DUP2 MSTORE PUSH1 0x20 ADD PUSH2 0x227 JUMP JUMPDEST CALLVALUE DUP1 ISZERO PUSH2 0x282 JUMPI PUSH1 0x0 DUP1 REVERT JUMPDEST POP PUSH2 0x296 PUSH2 0x291 CALLDATASIZE PUSH1 0x4 PUSH2 0x22AA JUMP JUMPDEST PUSH2 0x6A8 JUMP JUMPDEST PUSH1 0x40 MLOAD SWAP1 ISZERO ISZERO DUP2 MSTORE PUSH1 0x20 ADD PUSH2 0x227 JUMP JUMPDEST CALLVALUE DUP1 ISZERO PUSH2 0x2B2 JUMPI PUSH1 0x0 DUP1 REVERT JUMPDEST POP PUSH2 0x268 PUSH1 0x2 SLOAD DUP2 JUMP JUMPDEST CALLVALUE DUP1 ISZERO PUSH2 0x2C8 JUMPI PUSH1 0x0 DUP1 REVERT JUMPDEST POP PUSH2 0x1E9 PUSH2 0x2D7 CALLDATASIZE PUSH1 0x4 PUSH2 0x22D6 JUMP JUMPDEST PUSH2 0x77A JUMP JUMPDEST CALLVALUE DUP1 ISZERO PUSH2 0x2E8 JUMPI PUSH1 0x0 DUP1 REVERT JUMPDEST POP PUSH2 0x268 PUSH2 0x2F7 CALLDATASIZE PUSH1 0x4 PUSH2 0x2275 JUMP JUMPDEST PUSH2 0x9C8 JUMP JUMPDEST CALLVALUE DUP1 ISZERO PUSH2 0x308 JUMPI PUSH1 0x0 DUP1 REVERT JUMPDEST POP PUSH1 0x5 SLOAD PUSH2 0x268 JUMP JUMPDEST CALLVALUE DUP1 ISZERO PUSH2 0x31D JUMPI PUSH1 0x0 DUP1 REVERT JUMPDEST POP PUSH2 0x296 PUSH2 0x32C CALLDATASIZE PUSH1 0x4 PUSH2 0x22D6 JUMP JUMPDEST PUSH1 0x0 PUSH1 0x20 DUP2 SWAP1 MSTORE SWAP1 DUP2 MSTORE PUSH1 0x40 SWAP1 KECCAK256 SLOAD PUSH1 0xFF AND DUP2 JUMP JUMPDEST CALLVALUE DUP1 ISZERO PUSH2 0x34D JUMPI PUSH1 0x0 DUP1 REVERT JUMPDEST POP PUSH2 0x268 PUSH2 0x35C CALLDATASIZE PUSH1 0x4 PUSH2 0x22F8 JUMP JUMPDEST PUSH2 0x9E9 JUMP JUMPDEST CALLVALUE DUP1 ISZERO PUSH2 0x36D JUMPI PUSH1 0x0 DUP1 REVERT JUMPDEST POP PUSH2 0x296 PUSH2 0x37C CALLDATASIZE PUSH1 0x4 PUSH2 0x2275 JUMP JUMPDEST PUSH2 0xAFB JUMP JUMPDEST CALLVALUE DUP1 ISZERO PUSH2 0x38D JUMPI PUSH1 0x0 DUP1 REVERT JUMPDEST POP PUSH2 0x3DC PUSH2 0x39C CALLDATASIZE PUSH1 0x4 PUSH2 0x2275 JUMP JUMPDEST PUSH1 0x4 PUSH1 0x20 MSTORE PUSH1 0x0 SWAP1 DUP2 MSTORE PUSH1 0x40 SWAP1 KECCAK256 DUP1 SLOAD PUSH1 0x1 DUP3 ADD SLOAD PUSH1 0x2 DUP4 ADD SLOAD PUSH1 0x3 SWAP1 SWAP4 ADD SLOAD PUSH1 0x1 PUSH1 0x1 PUSH1 0xA0 SHL SUB SWAP3 DUP4 AND SWAP4 SWAP2 SWAP1 SWAP3 AND SWAP2 PUSH1 0xFF DUP1 DUP3 AND SWAP2 PUSH2 0x100 SWAP1 DIV AND DUP6 JUMP JUMPDEST PUSH1 0x40 MLOAD PUSH2 0x227 SWAP6 SWAP5 SWAP4 SWAP3 SWAP2 SWAP1 PUSH2 0x2352 JUMP JUMPDEST CALLVALUE DUP1 ISZERO PUSH2 0x3F9 JUMPI PUSH1 0x0 DUP1 REVERT JUMPDEST POP PUSH2 0x1E9 PUSH2 0x408 CALLDATASIZE PUSH1 0x4 PUSH2 0x22D6 JUMP JUMPDEST PUSH2 0xC1D JUMP JUMPDEST CALLVALUE DUP1 ISZERO PUSH2 0x419 JUMPI PUSH1 0x0 DUP1 REVERT JUMPDEST POP PUSH2 0x1E9 PUSH2 0x428 CALLDATASIZE PUSH1 0x4 PUSH2 0x2275 JUMP JUMPDEST PUSH2 0xE03 JUMP JUMPDEST CALLVALUE DUP1 ISZERO PUSH2 0x439 JUMPI PUSH1 0x0 DUP1 REVERT JUMPDEST POP PUSH2 0x296 PUSH2 0x448 CALLDATASIZE PUSH1 0x4 PUSH2 0x2275 JUMP JUMPDEST PUSH2 0xF20 JUMP JUMPDEST CALLVALUE DUP1 ISZERO PUSH2 0x459 JUMPI PUSH1 0x0 DUP1 REVERT JUMPDEST POP PUSH2 0x268 PUSH2 0x103B JUMP JUMPDEST CALLVALUE DUP1 ISZERO PUSH2 0x46E JUMPI PUSH1 0x0 DUP1 REVERT JUMPDEST POP PUSH2 0x268 PUSH2 0x47D CALLDATASIZE PUSH1 0x4 PUSH2 0x2275 JUMP JUMPDEST PUSH2 0x10B3 JUMP JUMPDEST CALLVALUE DUP1 ISZERO PUSH2 0x48E JUMPI PUSH1 0x0 DUP1 REVERT JUMPDEST POP PUSH2 0x296 PUSH2 0x49D CALLDATASIZE PUSH1 0x4 PUSH2 0x22D6 JUMP JUMPDEST PUSH1 0x1 PUSH1 0x1 PUSH1 0xA0 SHL SUB AND PUSH1 0x0 SWAP1 DUP2 MSTORE PUSH1 0x20 DUP2 SWAP1 MSTORE PUSH1 0x40 SWAP1 KECCAK256 SLOAD PUSH1 0xFF AND SWAP1 JUMP JUMPDEST CALLVALUE DUP1 ISZERO PUSH2 0x4C7 JUMPI PUSH1 0x0 DUP1 REVERT JUMPDEST POP PUSH2 0x4D0 PUSH2 0x11BE JUMP JUMPDEST PUSH1 0x40 MLOAD PUSH2 0x227 SWAP2 SWAP1 PUSH2 0x23A7 JUMP JUMPDEST CALLVALUE DUP1 ISZERO PUSH2 0x4E9 JUMPI PUSH1 0x0 DUP1 REVERT JUMPDEST POP PUSH2 0x4D0 PUSH2 0x4F8 CALLDATASIZE PUSH1 0x4 PUSH2 0x2275 JUMP JUMPDEST PUSH2 0x1220 JUMP JUMPDEST CALLVALUE DUP1 ISZERO PUSH2 0x509 JUMPI PUSH1 0x0 DUP1 REVERT JUMPDEST POP PUSH2 0x1E9 PUSH2 0x518 CALLDATASIZE PUSH1 0x4 PUSH2 0x22D6 JUMP JUMPDEST PUSH2 0x1483 JUMP JUMPDEST CALLVALUE DUP1 ISZERO PUSH2 0x529 JUMPI PUSH1 0x0 DUP1 REVERT JUMPDEST POP PUSH2 0x4D0 PUSH2 0x538 CALLDATASIZE PUSH1 0x4 PUSH2 0x2275 JUMP JUMPDEST PUSH2 0x14D5 JUMP JUMPDEST CALLVALUE DUP1 ISZERO PUSH2 0x549 JUMPI PUSH1 0x0 DUP1 REVERT JUMPDEST POP PUSH2 0x268 PUSH1 0x5 SLOAD DUP2 JUMP JUMPDEST CALLVALUE DUP1 ISZERO PUSH2 0x55F JUMPI PUSH1 0x0 DUP1 REVERT JUMPDEST POP PUSH2 0x1E9 PUSH2 0x56E CALLDATASIZE PUSH1 0x4 PUSH2 0x2275 JUMP JUMPDEST PUSH2 0x1730 JUMP JUMPDEST CALLVALUE DUP1 ISZERO PUSH2 0x57F JUMPI PUSH1 0x0 DUP1 REVERT JUMPDEST POP PUSH1 0x2 SLOAD PUSH2 0x268 JUMP JUMPDEST CALLVALUE DUP1 ISZERO PUSH2 0x594 JUMPI PUSH1 0x0 DUP1 REVERT JUMPDEST POP PUSH2 0x268 PUSH1 0x9 SLOAD DUP2 JUMP JUMPDEST CALLVALUE DUP1 ISZERO PUSH2 0x5AA JUMPI PUSH1 0x0 DUP1 REVERT JUMPDEST POP PUSH2 0x268 PUSH2 0x5B9 CALLDATASIZE PUSH1 0x4 PUSH2 0x2275 JUMP JUMPDEST PUSH2 0x1843 JUMP JUMPDEST CALLVALUE DUP1 ISZERO PUSH2 0x5CA JUMPI PUSH1 0x0 DUP1 REVERT JUMPDEST POP PUSH2 0x1E9 PUSH2 0x5D9 CALLDATASIZE PUSH1 0x4 PUSH2 0x2275 JUMP JUMPDEST PUSH2 0x1948 JUMP JUMPDEST CALLVALUE DUP1 ISZERO PUSH2 0x5EA JUMPI PUSH1 0x0 DUP1 REVERT JUMPDEST POP PUSH2 0x1E9 PUSH2 0x5F9 CALLDATASIZE PUSH1 0x4 PUSH2 0x2275 JUMP JUMPDEST PUSH2 0x1A18 JUMP JUMPDEST CALLVALUE DUP1 ISZERO PUSH2 0x60A JUMPI PUSH1 0x0 DUP1 REVERT JUMPDEST POP PUSH1 0x1 SLOAD PUSH2 0x268 JUMP JUMPDEST CALLVALUE DUP1 ISZERO PUSH2 0x61F JUMPI PUSH1 0x0 DUP1 REVERT JUMPDEST POP PUSH2 0x268 PUSH2 0x62E CALLDATASIZE PUSH1 0x4 PUSH2 0x2275 JUMP JUMPDEST PUSH1 0x7 PUSH1 0x20 MSTORE PUSH1 0x0 SWAP1 DUP2 MSTORE PUSH1 0x40 SWAP1 KECCAK256 SLOAD DUP2 JUMP JUMPDEST CALLVALUE ISZERO PUSH2 0x67C JUMPI PUSH1 0x40 MLOAD CALLVALUE DUP2 MSTORE CALLER SWAP1 PUSH32 0xE1FFFCC4923D04B559F4D29A8BFC6CDA04EB5B0D3C460751C2402C5C5CC9109C SWAP1 PUSH1 0x20 ADD PUSH1 0x40 MLOAD DUP1 SWAP2 SUB SWAP1 LOG2 JUMPDEST JUMP JUMPDEST PUSH1 0x1 DUP2 DUP2 SLOAD DUP2 LT PUSH2 0x68E JUMPI PUSH1 0x0 DUP1 REVERT JUMPDEST PUSH1 0x0 SWAP2 DUP3 MSTORE PUSH1 0x20 SWAP1 SWAP2 KECCAK256 ADD SLOAD PUSH1 0x1 PUSH1 0x1 PUSH1 0xA0 SHL SUB AND SWAP1 POP DUP2 JUMP JUMPDEST PUSH1 0x0 DUP3 DUP2 MSTORE PUSH1 0x7 PUSH1 0x20 SWAP1 DUP2 MSTORE PUSH1 0x40 DUP1 DUP4 KECCAK256 SLOAD PUSH1 0x9 SSTORE PUSH1 0x8 DUP1 SLOAD DUP3 MLOAD DUP2 DUP6 MUL DUP2 ADD DUP6 ADD SWAP1 SWAP4 MSTORE DUP1 DUP4 MSTORE PUSH2 0x710 SWAP4 DUP4 ADD DUP3 DUP3 DUP1 ISZERO PUSH2 0x703 JUMPI PUSH1 0x20 MUL DUP3 ADD SWAP2 SWAP1 PUSH1 0x0 MSTORE PUSH1 0x20 PUSH1 0x0 KECCAK256 SWAP1 JUMPDEST DUP2 SLOAD DUP2 MSTORE PUSH1 0x20 ADD SWAP1 PUSH1 0x1 ADD SWAP1 DUP1 DUP4 GT PUSH2 0x6EF JUMPI JUMPDEST POP POP POP POP POP PUSH1 0x9 SLOAD PUSH2 0x1D1F JUMP JUMPDEST PUSH2 0x735 JUMPI PUSH1 0x40 MLOAD PUSH3 0x461BCD PUSH1 0xE5 SHL DUP2 MSTORE PUSH1 0x4 ADD PUSH2 0x72C SWAP1 PUSH2 0x23F4 JUMP JUMPDEST PUSH1 0x40 MLOAD DUP1 SWAP2 SUB SWAP1 REVERT JUMPDEST PUSH1 0x9 SLOAD PUSH1 0x0 SWAP1 DUP2 MSTORE PUSH1 0x6 PUSH1 0x20 SWAP1 DUP2 MSTORE PUSH1 0x40 DUP1 DUP4 KECCAK256 PUSH1 0x1 PUSH1 0x1 PUSH1 0xA0 SHL SUB DUP7 AND DUP5 MSTORE SWAP1 SWAP2 MSTORE SWAP1 KECCAK256 SLOAD PUSH1 0x1 DUP2 SWAP1 SUB PUSH2 0x76E JUMPI PUSH1 0x1 SWAP2 POP POP PUSH2 0x774 JUMP JUMPDEST PUSH1 0x0 SWAP2 POP POP JUMPDEST SWAP3 SWAP2 POP POP JUMP JUMPDEST CALLER PUSH1 0x0 DUP2 DUP2 MSTORE PUSH1 0x20 DUP2 SWAP1 MSTORE PUSH1 0x40 SWAP1 KECCAK256 SLOAD PUSH1 0xFF AND PUSH2 0x7A9 JUMPI PUSH1 0x40 MLOAD PUSH3 0x461BCD PUSH1 0xE5 SHL DUP2 MSTORE PUSH1 0x4 ADD PUSH2 0x72C SWAP1 PUSH2 0x2440 JUMP JUMPDEST PUSH1 0x1 PUSH1 0x1 PUSH1 0xA0 SHL SUB DUP3 AND PUSH1 0x0 SWAP1 DUP2 MSTORE PUSH1 0x20 DUP2 SWAP1 MSTORE PUSH1 0x40 SWAP1 KECCAK256 SLOAD DUP3 SWAP1 PUSH1 0xFF AND PUSH2 0x7E3 JUMPI PUSH1 0x40 MLOAD PUSH3 0x461BCD PUSH1 0xE5 SHL DUP2 MSTORE PUSH1 0x4 ADD PUSH2 0x72C SWAP1 PUSH2 0x2440 JUMP JUMPDEST PUSH1 0x1 DUP1 SLOAD GT PUSH2 0x834 JUMPI PUSH1 0x40 MLOAD PUSH3 0x461BCD PUSH1 0xE5 SHL DUP2 MSTORE PUSH1 0x20 PUSH1 0x4 DUP3 ADD MSTORE PUSH1 0x17 PUSH1 0x24 DUP3 ADD MSTORE PUSH32 0x43616E27742072656D6F7665206C617374206F776E6572000000000000000000 PUSH1 0x44 DUP3 ADD MSTORE PUSH1 0x64 ADD PUSH2 0x72C JUMP JUMPDEST PUSH1 0x1 DUP1 SLOAD PUSH2 0x842 SWAP2 SWAP1 PUSH2 0x248D JUMP JUMPDEST PUSH1 0x2 SLOAD GT ISZERO PUSH2 0x85C JUMPI PUSH1 0x1 DUP1 SLOAD PUSH2 0x85C SWAP2 PUSH2 0x5D9 SWAP2 PUSH2 0x248D JUMP JUMPDEST PUSH1 0x0 JUMPDEST PUSH1 0x1 DUP1 SLOAD PUSH2 0x86D SWAP2 SWAP1 PUSH2 0x248D JUMP JUMPDEST DUP2 LT ISZERO PUSH2 0x93B JUMPI DUP4 PUSH1 0x1 PUSH1 0x1 PUSH1 0xA0 SHL SUB AND PUSH1 0x1 DUP3 DUP2 SLOAD DUP2 LT PUSH2 0x891 JUMPI PUSH2 0x891 PUSH2 0x24A0 JUMP JUMPDEST PUSH1 0x0 SWAP2 DUP3 MSTORE PUSH1 0x20 SWAP1 SWAP2 KECCAK256 ADD SLOAD PUSH1 0x1 PUSH1 0x1 PUSH1 0xA0 SHL SUB AND SUB PUSH2 0x929 JUMPI PUSH1 0x1 DUP1 SLOAD PUSH2 0x8BA SWAP1 DUP3 SWAP1 PUSH2 0x248D JUMP JUMPDEST DUP2 SLOAD DUP2 LT PUSH2 0x8CA JUMPI PUSH2 0x8CA PUSH2 0x24A0 JUMP JUMPDEST PUSH1 0x0 SWAP2 DUP3 MSTORE PUSH1 0x20 SWAP1 SWAP2 KECCAK256 ADD SLOAD PUSH1 0x1 DUP1 SLOAD PUSH1 0x1 PUSH1 0x1 PUSH1 0xA0 SHL SUB SWAP1 SWAP3 AND SWAP2 DUP4 SWAP1 DUP2 LT PUSH2 0x8F6 JUMPI PUSH2 0x8F6 PUSH2 0x24A0 JUMP JUMPDEST SWAP1 PUSH1 0x0 MSTORE PUSH1 0x20 PUSH1 0x0 KECCAK256 ADD PUSH1 0x0 PUSH2 0x100 EXP DUP2 SLOAD DUP2 PUSH1 0x1 PUSH1 0x1 PUSH1 0xA0 SHL SUB MUL NOT AND SWAP1 DUP4 PUSH1 0x1 PUSH1 0x1 PUSH1 0xA0 SHL SUB AND MUL OR SWAP1 SSTORE POP PUSH2 0x93B JUMP JUMPDEST DUP1 PUSH2 0x933 DUP2 PUSH2 0x24B6 JUMP JUMPDEST SWAP2 POP POP PUSH2 0x85F JUMP JUMPDEST POP PUSH1 0x1 PUSH1 0x1 PUSH1 0xA0 SHL SUB DUP4 AND PUSH1 0x0 SWAP1 DUP2 MSTORE PUSH1 0x20 DUP2 SWAP1 MSTORE PUSH1 0x40 SWAP1 KECCAK256 DUP1 SLOAD PUSH1 0xFF NOT AND SWAP1 SSTORE PUSH1 0x1 DUP1 SLOAD DUP1 PUSH2 0x96D JUMPI PUSH2 0x96D PUSH2 0x24CF JUMP JUMPDEST PUSH1 0x0 DUP3 DUP2 MSTORE PUSH1 0x20 DUP2 KECCAK256 DUP3 ADD PUSH1 0x0 NOT SWAP1 DUP2 ADD DUP1 SLOAD PUSH1 0x1 PUSH1 0x1 PUSH1 0xA0 SHL SUB NOT AND SWAP1 SSTORE SWAP1 SWAP2 ADD SWAP1 SWAP2 SSTORE PUSH1 0x40 MLOAD PUSH1 0x1 PUSH1 0x1 PUSH1 0xA0 SHL SUB DUP6 AND SWAP2 PUSH32 0x8001553A916EF2F495D26A907CC54D96ED840D7BDA71E73194BF5A9DF7A76B90 SWAP2 LOG2 POP POP POP JUMP JUMPDEST PUSH1 0x8 DUP2 DUP2 SLOAD DUP2 LT PUSH2 0x9D8 JUMPI PUSH1 0x0 DUP1 REVERT JUMPDEST PUSH1 0x0 SWAP2 DUP3 MSTORE PUSH1 0x20 SWAP1 SWAP2 KECCAK256 ADD SLOAD SWAP1 POP DUP2 JUMP JUMPDEST CALLER PUSH1 0x0 DUP2 DUP2 MSTORE PUSH1 0x20 DUP2 SWAP1 MSTORE PUSH1 0x40 DUP2 KECCAK256 SLOAD SWAP1 SWAP2 SWAP1 PUSH1 0xFF AND PUSH2 0xA1B JUMPI PUSH1 0x40 MLOAD PUSH3 0x461BCD PUSH1 0xE5 SHL DUP2 MSTORE PUSH1 0x4 ADD PUSH2 0x72C SWAP1 PUSH2 0x2440 JUMP JUMPDEST PUSH1 0x40 DUP1 MLOAD CALLER PUSH1 0x60 SHL PUSH12 0xFFFFFFFFFFFFFFFFFFFFFFFF NOT AND PUSH1 0x20 DUP1 DUP4 ADD SWAP2 SWAP1 SWAP2 MSTORE PUSH1 0x34 DUP3 ADD DUP8 SWAP1 MSTORE TIMESTAMP PUSH1 0x54 DUP1 DUP5 ADD SWAP2 SWAP1 SWAP2 MSTORE DUP4 MLOAD DUP1 DUP5 SUB SWAP1 SWAP2 ADD DUP2 MSTORE PUSH1 0x74 SWAP1 SWAP3 ADD SWAP1 SWAP3 MSTORE DUP1 MLOAD SWAP2 ADD KECCAK256 PUSH1 0x9 DUP2 SWAP1 SSTORE PUSH1 0x8 DUP1 SLOAD PUSH1 0x1 DUP2 ADD DUP3 SSTORE PUSH1 0x0 SWAP2 SWAP1 SWAP2 MSTORE PUSH32 0xF3F7A9FE364FAAB93B216DA50A3214154F22A0A2B415B23A84C8169E8B636EE3 ADD DUP2 SWAP1 SSTORE PUSH2 0xAAE SWAP1 DUP7 SWAP1 CALLER SWAP1 DUP8 SWAP1 DUP8 SWAP1 PUSH2 0x1D72 JUMP JUMPDEST SWAP2 POP DUP5 PUSH1 0x1 PUSH1 0x1 PUSH1 0xA0 SHL SUB AND PUSH32 0x7353684080CB3AF2A27A8F7A2EA1D406494BD8E78DADCFAD3519DA376DA14BFB DUP4 PUSH1 0x40 MLOAD PUSH2 0xAEB SWAP2 DUP2 MSTORE PUSH1 0x20 ADD SWAP1 JUMP JUMPDEST PUSH1 0x40 MLOAD DUP1 SWAP2 SUB SWAP1 LOG2 POP SWAP4 SWAP3 POP POP POP JUMP JUMPDEST PUSH1 0x0 DUP2 DUP2 MSTORE PUSH1 0x7 PUSH1 0x20 SWAP1 DUP2 MSTORE PUSH1 0x40 DUP1 DUP4 KECCAK256 SLOAD PUSH1 0x9 SSTORE PUSH1 0x8 DUP1 SLOAD DUP3 MLOAD DUP2 DUP6 MUL DUP2 ADD DUP6 ADD SWAP1 SWAP4 MSTORE DUP1 DUP4 MSTORE PUSH2 0xB61 SWAP4 DUP4 ADD DUP3 DUP3 DUP1 ISZERO PUSH2 0x703 JUMPI PUSH1 0x20 MUL DUP3 ADD SWAP2 SWAP1 PUSH1 0x0 MSTORE PUSH1 0x20 PUSH1 0x0 KECCAK256 SWAP1 DUP2 SLOAD DUP2 MSTORE PUSH1 0x20 ADD SWAP1 PUSH1 0x1 ADD SWAP1 DUP1 DUP4 GT PUSH2 0x6EF JUMPI POP POP POP POP POP PUSH1 0x9 SLOAD PUSH2 0x1D1F JUMP JUMPDEST PUSH2 0xB7D JUMPI PUSH1 0x40 MLOAD PUSH3 0x461BCD PUSH1 0xE5 SHL DUP2 MSTORE PUSH1 0x4 ADD PUSH2 0x72C SWAP1 PUSH2 0x23F4 JUMP JUMPDEST POP PUSH1 0x0 DUP1 DUP1 JUMPDEST PUSH1 0x1 SLOAD DUP2 LT ISZERO PUSH2 0xC16 JUMPI PUSH1 0x6 PUSH1 0x0 PUSH1 0x9 SLOAD DUP2 MSTORE PUSH1 0x20 ADD SWAP1 DUP2 MSTORE PUSH1 0x20 ADD PUSH1 0x0 KECCAK256 PUSH1 0x0 PUSH1 0x1 DUP4 DUP2 SLOAD DUP2 LT PUSH2 0xBB7 JUMPI PUSH2 0xBB7 PUSH2 0x24A0 JUMP JUMPDEST PUSH1 0x0 SWAP2 DUP3 MSTORE PUSH1 0x20 DUP1 DUP4 KECCAK256 SWAP1 SWAP2 ADD SLOAD PUSH1 0x1 PUSH1 0x1 PUSH1 0xA0 SHL SUB AND DUP4 MSTORE DUP3 ADD SWAP3 SWAP1 SWAP3 MSTORE PUSH1 0x40 ADD SWAP1 KECCAK256 SLOAD PUSH1 0x2 SUB PUSH2 0xBF1 JUMPI PUSH2 0xBEE PUSH1 0x1 DUP4 PUSH2 0x24E5 JUMP JUMPDEST SWAP2 POP JUMPDEST PUSH1 0x2 SLOAD DUP3 LT PUSH2 0xC04 JUMPI POP PUSH1 0x1 SWAP4 SWAP3 POP POP POP JUMP JUMPDEST DUP1 PUSH2 0xC0E DUP2 PUSH2 0x24B6 JUMP JUMPDEST SWAP2 POP POP PUSH2 0xB83 JUMP JUMPDEST POP POP SWAP2 SWAP1 POP JUMP JUMPDEST PUSH1 0x1 PUSH1 0x1 PUSH1 0xA0 SHL SUB DUP2 AND PUSH1 0x0 SWAP1 DUP2 MSTORE PUSH1 0x20 DUP2 SWAP1 MSTORE PUSH1 0x40 SWAP1 KECCAK256 SLOAD DUP2 SWAP1 PUSH1 0xFF AND ISZERO PUSH2 0xC88 JUMPI PUSH1 0x40 MLOAD PUSH3 0x461BCD PUSH1 0xE5 SHL DUP2 MSTORE PUSH1 0x20 PUSH1 0x4 DUP3 ADD DUP2 SWAP1 MSTORE PUSH1 0x24 DUP3 ADD MSTORE PUSH32 0x54686973206164647265737320697320616C726561647920616E206F776E6572 PUSH1 0x44 DUP3 ADD MSTORE PUSH1 0x64 ADD PUSH2 0x72C JUMP JUMPDEST CALLER PUSH1 0x0 DUP2 DUP2 MSTORE PUSH1 0x20 DUP2 SWAP1 MSTORE PUSH1 0x40 SWAP1 KECCAK256 SLOAD PUSH1 0xFF AND PUSH2 0xCB7 JUMPI PUSH1 0x40 MLOAD PUSH3 0x461BCD PUSH1 0xE5 SHL DUP2 MSTORE PUSH1 0x4 ADD PUSH2 0x72C SWAP1 PUSH2 0x2440 JUMP JUMPDEST DUP3 PUSH1 0x1 PUSH1 0x1 PUSH1 0xA0 SHL SUB DUP2 AND PUSH2 0xD04 JUMPI PUSH1 0x40 MLOAD PUSH3 0x461BCD PUSH1 0xE5 SHL DUP2 MSTORE PUSH1 0x20 PUSH1 0x4 DUP3 ADD MSTORE PUSH1 0x13 PUSH1 0x24 DUP3 ADD MSTORE PUSH19 0x151A19481859191C995CDCC81A5CC81B9D5B1B PUSH1 0x6A SHL PUSH1 0x44 DUP3 ADD MSTORE PUSH1 0x64 ADD PUSH2 0x72C JUMP JUMPDEST PUSH1 0x1 DUP1 SLOAD PUSH2 0xD11 SWAP2 PUSH2 0x24E5 JUMP JUMPDEST PUSH1 0x2 SLOAD DUP2 DUP2 GT ISZERO DUP1 ISZERO PUSH2 0xD23 JUMPI POP DUP1 ISZERO ISZERO JUMPDEST DUP1 ISZERO PUSH2 0xD2E JUMPI POP DUP2 ISZERO ISZERO JUMPDEST PUSH2 0xD73 JUMPI PUSH1 0x40 MLOAD PUSH3 0x461BCD PUSH1 0xE5 SHL DUP2 MSTORE PUSH1 0x20 PUSH1 0x4 DUP3 ADD MSTORE PUSH1 0x16 PUSH1 0x24 DUP3 ADD MSTORE PUSH22 0x10DBDB991A5D1A5BDB9CC8185C99481B9BDD081B595D PUSH1 0x52 SHL PUSH1 0x44 DUP3 ADD MSTORE PUSH1 0x64 ADD PUSH2 0x72C JUMP JUMPDEST PUSH1 0x1 PUSH1 0x1 PUSH1 0xA0 SHL SUB DUP7 AND PUSH1 0x0 DUP2 DUP2 MSTORE PUSH1 0x20 DUP2 SWAP1 MSTORE PUSH1 0x40 DUP1 DUP3 KECCAK256 DUP1 SLOAD PUSH1 0xFF NOT AND PUSH1 0x1 SWAP1 DUP2 OR SWAP1 SWAP2 SSTORE DUP1 SLOAD DUP1 DUP3 ADD DUP3 SSTORE SWAP1 DUP4 MSTORE PUSH32 0xB10E2D527612073B26EECDFD717E6A320CF44B4AFAC2B0732D9FCBE2B7FA0CF6 ADD DUP1 SLOAD PUSH1 0x1 PUSH1 0x1 PUSH1 0xA0 SHL SUB NOT AND DUP5 OR SWAP1 SSTORE MLOAD PUSH32 0xF39E6E1EB0EDCF53C221607B54B00CD28F3196FED0A24994DC308B8F611B682D SWAP2 SWAP1 LOG2 POP POP POP POP POP POP JUMP JUMPDEST CALLER PUSH1 0x0 DUP2 DUP2 MSTORE PUSH1 0x20 DUP2 SWAP1 MSTORE PUSH1 0x40 SWAP1 KECCAK256 SLOAD PUSH1 0xFF AND PUSH2 0xE32 JUMPI PUSH1 0x40 MLOAD PUSH3 0x461BCD PUSH1 0xE5 SHL DUP2 MSTORE PUSH1 0x4 ADD PUSH2 0x72C SWAP1 PUSH2 0x2440 JUMP JUMPDEST PUSH1 0x0 DUP3 DUP2 MSTORE PUSH1 0x7 PUSH1 0x20 SWAP1 DUP2 MSTORE PUSH1 0x40 DUP1 DUP4 KECCAK256 SLOAD DUP1 DUP5 MSTORE PUSH1 0x4 SWAP1 SWAP3 MSTORE SWAP1 SWAP2 KECCAK256 SLOAD PUSH1 0x1 PUSH1 0x1 PUSH1 0xA0 SHL SUB AND PUSH2 0xE75 JUMPI PUSH1 0x40 MLOAD PUSH3 0x461BCD PUSH1 0xE5 SHL DUP2 MSTORE PUSH1 0x4 ADD PUSH2 0x72C SWAP1 PUSH2 0x24F8 JUMP JUMPDEST PUSH1 0x0 DUP4 DUP2 MSTORE PUSH1 0x7 PUSH1 0x20 SWAP1 DUP2 MSTORE PUSH1 0x40 DUP1 DUP4 KECCAK256 SLOAD DUP1 DUP5 MSTORE PUSH1 0x4 SWAP1 SWAP3 MSTORE SWAP1 SWAP2 KECCAK256 PUSH1 0x3 ADD SLOAD PUSH2 0x100 SWAP1 DIV PUSH1 0xFF AND ISZERO PUSH2 0xEBB JUMPI PUSH1 0x40 MLOAD PUSH3 0x461BCD PUSH1 0xE5 SHL DUP2 MSTORE PUSH1 0x4 ADD PUSH2 0x72C SWAP1 PUSH2 0x2549 JUMP JUMPDEST PUSH1 0x0 DUP5 DUP2 MSTORE PUSH1 0x7 PUSH1 0x20 SWAP1 DUP2 MSTORE PUSH1 0x40 DUP1 DUP4 KECCAK256 SLOAD PUSH1 0x9 DUP2 SWAP1 SSTORE DUP4 MSTORE PUSH1 0x6 DUP3 MSTORE DUP1 DUP4 KECCAK256 CALLER DUP1 DUP6 MSTORE SWAP1 DUP4 MSTORE SWAP3 DUP2 SWAP1 KECCAK256 PUSH1 0x2 SWAP1 SSTORE MLOAD DUP7 DUP2 MSTORE PUSH32 0xF6A317157440607F36269043EB55F1287A5A19BA2216AFEAB88CD46CBCFB88E9 SWAP2 ADD JUMPDEST PUSH1 0x40 MLOAD DUP1 SWAP2 SUB SWAP1 LOG2 POP POP POP POP JUMP JUMPDEST PUSH1 0x0 DUP2 DUP2 MSTORE PUSH1 0x7 PUSH1 0x20 SWAP1 DUP2 MSTORE PUSH1 0x40 DUP1 DUP4 KECCAK256 SLOAD PUSH1 0x9 SSTORE PUSH1 0x8 DUP1 SLOAD DUP3 MLOAD DUP2 DUP6 MUL DUP2 ADD DUP6 ADD SWAP1 SWAP4 MSTORE DUP1 DUP4 MSTORE PUSH2 0xF86 SWAP4 DUP4 ADD DUP3 DUP3 DUP1 ISZERO PUSH2 0x703 JUMPI PUSH1 0x20 MUL DUP3 ADD SWAP2 SWAP1 PUSH1 0x0 MSTORE PUSH1 0x20 PUSH1 0x0 KECCAK256 SWAP1 DUP2 SLOAD DUP2 MSTORE PUSH1 0x20 ADD SWAP1 PUSH1 0x1 ADD SWAP1 DUP1 DUP4 GT PUSH2 0x6EF JUMPI POP POP POP POP POP PUSH1 0x9 SLOAD PUSH2 0x1D1F JUMP JUMPDEST PUSH2 0xFA2 JUMPI PUSH1 0x40 MLOAD PUSH3 0x461BCD PUSH1 0xE5 SHL DUP2 MSTORE PUSH1 0x4 ADD PUSH2 0x72C SWAP1 PUSH2 0x23F4 JUMP JUMPDEST POP PUSH1 0x0 DUP1 DUP1 JUMPDEST PUSH1 0x1 SLOAD DUP2 LT ISZERO PUSH2 0xC16 JUMPI PUSH1 0x6 PUSH1 0x0 PUSH1 0x9 SLOAD DUP2 MSTORE PUSH1 0x20 ADD SWAP1 DUP2 MSTORE PUSH1 0x20 ADD PUSH1 0x0 KECCAK256 PUSH1 0x0 PUSH1 0x1 DUP4 DUP2 SLOAD DUP2 LT PUSH2 0xFDC JUMPI PUSH2 0xFDC PUSH2 0x24A0 JUMP JUMPDEST PUSH1 0x0 SWAP2 DUP3 MSTORE PUSH1 0x20 DUP1 DUP4 KECCAK256 SWAP1 SWAP2 ADD SLOAD PUSH1 0x1 PUSH1 0x1 PUSH1 0xA0 SHL SUB AND DUP4 MSTORE DUP3 ADD SWAP3 SWAP1 SWAP3 MSTORE PUSH1 0x40 ADD SWAP1 KECCAK256 SLOAD PUSH1 0x1 SUB PUSH2 0x1016 JUMPI PUSH2 0x1013 PUSH1 0x1 DUP4 PUSH2 0x24E5 JUMP JUMPDEST SWAP2 POP JUMPDEST PUSH1 0x2 SLOAD DUP3 LT PUSH2 0x1029 JUMPI POP PUSH1 0x1 SWAP4 SWAP3 POP POP POP JUMP JUMPDEST DUP1 PUSH2 0x1033 DUP2 PUSH2 0x24B6 JUMP JUMPDEST SWAP2 POP POP PUSH2 0xFA8 JUMP JUMPDEST PUSH1 0x3 SLOAD PUSH1 0x40 MLOAD PUSH4 0x6EB1769F PUSH1 0xE1 SHL DUP2 MSTORE CALLER PUSH1 0x4 DUP3 ADD MSTORE ADDRESS PUSH1 0x24 DUP3 ADD MSTORE PUSH1 0x0 SWAP2 PUSH1 0x1 PUSH1 0x1 PUSH1 0xA0 SHL SUB AND SWAP1 PUSH4 0xDD62ED3E SWAP1 PUSH1 0x44 ADD PUSH1 0x20 PUSH1 0x40 MLOAD DUP1 DUP4 SUB DUP2 DUP7 GAS STATICCALL ISZERO DUP1 ISZERO PUSH2 0x108A JUMPI RETURNDATASIZE PUSH1 0x0 DUP1 RETURNDATACOPY RETURNDATASIZE PUSH1 0x0 REVERT JUMPDEST POP POP POP POP PUSH1 0x40 MLOAD RETURNDATASIZE PUSH1 0x1F NOT PUSH1 0x1F DUP3 ADD AND DUP3 ADD DUP1 PUSH1 0x40 MSTORE POP DUP2 ADD SWAP1 PUSH2 0x10AE SWAP2 SWAP1 PUSH2 0x25B2 JUMP JUMPDEST SWAP1 POP SWAP1 JUMP JUMPDEST PUSH1 0x0 DUP2 DUP2 MSTORE PUSH1 0x7 PUSH1 0x20 SWAP1 DUP2 MSTORE PUSH1 0x40 DUP1 DUP4 KECCAK256 SLOAD PUSH1 0x9 SSTORE PUSH1 0x8 DUP1 SLOAD DUP3 MLOAD DUP2 DUP6 MUL DUP2 ADD DUP6 ADD SWAP1 SWAP4 MSTORE DUP1 DUP4 MSTORE PUSH2 0x1119 SWAP4 DUP4 ADD DUP3 DUP3 DUP1 ISZERO PUSH2 0x703 JUMPI PUSH1 0x20 MUL DUP3 ADD SWAP2 SWAP1 PUSH1 0x0 MSTORE PUSH1 0x20 PUSH1 0x0 KECCAK256 SWAP1 DUP2 SLOAD DUP2 MSTORE PUSH1 0x20 ADD SWAP1 PUSH1 0x1 ADD SWAP1 DUP1 DUP4 GT PUSH2 0x6EF JUMPI POP POP POP POP POP PUSH1 0x9 SLOAD PUSH2 0x1D1F JUMP JUMPDEST PUSH2 0x1135 JUMPI PUSH1 0x40 MLOAD PUSH3 0x461BCD PUSH1 0xE5 SHL DUP2 MSTORE PUSH1 0x4 ADD PUSH2 0x72C SWAP1 PUSH2 0x23F4 JUMP JUMPDEST PUSH1 0x0 JUMPDEST PUSH1 0x1 SLOAD DUP2 LT ISZERO PUSH2 0x11B8 JUMPI PUSH1 0x6 PUSH1 0x0 PUSH1 0x9 SLOAD DUP2 MSTORE PUSH1 0x20 ADD SWAP1 DUP2 MSTORE PUSH1 0x20 ADD PUSH1 0x0 KECCAK256 PUSH1 0x0 PUSH1 0x1 DUP4 DUP2 SLOAD DUP2 LT PUSH2 0x116C JUMPI PUSH2 0x116C PUSH2 0x24A0 JUMP JUMPDEST PUSH1 0x0 SWAP2 DUP3 MSTORE PUSH1 0x20 DUP1 DUP4 KECCAK256 SWAP1 SWAP2 ADD SLOAD PUSH1 0x1 PUSH1 0x1 PUSH1 0xA0 SHL SUB AND DUP4 MSTORE DUP3 ADD SWAP3 SWAP1 SWAP3 MSTORE PUSH1 0x40 ADD SWAP1 KECCAK256 SLOAD PUSH1 0x1 SUB PUSH2 0x11A6 JUMPI PUSH2 0x11A3 PUSH1 0x1 DUP4 PUSH2 0x24E5 JUMP JUMPDEST SWAP2 POP JUMPDEST DUP1 PUSH2 0x11B0 DUP2 PUSH2 0x24B6 JUMP JUMPDEST SWAP2 POP POP PUSH2 0x1138 JUMP JUMPDEST POP SWAP2 SWAP1 POP JUMP JUMPDEST PUSH1 0x60 PUSH1 0x1 DUP1 SLOAD DUP1 PUSH1 0x20 MUL PUSH1 0x20 ADD PUSH1 0x40 MLOAD SWAP1 DUP2 ADD PUSH1 0x40 MSTORE DUP1 SWAP3 SWAP2 SWAP1 DUP2 DUP2 MSTORE PUSH1 0x20 ADD DUP3 DUP1 SLOAD DUP1 ISZERO PUSH2 0x1216 JUMPI PUSH1 0x20 MUL DUP3 ADD SWAP2 SWAP1 PUSH1 0x0 MSTORE PUSH1 0x20 PUSH1 0x0 KECCAK256 SWAP1 JUMPDEST DUP2 SLOAD PUSH1 0x1 PUSH1 0x1 PUSH1 0xA0 SHL SUB AND DUP2 MSTORE PUSH1 0x1 SWAP1 SWAP2 ADD SWAP1 PUSH1 0x20 ADD DUP1 DUP4 GT PUSH2 0x11F8 JUMPI JUMPDEST POP POP POP POP POP SWAP1 POP SWAP1 JUMP JUMPDEST PUSH1 0x0 DUP2 DUP2 MSTORE PUSH1 0x7 PUSH1 0x20 SWAP1 DUP2 MSTORE PUSH1 0x40 SWAP2 DUP3 SWAP1 KECCAK256 SLOAD PUSH1 0x9 SSTORE PUSH1 0x8 DUP1 SLOAD DUP4 MLOAD DUP2 DUP5 MUL DUP2 ADD DUP5 ADD SWAP1 SWAP5 MSTORE DUP1 DUP5 MSTORE PUSH1 0x60 SWAP4 PUSH2 0x128E SWAP4 SWAP1 SWAP3 SWAP2 SWAP1 DUP4 ADD DUP3 DUP3 DUP1 ISZERO PUSH2 0x703 JUMPI PUSH1 0x20 MUL DUP3 ADD SWAP2 SWAP1 PUSH1 0x0 MSTORE PUSH1 0x20 PUSH1 0x0 KECCAK256 SWAP1 DUP2 SLOAD DUP2 MSTORE PUSH1 0x20 ADD SWAP1 PUSH1 0x1 ADD SWAP1 DUP1 DUP4 GT PUSH2 0x6EF JUMPI POP POP POP POP POP PUSH1 0x9 SLOAD PUSH2 0x1D1F JUMP JUMPDEST PUSH2 0x12AA JUMPI PUSH1 0x40 MLOAD PUSH3 0x461BCD PUSH1 0xE5 SHL DUP2 MSTORE PUSH1 0x4 ADD PUSH2 0x72C SWAP1 PUSH2 0x23F4 JUMP JUMPDEST PUSH1 0x1 SLOAD PUSH1 0x0 SWAP1 PUSH8 0xFFFFFFFFFFFFFFFF DUP2 GT ISZERO PUSH2 0x12C8 JUMPI PUSH2 0x12C8 PUSH2 0x25CB JUMP JUMPDEST PUSH1 0x40 MLOAD SWAP1 DUP1 DUP3 MSTORE DUP1 PUSH1 0x20 MUL PUSH1 0x20 ADD DUP3 ADD PUSH1 0x40 MSTORE DUP1 ISZERO PUSH2 0x12F1 JUMPI DUP2 PUSH1 0x20 ADD PUSH1 0x20 DUP3 MUL DUP1 CALLDATASIZE DUP4 CALLDATACOPY ADD SWAP1 POP JUMPDEST POP SWAP1 POP PUSH1 0x0 DUP1 JUMPDEST PUSH1 0x1 SLOAD DUP2 LT ISZERO PUSH2 0x13D3 JUMPI PUSH1 0x6 PUSH1 0x0 PUSH1 0x9 SLOAD DUP2 MSTORE PUSH1 0x20 ADD SWAP1 DUP2 MSTORE PUSH1 0x20 ADD PUSH1 0x0 KECCAK256 PUSH1 0x0 PUSH1 0x1 DUP4 DUP2 SLOAD DUP2 LT PUSH2 0x132C JUMPI PUSH2 0x132C PUSH2 0x24A0 JUMP JUMPDEST PUSH1 0x0 SWAP2 DUP3 MSTORE PUSH1 0x20 DUP1 DUP4 KECCAK256 SWAP1 SWAP2 ADD SLOAD PUSH1 0x1 PUSH1 0x1 PUSH1 0xA0 SHL SUB AND DUP4 MSTORE DUP3 ADD SWAP3 SWAP1 SWAP3 MSTORE PUSH1 0x40 ADD SWAP1 KECCAK256 SLOAD PUSH1 0x2 SUB PUSH2 0x13C1 JUMPI PUSH1 0x1 DUP2 DUP2 SLOAD DUP2 LT PUSH2 0x136B JUMPI PUSH2 0x136B PUSH2 0x24A0 JUMP JUMPDEST SWAP1 PUSH1 0x0 MSTORE PUSH1 0x20 PUSH1 0x0 KECCAK256 ADD PUSH1 0x0 SWAP1 SLOAD SWAP1 PUSH2 0x100 EXP SWAP1 DIV PUSH1 0x1 PUSH1 0x1 PUSH1 0xA0 SHL SUB AND DUP4 DUP4 DUP2 MLOAD DUP2 LT PUSH2 0x139B JUMPI PUSH2 0x139B PUSH2 0x24A0 JUMP JUMPDEST PUSH1 0x1 PUSH1 0x1 PUSH1 0xA0 SHL SUB SWAP1 SWAP3 AND PUSH1 0x20 SWAP3 DUP4 MUL SWAP2 SWAP1 SWAP2 ADD SWAP1 SWAP2 ADD MSTORE PUSH2 0x13BE PUSH1 0x1 DUP4 PUSH2 0x24E5 JUMP JUMPDEST SWAP2 POP JUMPDEST DUP1 PUSH2 0x13CB DUP2 PUSH2 0x24B6 JUMP JUMPDEST SWAP2 POP POP PUSH2 0x12F8 JUMP JUMPDEST DUP2 PUSH8 0xFFFFFFFFFFFFFFFF DUP2 GT ISZERO PUSH2 0x13EC JUMPI PUSH2 0x13EC PUSH2 0x25CB JUMP JUMPDEST PUSH1 0x40 MLOAD SWAP1 DUP1 DUP3 MSTORE DUP1 PUSH1 0x20 MUL PUSH1 0x20 ADD DUP3 ADD PUSH1 0x40 MSTORE DUP1 ISZERO PUSH2 0x1415 JUMPI DUP2 PUSH1 0x20 ADD PUSH1 0x20 DUP3 MUL DUP1 CALLDATASIZE DUP4 CALLDATACOPY ADD SWAP1 POP JUMPDEST POP SWAP4 POP PUSH1 0x0 SWAP1 POP JUMPDEST DUP2 DUP2 LT ISZERO PUSH2 0x147B JUMPI DUP3 DUP2 DUP2 MLOAD DUP2 LT PUSH2 0x1437 JUMPI PUSH2 0x1437 PUSH2 0x24A0 JUMP JUMPDEST PUSH1 0x20 MUL PUSH1 0x20 ADD ADD MLOAD DUP5 DUP3 DUP2 MLOAD DUP2 LT PUSH2 0x1451 JUMPI PUSH2 0x1451 PUSH2 0x24A0 JUMP JUMPDEST PUSH1 0x1 PUSH1 0x1 PUSH1 0xA0 SHL SUB SWAP1 SWAP3 AND PUSH1 0x20 SWAP3 DUP4 MUL SWAP2 SWAP1 SWAP2 ADD SWAP1 SWAP2 ADD MSTORE DUP1 PUSH2 0x1473 DUP2 PUSH2 0x24B6 JUMP JUMPDEST SWAP2 POP POP PUSH2 0x141D JUMP JUMPDEST POP POP POP SWAP2 SWAP1 POP JUMP JUMPDEST CALLER PUSH1 0x0 DUP2 DUP2 MSTORE PUSH1 0x20 DUP2 SWAP1 MSTORE PUSH1 0x40 SWAP1 KECCAK256 SLOAD PUSH1 0xFF AND PUSH2 0x14B2 JUMPI PUSH1 0x40 MLOAD PUSH3 0x461BCD PUSH1 0xE5 SHL DUP2 MSTORE PUSH1 0x4 ADD PUSH2 0x72C SWAP1 PUSH2 0x2440 JUMP JUMPDEST POP PUSH1 0x3 DUP1 SLOAD PUSH1 0x1 PUSH1 0x1 PUSH1 0xA0 SHL SUB NOT AND PUSH1 0x1 PUSH1 0x1 PUSH1 0xA0 SHL SUB SWAP3 SWAP1 SWAP3 AND SWAP2 SWAP1 SWAP2 OR SWAP1 SSTORE JUMP JUMPDEST PUSH1 0x0 DUP2 DUP2 MSTORE PUSH1 0x7 PUSH1 0x20 SWAP1 DUP2 MSTORE PUSH1 0x40 SWAP2 DUP3 SWAP1 KECCAK256 SLOAD PUSH1 0x9 SSTORE PUSH1 0x8 DUP1 SLOAD DUP4 MLOAD DUP2 DUP5 MUL DUP2 ADD DUP5 ADD SWAP1 SWAP5 MSTORE DUP1 DUP5 MSTORE PUSH1 0x60 SWAP4 PUSH2 0x1543 SWAP4 SWAP1 SWAP3 SWAP2 SWAP1 DUP4 ADD DUP3 DUP3 DUP1 ISZERO PUSH2 0x703 JUMPI PUSH1 0x20 MUL DUP3 ADD SWAP2 SWAP1 PUSH1 0x0 MSTORE PUSH1 0x20 PUSH1 0x0 KECCAK256 SWAP1 DUP2 SLOAD DUP2 MSTORE PUSH1 0x20 ADD SWAP1 PUSH1 0x1 ADD SWAP1 DUP1 DUP4 GT PUSH2 0x6EF JUMPI POP POP POP POP POP PUSH1 0x9 SLOAD PUSH2 0x1D1F JUMP JUMPDEST PUSH2 0x155F JUMPI PUSH1 0x40 MLOAD PUSH3 0x461BCD PUSH1 0xE5 SHL DUP2 MSTORE PUSH1 0x4 ADD PUSH2 0x72C SWAP1 PUSH2 0x23F4 JUMP JUMPDEST PUSH1 0x1 SLOAD PUSH1 0x0 SWAP1 PUSH8 0xFFFFFFFFFFFFFFFF DUP2 GT ISZERO PUSH2 0x157D JUMPI PUSH2 0x157D PUSH2 0x25CB JUMP JUMPDEST PUSH1 0x40 MLOAD SWAP1 DUP1 DUP3 MSTORE DUP1 PUSH1 0x20 MUL PUSH1 0x20 ADD DUP3 ADD PUSH1 0x40 MSTORE DUP1 ISZERO PUSH2 0x15A6 JUMPI DUP2 PUSH1 0x20 ADD PUSH1 0x20 DUP3 MUL DUP1 CALLDATASIZE DUP4 CALLDATACOPY ADD SWAP1 POP JUMPDEST POP SWAP1 POP PUSH1 0x0 DUP1 JUMPDEST PUSH1 0x1 SLOAD DUP2 LT ISZERO PUSH2 0x1688 JUMPI PUSH1 0x6 PUSH1 0x0 PUSH1 0x9 SLOAD DUP2 MSTORE PUSH1 0x20 ADD SWAP1 DUP2 MSTORE PUSH1 0x20 ADD PUSH1 0x0 KECCAK256 PUSH1 0x0 PUSH1 0x1 DUP4 DUP2 SLOAD DUP2 LT PUSH2 0x15E1 JUMPI PUSH2 0x15E1 PUSH2 0x24A0 JUMP JUMPDEST PUSH1 0x0 SWAP2 DUP3 MSTORE PUSH1 0x20 DUP1 DUP4 KECCAK256 SWAP1 SWAP2 ADD SLOAD PUSH1 0x1 PUSH1 0x1 PUSH1 0xA0 SHL SUB AND DUP4 MSTORE DUP3 ADD SWAP3 SWAP1 SWAP3 MSTORE PUSH1 0x40 ADD SWAP1 KECCAK256 SLOAD PUSH1 0x1 SUB PUSH2 0x1676 JUMPI PUSH1 0x1 DUP2 DUP2 SLOAD DUP2 LT PUSH2 0x1620 JUMPI PUSH2 0x1620 PUSH2 0x24A0 JUMP JUMPDEST SWAP1 PUSH1 0x0 MSTORE PUSH1 0x20 PUSH1 0x0 KECCAK256 ADD PUSH1 0x0 SWAP1 SLOAD SWAP1 PUSH2 0x100 EXP SWAP1 DIV PUSH1 0x1 PUSH1 0x1 PUSH1 0xA0 SHL SUB AND DUP4 DUP4 DUP2 MLOAD DUP2 LT PUSH2 0x1650 JUMPI PUSH2 0x1650 PUSH2 0x24A0 JUMP JUMPDEST PUSH1 0x1 PUSH1 0x1 PUSH1 0xA0 SHL SUB SWAP1 SWAP3 AND PUSH1 0x20 SWAP3 DUP4 MUL SWAP2 SWAP1 SWAP2 ADD SWAP1 SWAP2 ADD MSTORE PUSH2 0x1673 PUSH1 0x1 DUP4 PUSH2 0x24E5 JUMP JUMPDEST SWAP2 POP JUMPDEST DUP1 PUSH2 0x1680 DUP2 PUSH2 0x24B6 JUMP JUMPDEST SWAP2 POP POP PUSH2 0x15AD JUMP JUMPDEST DUP2 PUSH8 0xFFFFFFFFFFFFFFFF DUP2 GT ISZERO PUSH2 0x16A1 JUMPI PUSH2 0x16A1 PUSH2 0x25CB JUMP JUMPDEST PUSH1 0x40 MLOAD SWAP1 DUP1 DUP3 MSTORE DUP1 PUSH1 0x20 MUL PUSH1 0x20 ADD DUP3 ADD PUSH1 0x40 MSTORE DUP1 ISZERO PUSH2 0x16CA JUMPI DUP2 PUSH1 0x20 ADD PUSH1 0x20 DUP3 MUL DUP1 CALLDATASIZE DUP4 CALLDATACOPY ADD SWAP1 POP JUMPDEST POP SWAP4 POP PUSH1 0x0 SWAP1 POP JUMPDEST DUP2 DUP2 LT ISZERO PUSH2 0x147B JUMPI DUP3 DUP2 DUP2 MLOAD DUP2 LT PUSH2 0x16EC JUMPI PUSH2 0x16EC PUSH2 0x24A0 JUMP JUMPDEST PUSH1 0x20 MUL PUSH1 0x20 ADD ADD MLOAD DUP5 DUP3 DUP2 MLOAD DUP2 LT PUSH2 0x1706 JUMPI PUSH2 0x1706 PUSH2 0x24A0 JUMP JUMPDEST PUSH1 0x1 PUSH1 0x1 PUSH1 0xA0 SHL SUB SWAP1 SWAP3 AND PUSH1 0x20 SWAP3 DUP4 MUL SWAP2 SWAP1 SWAP2 ADD SWAP1 SWAP2 ADD MSTORE DUP1 PUSH2 0x1728 DUP2 PUSH2 0x24B6 JUMP JUMPDEST SWAP2 POP POP PUSH2 0x16D2 JUMP JUMPDEST CALLER PUSH1 0x0 DUP2 DUP2 MSTORE PUSH1 0x20 DUP2 SWAP1 MSTORE PUSH1 0x40 SWAP1 KECCAK256 SLOAD PUSH1 0xFF AND PUSH2 0x175F JUMPI PUSH1 0x40 MLOAD PUSH3 0x461BCD PUSH1 0xE5 SHL DUP2 MSTORE PUSH1 0x4 ADD PUSH2 0x72C SWAP1 PUSH2 0x2440 JUMP JUMPDEST PUSH1 0x0 DUP3 DUP2 MSTORE PUSH1 0x7 PUSH1 0x20 SWAP1 DUP2 MSTORE PUSH1 0x40 DUP1 DUP4 KECCAK256 SLOAD DUP1 DUP5 MSTORE PUSH1 0x4 SWAP1 SWAP3 MSTORE SWAP1 SWAP2 KECCAK256 SLOAD PUSH1 0x1 PUSH1 0x1 PUSH1 0xA0 SHL SUB AND PUSH2 0x17A2 JUMPI PUSH1 0x40 MLOAD PUSH3 0x461BCD PUSH1 0xE5 SHL DUP2 MSTORE PUSH1 0x4 ADD PUSH2 0x72C SWAP1 PUSH2 0x24F8 JUMP JUMPDEST PUSH1 0x0 DUP4 DUP2 MSTORE PUSH1 0x7 PUSH1 0x20 SWAP1 DUP2 MSTORE PUSH1 0x40 DUP1 DUP4 KECCAK256 SLOAD DUP1 DUP5 MSTORE PUSH1 0x4 SWAP1 SWAP3 MSTORE SWAP1 SWAP2 KECCAK256 PUSH1 0x3 ADD SLOAD PUSH2 0x100 SWAP1 DIV PUSH1 0xFF AND ISZERO PUSH2 0x17E8 JUMPI PUSH1 0x40 MLOAD PUSH3 0x461BCD PUSH1 0xE5 SHL DUP2 MSTORE PUSH1 0x4 ADD PUSH2 0x72C SWAP1 PUSH2 0x2549 JUMP JUMPDEST PUSH1 0x0 DUP5 DUP2 MSTORE PUSH1 0x7 PUSH1 0x20 SWAP1 DUP2 MSTORE PUSH1 0x40 DUP1 DUP4 KECCAK256 SLOAD PUSH1 0x9 DUP2 SWAP1 SSTORE DUP4 MSTORE PUSH1 0x6 DUP3 MSTORE DUP1 DUP4 KECCAK256 CALLER DUP1 DUP6 MSTORE SWAP1 DUP4 MSTORE SWAP3 DUP2 SWAP1 KECCAK256 PUSH1 0x1 SWAP1 SSTORE MLOAD DUP7 DUP2 MSTORE PUSH32 0x4A504A94899432A9846E1AA406DCEB1BCFD538BB839071D49D1E5E23F5BE30EF SWAP2 ADD PUSH2 0xF12 JUMP JUMPDEST PUSH1 0x0 DUP2 DUP2 MSTORE PUSH1 0x7 PUSH1 0x20 SWAP1 DUP2 MSTORE PUSH1 0x40 DUP1 DUP4 KECCAK256 SLOAD PUSH1 0x9 SSTORE PUSH1 0x8 DUP1 SLOAD DUP3 MLOAD DUP2 DUP6 MUL DUP2 ADD DUP6 ADD SWAP1 SWAP4 MSTORE DUP1 DUP4 MSTORE PUSH2 0x18A9 SWAP4 DUP4 ADD DUP3 DUP3 DUP1 ISZERO PUSH2 0x703 JUMPI PUSH1 0x20 MUL DUP3 ADD SWAP2 SWAP1 PUSH1 0x0 MSTORE PUSH1 0x20 PUSH1 0x0 KECCAK256 SWAP1 DUP2 SLOAD DUP2 MSTORE PUSH1 0x20 ADD SWAP1 PUSH1 0x1 ADD SWAP1 DUP1 DUP4 GT PUSH2 0x6EF JUMPI POP POP POP POP POP PUSH1 0x9 SLOAD PUSH2 0x1D1F JUMP JUMPDEST PUSH2 0x18C5 JUMPI PUSH1 0x40 MLOAD PUSH3 0x461BCD PUSH1 0xE5 SHL DUP2 MSTORE PUSH1 0x4 ADD PUSH2 0x72C SWAP1 PUSH2 0x23F4 JUMP JUMPDEST PUSH1 0x0 JUMPDEST PUSH1 0x1 SLOAD DUP2 LT ISZERO PUSH2 0x11B8 JUMPI PUSH1 0x6 PUSH1 0x0 PUSH1 0x9 SLOAD DUP2 MSTORE PUSH1 0x20 ADD SWAP1 DUP2 MSTORE PUSH1 0x20 ADD PUSH1 0x0 KECCAK256 PUSH1 0x0 PUSH1 0x1 DUP4 DUP2 SLOAD DUP2 LT PUSH2 0x18FC JUMPI PUSH2 0x18FC PUSH2 0x24A0 JUMP JUMPDEST PUSH1 0x0 SWAP2 DUP3 MSTORE PUSH1 0x20 DUP1 DUP4 KECCAK256 SWAP1 SWAP2 ADD SLOAD PUSH1 0x1 PUSH1 0x1 PUSH1 0xA0 SHL SUB AND DUP4 MSTORE DUP3 ADD SWAP3 SWAP1 SWAP3 MSTORE PUSH1 0x40 ADD SWAP1 KECCAK256 SLOAD PUSH1 0x2 SUB PUSH2 0x1936 JUMPI PUSH2 0x1933 PUSH1 0x1 DUP4 PUSH2 0x24E5 JUMP JUMPDEST SWAP2 POP JUMPDEST DUP1 PUSH2 0x1940 DUP2 PUSH2 0x24B6 JUMP JUMPDEST SWAP2 POP POP PUSH2 0x18C8 JUMP JUMPDEST CALLER PUSH1 0x0 DUP2 DUP2 MSTORE PUSH1 0x20 DUP2 SWAP1 MSTORE PUSH1 0x40 SWAP1 KECCAK256 SLOAD PUSH1 0xFF AND PUSH2 0x1977 JUMPI PUSH1 0x40 MLOAD PUSH3 0x461BCD PUSH1 0xE5 SHL DUP2 MSTORE PUSH1 0x4 ADD PUSH2 0x72C SWAP1 PUSH2 0x2440 JUMP JUMPDEST PUSH1 0x1 SLOAD DUP3 DUP2 DUP2 GT DUP1 ISZERO SWAP1 PUSH2 0x198A JUMPI POP DUP1 ISZERO ISZERO JUMPDEST DUP1 ISZERO PUSH2 0x1995 JUMPI POP DUP2 ISZERO ISZERO JUMPDEST PUSH2 0x19DA JUMPI PUSH1 0x40 MLOAD PUSH3 0x461BCD PUSH1 0xE5 SHL DUP2 MSTORE PUSH1 0x20 PUSH1 0x4 DUP3 ADD MSTORE PUSH1 0x16 PUSH1 0x24 DUP3 ADD MSTORE PUSH22 0x10DBDB991A5D1A5BDB9CC8185C99481B9BDD081B595D PUSH1 0x52 SHL PUSH1 0x44 DUP3 ADD MSTORE PUSH1 0x64 ADD PUSH2 0x72C JUMP JUMPDEST PUSH1 0x2 DUP5 SWAP1 SSTORE PUSH1 0x40 MLOAD DUP5 DUP2 MSTORE PUSH32 0x27863D12A407097E086A48E36475BFC859D0B200B7E6F65B5FD3B218E46632E SWAP1 PUSH1 0x20 ADD PUSH1 0x40 MLOAD DUP1 SWAP2 SUB SWAP1 LOG1 POP POP POP POP JUMP JUMPDEST CALLER PUSH1 0x0 DUP2 DUP2 MSTORE PUSH1 0x20 DUP2 SWAP1 MSTORE PUSH1 0x40 SWAP1 KECCAK256 SLOAD PUSH1 0xFF AND PUSH2 0x1A47 JUMPI PUSH1 0x40 MLOAD PUSH3 0x461BCD PUSH1 0xE5 SHL DUP2 MSTORE PUSH1 0x4 ADD PUSH2 0x72C SWAP1 PUSH2 0x2440 JUMP JUMPDEST DUP2 PUSH2 0x1A51 DUP2 PUSH2 0xF20 JUMP JUMPDEST DUP1 PUSH2 0x1A60 JUMPI POP PUSH2 0x1A60 DUP2 PUSH2 0xAFB JUMP JUMPDEST PUSH2 0x1ABE JUMPI PUSH1 0x40 MLOAD PUSH3 0x461BCD PUSH1 0xE5 SHL DUP2 MSTORE PUSH1 0x20 PUSH1 0x4 DUP3 ADD MSTORE PUSH1 0x29 PUSH1 0x24 DUP3 ADD MSTORE PUSH32 0x51756F72756D20686173206E6F74206265656E2072656163686564206279206F PUSH1 0x44 DUP3 ADD MSTORE PUSH9 0x1DDB995C9CC81E595D PUSH1 0xBA SHL PUSH1 0x64 DUP3 ADD MSTORE PUSH1 0x84 ADD PUSH2 0x72C JUMP JUMPDEST DUP3 PUSH2 0x1AC8 DUP2 PUSH2 0xF20 JUMP JUMPDEST PUSH2 0x1B31 JUMPI PUSH1 0x40 MLOAD PUSH3 0x461BCD PUSH1 0xE5 SHL DUP2 MSTORE PUSH1 0x20 PUSH1 0x4 DUP3 ADD MSTORE PUSH1 0x34 PUSH1 0x24 DUP3 ADD MSTORE PUSH32 0x546865207472616E73616374696F6E20686173206E6F74206265656E20636F6E PUSH1 0x44 DUP3 ADD MSTORE PUSH20 0x199A5C9B595908189E481BDDDB995C9CC81E595D PUSH1 0x62 SHL PUSH1 0x64 DUP3 ADD MSTORE PUSH1 0x84 ADD PUSH2 0x72C JUMP JUMPDEST PUSH1 0x0 DUP5 DUP2 MSTORE PUSH1 0x7 PUSH1 0x20 SWAP1 DUP2 MSTORE PUSH1 0x40 DUP1 DUP4 KECCAK256 SLOAD DUP1 DUP5 MSTORE PUSH1 0x4 SWAP1 SWAP3 MSTORE SWAP1 SWAP2 KECCAK256 PUSH1 0x3 ADD SLOAD PUSH2 0x100 SWAP1 DIV PUSH1 0xFF AND ISZERO PUSH2 0x1B77 JUMPI PUSH1 0x40 MLOAD PUSH3 0x461BCD PUSH1 0xE5 SHL DUP2 MSTORE PUSH1 0x4 ADD PUSH2 0x72C SWAP1 PUSH2 0x2549 JUMP JUMPDEST PUSH1 0x0 DUP6 DUP2 MSTORE PUSH1 0x7 PUSH1 0x20 SWAP1 DUP2 MSTORE PUSH1 0x40 SWAP2 DUP3 SWAP1 KECCAK256 SLOAD PUSH1 0x9 SSTORE PUSH1 0x8 DUP1 SLOAD DUP4 MLOAD DUP2 DUP5 MUL DUP2 ADD DUP5 ADD SWAP1 SWAP5 MSTORE DUP1 DUP5 MSTORE PUSH2 0x1BDF SWAP4 SWAP3 DUP4 ADD DUP3 DUP3 DUP1 ISZERO PUSH2 0x703 JUMPI PUSH1 0x20 MUL DUP3 ADD SWAP2 SWAP1 PUSH1 0x0 MSTORE PUSH1 0x20 PUSH1 0x0 KECCAK256 SWAP1 DUP2 SLOAD DUP2 MSTORE PUSH1 0x20 ADD SWAP1 PUSH1 0x1 ADD SWAP1 DUP1 DUP4 GT PUSH2 0x6EF JUMPI POP POP POP POP POP PUSH1 0x9 SLOAD PUSH2 0x1D1F JUMP JUMPDEST PUSH2 0x1BFB JUMPI PUSH1 0x40 MLOAD PUSH3 0x461BCD PUSH1 0xE5 SHL DUP2 MSTORE PUSH1 0x4 ADD PUSH2 0x72C SWAP1 PUSH2 0x23F4 JUMP JUMPDEST PUSH1 0x9 SLOAD PUSH1 0x0 SWAP1 DUP2 MSTORE PUSH1 0x4 PUSH1 0x20 MSTORE PUSH1 0x40 SWAP1 KECCAK256 PUSH2 0x1C15 DUP7 PUSH2 0xF20 JUMP JUMPDEST DUP1 ISZERO PUSH2 0x1C27 JUMPI POP PUSH2 0x1C25 DUP7 PUSH2 0xAFB JUMP JUMPDEST ISZERO JUMPDEST ISZERO PUSH2 0x1D17 JUMPI PUSH1 0x0 PUSH1 0x3 DUP3 ADD SLOAD PUSH1 0xFF AND PUSH1 0x4 DUP2 GT ISZERO PUSH2 0x1C47 JUMPI PUSH2 0x1C47 PUSH2 0x233C JUMP JUMPDEST SUB PUSH2 0x1C65 JUMPI DUP1 SLOAD PUSH2 0x1C60 SWAP1 PUSH1 0x1 PUSH1 0x1 PUSH1 0xA0 SHL SUB AND PUSH2 0xC1D JUMP JUMPDEST PUSH2 0x1D17 JUMP JUMPDEST PUSH1 0x1 PUSH1 0x3 DUP3 ADD SLOAD PUSH1 0xFF AND PUSH1 0x4 DUP2 GT ISZERO PUSH2 0x1C80 JUMPI PUSH2 0x1C80 PUSH2 0x233C JUMP JUMPDEST SUB PUSH2 0x1C99 JUMPI DUP1 SLOAD PUSH2 0x1C60 SWAP1 PUSH1 0x1 PUSH1 0x1 PUSH1 0xA0 SHL SUB AND PUSH2 0x77A JUMP JUMPDEST PUSH1 0x2 PUSH1 0x3 DUP3 ADD SLOAD PUSH1 0xFF AND PUSH1 0x4 DUP2 GT ISZERO PUSH2 0x1CB4 JUMPI PUSH2 0x1CB4 PUSH2 0x233C JUMP JUMPDEST SUB PUSH2 0x1CC6 JUMPI PUSH2 0x1C60 DUP2 PUSH1 0x2 ADD SLOAD PUSH2 0x1948 JUMP JUMPDEST PUSH1 0x3 DUP1 DUP3 ADD SLOAD PUSH1 0xFF AND PUSH1 0x4 DUP2 GT ISZERO PUSH2 0x1CE0 JUMPI PUSH2 0x1CE0 PUSH2 0x233C JUMP JUMPDEST SUB PUSH2 0x1CEE JUMPI PUSH2 0x1C60 DUP7 PUSH2 0x1EEB JUMP JUMPDEST PUSH1 0x4 PUSH1 0x3 DUP3 ADD SLOAD PUSH1 0xFF AND PUSH1 0x4 DUP2 GT ISZERO PUSH2 0x1D09 JUMPI PUSH2 0x1D09 PUSH2 0x233C JUMP JUMPDEST SUB PUSH2 0x1D17 JUMPI PUSH2 0x1D17 DUP7 PUSH2 0x2072 JUMP JUMPDEST POP POP POP POP POP POP JUMP JUMPDEST PUSH1 0x0 DUP1 JUMPDEST DUP4 MLOAD DUP2 LT ISZERO PUSH2 0x1D68 JUMPI DUP3 DUP5 DUP3 DUP2 MLOAD DUP2 LT PUSH2 0x1D3F JUMPI PUSH2 0x1D3F PUSH2 0x24A0 JUMP JUMPDEST PUSH1 0x20 MUL PUSH1 0x20 ADD ADD MLOAD SUB PUSH2 0x1D56 JUMPI PUSH1 0x1 SWAP2 POP POP PUSH2 0x774 JUMP JUMPDEST DUP1 PUSH2 0x1D60 DUP2 PUSH2 0x24B6 JUMP JUMPDEST SWAP2 POP POP PUSH2 0x1D23 JUMP JUMPDEST POP PUSH1 0x0 SWAP4 SWAP3 POP POP POP JUMP JUMPDEST PUSH1 0x0 DUP6 PUSH1 0x1 PUSH1 0x1 PUSH1 0xA0 SHL SUB DUP2 AND PUSH2 0x1DC1 JUMPI PUSH1 0x40 MLOAD PUSH3 0x461BCD PUSH1 0xE5 SHL DUP2 MSTORE PUSH1 0x20 PUSH1 0x4 DUP3 ADD MSTORE PUSH1 0x13 PUSH1 0x24 DUP3 ADD MSTORE PUSH19 0x151A19481859191C995CDCC81A5CC81B9D5B1B PUSH1 0x6A SHL PUSH1 0x44 DUP3 ADD MSTORE PUSH1 0x64 ADD PUSH2 0x72C JUMP JUMPDEST PUSH1 0x5 SLOAD SWAP2 POP DUP3 PUSH1 0x7 PUSH1 0x0 DUP5 DUP2 MSTORE PUSH1 0x20 ADD SWAP1 DUP2 MSTORE PUSH1 0x20 ADD PUSH1 0x0 KECCAK256 DUP2 SWAP1 SSTORE POP PUSH1 0x40 MLOAD DUP1 PUSH1 0xA0 ADD PUSH1 0x40 MSTORE DUP1 DUP9 PUSH1 0x1 PUSH1 0x1 PUSH1 0xA0 SHL SUB AND DUP2 MSTORE PUSH1 0x20 ADD DUP8 PUSH1 0x1 PUSH1 0x1 PUSH1 0xA0 SHL SUB AND DUP2 MSTORE PUSH1 0x20 ADD DUP7 DUP2 MSTORE PUSH1 0x20 ADD DUP6 PUSH1 0x4 DUP2 GT ISZERO PUSH2 0x1E1F JUMPI PUSH2 0x1E1F PUSH2 0x233C JUMP JUMPDEST DUP2 MSTORE PUSH1 0x0 PUSH1 0x20 SWAP2 DUP3 ADD DUP2 SWAP1 MSTORE DUP6 DUP2 MSTORE PUSH1 0x4 DUP1 DUP4 MSTORE PUSH1 0x40 SWAP2 DUP3 SWAP1 KECCAK256 DUP5 MLOAD DUP2 SLOAD PUSH1 0x1 PUSH1 0x1 PUSH1 0xA0 SHL SUB SWAP2 DUP3 AND PUSH1 0x1 PUSH1 0x1 PUSH1 0xA0 SHL SUB NOT SWAP2 DUP3 AND OR DUP4 SSTORE SWAP5 DUP7 ADD MLOAD PUSH1 0x1 DUP4 DUP2 ADD DUP1 SLOAD SWAP3 SWAP1 SWAP4 AND SWAP2 SWAP1 SWAP7 AND OR SWAP1 SSTORE SWAP2 DUP5 ADD MLOAD PUSH1 0x2 DUP4 ADD SSTORE PUSH1 0x60 DUP5 ADD MLOAD PUSH1 0x3 DUP4 ADD DUP1 SLOAD SWAP4 SWAP5 SWAP2 SWAP4 SWAP1 SWAP3 PUSH1 0xFF NOT SWAP1 SWAP2 AND SWAP2 SWAP1 DUP5 SWAP1 DUP2 GT ISZERO PUSH2 0x1EA0 JUMPI PUSH2 0x1EA0 PUSH2 0x233C JUMP JUMPDEST MUL OR SWAP1 SSTORE POP PUSH1 0x80 DUP3 ADD MLOAD DUP2 PUSH1 0x3 ADD PUSH1 0x1 PUSH2 0x100 EXP DUP2 SLOAD DUP2 PUSH1 0xFF MUL NOT AND SWAP1 DUP4 ISZERO ISZERO MUL OR SWAP1 SSTORE POP SWAP1 POP POP PUSH1 0x1 PUSH1 0x5 PUSH1 0x0 DUP3 DUP3 SLOAD PUSH2 0x1EDB SWAP2 SWAP1 PUSH2 0x24E5 JUMP JUMPDEST SWAP1 SWAP2 SSTORE POP SWAP2 SWAP8 SWAP7 POP POP POP POP POP POP POP JUMP JUMPDEST PUSH1 0x0 DUP2 DUP2 MSTORE PUSH1 0x7 PUSH1 0x20 SWAP1 DUP2 MSTORE PUSH1 0x40 DUP1 DUP4 KECCAK256 SLOAD PUSH1 0x9 DUP2 SWAP1 SSTORE DUP4 MSTORE PUSH1 0x4 SWAP1 SWAP2 MSTORE SWAP1 KECCAK256 PUSH1 0x2 DUP2 ADD SLOAD SELFBALANCE LT ISZERO PUSH2 0x1F5F JUMPI PUSH1 0x40 MLOAD PUSH3 0x461BCD PUSH1 0xE5 SHL DUP2 MSTORE PUSH1 0x20 PUSH1 0x4 DUP3 ADD DUP2 SWAP1 MSTORE PUSH1 0x24 DUP3 ADD MSTORE PUSH32 0x496E73756666696369656E742062616C616E636520696E20636F6E7472616374 PUSH1 0x44 DUP3 ADD MSTORE PUSH1 0x64 ADD PUSH2 0x72C JUMP JUMPDEST DUP1 SLOAD PUSH1 0x2 DUP3 ADD SLOAD PUSH1 0x40 MLOAD PUSH1 0x0 SWAP3 PUSH1 0x1 PUSH1 0x1 PUSH1 0xA0 SHL SUB AND SWAP2 SWAP1 DUP4 DUP2 DUP2 DUP2 DUP6 DUP8 GAS CALL SWAP3 POP POP POP RETURNDATASIZE DUP1 PUSH1 0x0 DUP2 EQ PUSH2 0x1FAF JUMPI PUSH1 0x40 MLOAD SWAP2 POP PUSH1 0x1F NOT PUSH1 0x3F RETURNDATASIZE ADD AND DUP3 ADD PUSH1 0x40 MSTORE RETURNDATASIZE DUP3 MSTORE RETURNDATASIZE PUSH1 0x0 PUSH1 0x20 DUP5 ADD RETURNDATACOPY PUSH2 0x1FB4 JUMP JUMPDEST PUSH1 0x60 SWAP2 POP JUMPDEST POP POP SWAP1 POP DUP1 PUSH2 0x2005 JUMPI PUSH1 0x40 MLOAD PUSH3 0x461BCD PUSH1 0xE5 SHL DUP2 MSTORE PUSH1 0x20 PUSH1 0x4 DUP3 ADD MSTORE PUSH1 0x1B PUSH1 0x24 DUP3 ADD MSTORE PUSH32 0x4661696C656420746F2073656E64204E617469766520746F6B656E0000000000 PUSH1 0x44 DUP3 ADD MSTORE PUSH1 0x64 ADD PUSH2 0x72C JUMP JUMPDEST PUSH1 0x9 SLOAD PUSH1 0x0 SWAP1 DUP2 MSTORE PUSH1 0x4 PUSH1 0x20 MSTORE PUSH1 0x40 SWAP1 DUP2 SWAP1 KECCAK256 PUSH1 0x3 ADD DUP1 SLOAD PUSH2 0xFF00 NOT AND PUSH2 0x100 OR SWAP1 SSTORE PUSH1 0x2 DUP4 ADD SLOAD SWAP1 MLOAD PUSH32 0x5550EBCD63FE55CFEE39F1D5D38991F3A21DD4699AB7C41E14112310FD0F8778 SWAP2 PUSH2 0x2065 SWAP2 DUP7 SWAP1 SWAP2 DUP3 MSTORE PUSH1 0x20 DUP3 ADD MSTORE PUSH1 0x40 ADD SWAP1 JUMP JUMPDEST PUSH1 0x40 MLOAD DUP1 SWAP2 SUB SWAP1 LOG1 POP POP POP JUMP JUMPDEST PUSH1 0x0 DUP2 DUP2 MSTORE PUSH1 0x7 PUSH1 0x20 SWAP1 DUP2 MSTORE PUSH1 0x40 DUP1 DUP4 KECCAK256 SLOAD PUSH1 0x9 DUP2 SWAP1 SSTORE DUP4 MSTORE PUSH1 0x4 SWAP2 DUP3 SWAP1 MSTORE DUP1 DUP4 KECCAK256 PUSH1 0x3 SLOAD PUSH1 0x1 DUP3 ADD SLOAD SWAP3 MLOAD PUSH4 0x6EB1769F PUSH1 0xE1 SHL DUP2 MSTORE PUSH1 0x1 PUSH1 0x1 PUSH1 0xA0 SHL SUB SWAP4 DUP5 AND SWAP5 DUP2 ADD SWAP5 SWAP1 SWAP5 MSTORE ADDRESS PUSH1 0x24 DUP6 ADD MSTORE SWAP1 SWAP4 SWAP3 SWAP2 AND SWAP1 PUSH4 0xDD62ED3E SWAP1 PUSH1 0x44 ADD PUSH1 0x20 PUSH1 0x40 MLOAD DUP1 DUP4 SUB DUP2 DUP7 GAS STATICCALL ISZERO DUP1 ISZERO PUSH2 0x20EC JUMPI RETURNDATASIZE PUSH1 0x0 DUP1 RETURNDATACOPY RETURNDATASIZE PUSH1 0x0 REVERT JUMPDEST POP POP POP POP PUSH1 0x40 MLOAD RETURNDATASIZE PUSH1 0x1F NOT PUSH1 0x1F DUP3 ADD AND DUP3 ADD DUP1 PUSH1 0x40 MSTORE POP DUP2 ADD SWAP1 PUSH2 0x2110 SWAP2 SWAP1 PUSH2 0x25B2 JUMP JUMPDEST SWAP1 POP DUP2 PUSH1 0x2 ADD SLOAD DUP2 LT ISZERO PUSH2 0x218C JUMPI PUSH1 0x40 MLOAD PUSH3 0x461BCD PUSH1 0xE5 SHL DUP2 MSTORE PUSH1 0x20 PUSH1 0x4 DUP3 ADD MSTORE PUSH1 0x37 PUSH1 0x24 DUP3 ADD MSTORE PUSH32 0x436F6E7472616374206973206E6F7420616C6C6F776564206279207573657220 PUSH1 0x44 DUP3 ADD MSTORE PUSH32 0x746F207472616E73666572207375636820616D6F756E74000000000000000000 PUSH1 0x64 DUP3 ADD MSTORE PUSH1 0x84 ADD PUSH2 0x72C JUMP JUMPDEST PUSH1 0x3 SLOAD PUSH1 0x1 DUP4 ADD SLOAD DUP4 SLOAD PUSH1 0x2 DUP6 ADD SLOAD PUSH1 0x40 MLOAD PUSH4 0x23B872DD PUSH1 0xE0 SHL DUP2 MSTORE PUSH1 0x1 PUSH1 0x1 PUSH1 0xA0 SHL SUB SWAP4 DUP5 AND PUSH1 0x4 DUP3 ADD MSTORE SWAP2 DUP4 AND PUSH1 0x24 DUP4 ADD MSTORE PUSH1 0x44 DUP3 ADD MSTORE SWAP2 AND SWAP1 PUSH4 0x23B872DD SWAP1 PUSH1 0x64 ADD PUSH1 0x20 PUSH1 0x40 MLOAD DUP1 DUP4 SUB DUP2 PUSH1 0x0 DUP8 GAS CALL ISZERO DUP1 ISZERO PUSH2 0x21F0 JUMPI RETURNDATASIZE PUSH1 0x0 DUP1 RETURNDATACOPY RETURNDATASIZE PUSH1 0x0 REVERT JUMPDEST POP POP POP POP PUSH1 0x40 MLOAD RETURNDATASIZE PUSH1 0x1F NOT PUSH1 0x1F DUP3 ADD AND DUP3 ADD DUP1 PUSH1 0x40 MSTORE POP DUP2 ADD SWAP1 PUSH2 0x2214 SWAP2 SWAP1 PUSH2 0x25E1 JUMP JUMPDEST POP PUSH1 0x9 SLOAD PUSH1 0x0 SWAP1 DUP2 MSTORE PUSH1 0x4 PUSH1 0x20 MSTORE PUSH1 0x40 SWAP1 DUP2 SWAP1 KECCAK256 PUSH1 0x3 ADD DUP1 SLOAD PUSH2 0xFF00 NOT AND PUSH2 0x100 OR SWAP1 SSTORE PUSH1 0x2 DUP4 ADD SLOAD SWAP1 MLOAD PUSH32 0x4645E2DFFCB6B5BE91555757773B76BBF2E4612DA04DB6995AEF42FACF6C2B52 SWAP2 PUSH2 0x2065 SWAP2 DUP7 SWAP1 SWAP2 DUP3 MSTORE PUSH1 0x20 DUP3 ADD MSTORE PUSH1 0x40 ADD SWAP1 JUMP JUMPDEST PUSH1 0x0 PUSH1 0x20 DUP3 DUP5 SUB SLT ISZERO PUSH2 0x2287 JUMPI PUSH1 0x0 DUP1 REVERT JUMPDEST POP CALLDATALOAD SWAP2 SWAP1 POP JUMP JUMPDEST DUP1 CALLDATALOAD PUSH1 0x1 PUSH1 0x1 PUSH1 0xA0 SHL SUB DUP2 AND DUP2 EQ PUSH2 0x22A5 JUMPI PUSH1 0x0 DUP1 REVERT JUMPDEST SWAP2 SWAP1 POP JUMP JUMPDEST PUSH1 0x0 DUP1 PUSH1 0x40 DUP4 DUP6 SUB SLT ISZERO PUSH2 0x22BD JUMPI PUSH1 0x0 DUP1 REVERT JUMPDEST DUP3 CALLDATALOAD SWAP2 POP PUSH2 0x22CD PUSH1 0x20 DUP5 ADD PUSH2 0x228E JUMP JUMPDEST SWAP1 POP SWAP3 POP SWAP3 SWAP1 POP JUMP JUMPDEST PUSH1 0x0 PUSH1 0x20 DUP3 DUP5 SUB SLT ISZERO PUSH2 0x22E8 JUMPI PUSH1 0x0 DUP1 REVERT JUMPDEST PUSH2 0x22F1 DUP3 PUSH2 0x228E JUMP JUMPDEST SWAP4 SWAP3 POP POP POP JUMP JUMPDEST PUSH1 0x0 DUP1 PUSH1 0x0 PUSH1 0x60 DUP5 DUP7 SUB SLT ISZERO PUSH2 0x230D JUMPI PUSH1 0x0 DUP1 REVERT JUMPDEST PUSH2 0x2316 DUP5 PUSH2 0x228E JUMP JUMPDEST SWAP3 POP PUSH1 0x20 DUP5 ADD CALLDATALOAD SWAP2 POP PUSH1 0x40 DUP5 ADD CALLDATALOAD PUSH1 0x5 DUP2 LT PUSH2 0x2331 JUMPI PUSH1 0x0 DUP1 REVERT JUMPDEST DUP1 SWAP2 POP POP SWAP3 POP SWAP3 POP SWAP3 JUMP JUMPDEST PUSH4 0x4E487B71 PUSH1 0xE0 SHL PUSH1 0x0 MSTORE PUSH1 0x21 PUSH1 0x4 MSTORE PUSH1 0x24 PUSH1 0x0 REVERT JUMPDEST PUSH1 0x1 PUSH1 0x1 PUSH1 0xA0 SHL SUB DUP7 DUP2 AND DUP3 MSTORE DUP6 AND PUSH1 0x20 DUP3 ADD MSTORE PUSH1 0x40 DUP2 ADD DUP5 SWAP1 MSTORE PUSH1 0xA0 DUP2 ADD PUSH1 0x5 DUP5 LT PUSH2 0x238F JUMPI PUSH4 0x4E487B71 PUSH1 0xE0 SHL PUSH1 0x0 MSTORE PUSH1 0x21 PUSH1 0x4 MSTORE PUSH1 0x24 PUSH1 0x0 REVERT JUMPDEST DUP4 PUSH1 0x60 DUP4 ADD MSTORE DUP3 ISZERO ISZERO PUSH1 0x80 DUP4 ADD MSTORE SWAP7 SWAP6 POP POP POP POP POP POP JUMP JUMPDEST PUSH1 0x20 DUP1 DUP3 MSTORE DUP3 MLOAD DUP3 DUP3 ADD DUP2 SWAP1 MSTORE PUSH1 0x0 SWAP2 SWAP1 DUP5 DUP3 ADD SWAP1 PUSH1 0x40 DUP6 ADD SWAP1 DUP5 JUMPDEST DUP2 DUP2 LT ISZERO PUSH2 0x23E8 JUMPI DUP4 MLOAD PUSH1 0x1 PUSH1 0x1 PUSH1 0xA0 SHL SUB AND DUP4 MSTORE SWAP3 DUP5 ADD SWAP3 SWAP2 DUP5 ADD SWAP2 PUSH1 0x1 ADD PUSH2 0x23C3 JUMP JUMPDEST POP SWAP1 SWAP7 SWAP6 POP POP POP POP POP POP JUMP JUMPDEST PUSH1 0x20 DUP1 DUP3 MSTORE PUSH1 0x2C SWAP1 DUP3 ADD MSTORE PUSH32 0x4E6F207472616E73616374696F6E20666F756E64206173736F63696174656420 PUSH1 0x40 DUP3 ADD MSTORE PUSH12 0x1DDA5D1A081D1A1A5CC81259 PUSH1 0xA2 SHL PUSH1 0x60 DUP3 ADD MSTORE PUSH1 0x80 ADD SWAP1 JUMP JUMPDEST PUSH1 0x20 DUP1 DUP3 MSTORE PUSH1 0x1C SWAP1 DUP3 ADD MSTORE PUSH32 0x546869732061646472657373206973206E6F7420616E206F776E657200000000 PUSH1 0x40 DUP3 ADD MSTORE PUSH1 0x60 ADD SWAP1 JUMP JUMPDEST PUSH4 0x4E487B71 PUSH1 0xE0 SHL PUSH1 0x0 MSTORE PUSH1 0x11 PUSH1 0x4 MSTORE PUSH1 0x24 PUSH1 0x0 REVERT JUMPDEST DUP2 DUP2 SUB DUP2 DUP2 GT ISZERO PUSH2 0x774 JUMPI PUSH2 0x774 PUSH2 0x2477 JUMP JUMPDEST PUSH4 0x4E487B71 PUSH1 0xE0 SHL PUSH1 0x0 MSTORE PUSH1 0x32 PUSH1 0x4 MSTORE PUSH1 0x24 PUSH1 0x0 REVERT JUMPDEST PUSH1 0x0 PUSH1 0x1 DUP3 ADD PUSH2 0x24C8 JUMPI PUSH2 0x24C8 PUSH2 0x2477 JUMP JUMPDEST POP PUSH1 0x1 ADD SWAP1 JUMP JUMPDEST PUSH4 0x4E487B71 PUSH1 0xE0 SHL PUSH1 0x0 MSTORE PUSH1 0x31 PUSH1 0x4 MSTORE PUSH1 0x24 PUSH1 0x0 REVERT JUMPDEST DUP1 DUP3 ADD DUP1 DUP3 GT ISZERO PUSH2 0x774 JUMPI PUSH2 0x774 PUSH2 0x2477 JUMP JUMPDEST PUSH1 0x20 DUP1 DUP3 MSTORE PUSH1 0x31 SWAP1 DUP3 ADD MSTORE PUSH32 0x5468657265206973206E6F207472616E73616374696F6E206173736F63696174 PUSH1 0x40 DUP3 ADD MSTORE PUSH17 0x1959081D1BC81D1A1A5CC81A185CDA1259 PUSH1 0x7A SHL PUSH1 0x60 DUP3 ADD MSTORE PUSH1 0x80 ADD SWAP1 JUMP JUMPDEST PUSH1 0x20 DUP1 DUP3 MSTORE PUSH1 0x43 SWAP1 DUP3 ADD MSTORE PUSH32 0x546865207472616E73616374696F6E206173736F636961746564207769746820 PUSH1 0x40 DUP3 ADD MSTORE PUSH32 0x7468697320686173682068617320616C7265616479206265656E206578656375 PUSH1 0x60 DUP3 ADD MSTORE PUSH3 0x1D1959 PUSH1 0xEA SHL PUSH1 0x80 DUP3 ADD MSTORE PUSH1 0xA0 ADD SWAP1 JUMP JUMPDEST PUSH1 0x0 PUSH1 0x20 DUP3 DUP5 SUB SLT ISZERO PUSH2 0x25C4 JUMPI PUSH1 0x0 DUP1 REVERT JUMPDEST POP MLOAD SWAP2 SWAP1 POP JUMP JUMPDEST PUSH4 0x4E487B71 PUSH1 0xE0 SHL PUSH1 0x0 MSTORE PUSH1 0x41 PUSH1 0x4 MSTORE PUSH1 0x24 PUSH1 0x0 REVERT JUMPDEST PUSH1 0x0 PUSH1 0x20 DUP3 DUP5 SUB SLT ISZERO PUSH2 0x25F3 JUMPI PUSH1 0x0 DUP1 REVERT JUMPDEST DUP2 MLOAD DUP1 ISZERO ISZERO DUP2 EQ PUSH2 0x22F1 JUMPI PUSH1 0x0 DUP1 REVERT INVALID LOG2 PUSH5 0x6970667358 0x22 SLT KECCAK256 0xA7 PUSH8 0xDAE04807B8AFA00A 0xDC 0xCC SDIV CALLVALUE SLT PUSH25 0xABA052500C1DFD8579B58E5F90F7998364736F6C6343000814 STOP CALLER "},"gasEstimates":{"creation":{"codeDepositCost":"1957000","executionCost":"infinite","totalCost":"infinite"},"external":{"":"1677","addOwner(address)":"83108","changeQuorum(uint256)":"27827","confirmTransaction(uint256)":"59265","confirmations(bytes32,address)":"2686","deposit()":"1686","executeTransaction(uint256)":"infinite","getConfirmationCount(uint256)":"infinite","getConfirmations(uint256)":"infinite","getOwnerCount()":"2380","getOwners()":"infinite","getQuorum()":"2337","getRevocationCount(uint256)":"infinite","getRevocations(uint256)":"infinite","getTokenBalance()":"infinite","getTransactionCount()":"2404","getUserConfirmationStatus(uint256,address)":"infinite","hashId()":"2362","hashesId(uint256)":"4665","idToHashes(uint256)":"2548","isConfirmed(uint256)":"infinite","isOwner(address)":"2580","isRevoked(uint256)":"infinite","owners(uint256)":"4650","quorum()":"2341","removeOwner(address)":"infinite","revokeTransaction(uint256)":"59210","setTokenContractAddress(address)":"26812","submitTransaction(address,uint256,uint8)":"241110","transactionCount()":"2384","transactions(bytes32)":"9133","verifyOwner(address)":"2620"},"internal":{"addTransaction(address,address,uint256,enum MultiSigTransaction.TransactionType,bytes32)":"infinite","executeERC20Transaction(uint256)":"infinite","executeNativeTransaction(uint256)":"infinite","sendERC20(address,address,uint256)":"infinite"}},"methodIdentifiers":{"addOwner(address)":"7065cb48","changeQuorum(uint256)":"d2cd96bd","confirmTransaction(uint256)":"c01a8c84","confirmations(bytes32,address)":"0c4ecab4","deposit()":"d0e30db0","executeTransaction(uint256)":"ee22610b","getConfirmationCount(uint256)":"8b51d13f","getConfirmations(uint256)":"b5dc40c3","getOwnerCount()":"ef18374a","getOwners()":"a0e67e2b","getQuorum()":"c26c12eb","getRevocationCount(uint256)":"c85c41e9","getRevocations(uint256)":"af05445a","getTokenBalance()":"82b2e257","getTransactionCount()":"2e7700f0","getUserConfirmationStatus(uint256,address)":"144dee38","hashId()":"c59bcee8","hashesId(uint256)":"29cd11b2","idToHashes(uint256)":"f6bdc030","isConfirmed(uint256)":"784547a7","isOwner(address)":"2f54bf6e","isRevoked(uint256)":"5ccc561e","owners(uint256)":"025e7c27","quorum()":"1703a018","removeOwner(address)":"173825d9","revokeTransaction(uint256)":"735631ad","setTokenContractAddress(address)":"b23d4854","submitTransaction(address,uint256,uint8)":"3c680462","transactionCount()":"b77bf600","transactions(bytes32)":"642f2eaf","verifyOwner(address)":"8c85cd85"}},"storageLayout":{"storage":[{"astId":1122,"contract":"contracts/MultiSigTransactions.sol:MultiSigTransaction","label":"isOwner","offset":0,"slot":"0","type":"t_mapping(t_address,t_bool)"},{"astId":1125,"contract":"contracts/MultiSigTransactions.sol:MultiSigTransaction","label":"owners","offset":0,"slot":"1","type":"t_array(t_address)dyn_storage"},{"astId":1127,"contract":"contracts/MultiSigTransactions.sol:MultiSigTransaction","label":"quorum","offset":0,"slot":"2","type":"t_uint256"},{"astId":1760,"contract":"contracts/MultiSigTransactions.sol:MultiSigTransaction","label":"MyTokenContract","offset":0,"slot":"3","type":"t_contract(IERC20)331"},{"astId":1765,"contract":"contracts/MultiSigTransactions.sol:MultiSigTransaction","label":"transactions","offset":0,"slot":"4","type":"t_mapping(t_bytes32,t_struct(Transaction)1800_storage)"},{"astId":1767,"contract":"contracts/MultiSigTransactions.sol:MultiSigTransaction","label":"transactionCount","offset":0,"slot":"5","type":"t_uint256"},{"astId":1773,"contract":"contracts/MultiSigTransactions.sol:MultiSigTransaction","label":"confirmations","offset":0,"slot":"6","type":"t_mapping(t_bytes32,t_mapping(t_address,t_uint256))"},{"astId":1777,"contract":"contracts/MultiSigTransactions.sol:MultiSigTransaction","label":"idToHashes","offset":0,"slot":"7","type":"t_mapping(t_uint256,t_bytes32)"},{"astId":1780,"contract":"contracts/MultiSigTransactions.sol:MultiSigTransaction","label":"hashesId","offset":0,"slot":"8","type":"t_array(t_bytes32)dyn_storage"},{"astId":1782,"contract":"contracts/MultiSigTransactions.sol:MultiSigTransaction","label":"hashId","offset":0,"slot":"9","type":"t_bytes32"}],"types":{"t_address":{"encoding":"inplace","label":"address","numberOfBytes":"20"},"t_array(t_address)dyn_storage":{"base":"t_address","encoding":"dynamic_array","label":"address[]","numberOfBytes":"32"},"t_array(t_bytes32)dyn_storage":{"base":"t_bytes32","encoding":"dynamic_array","label":"bytes32[]","numberOfBytes":"32"},"t_bool":{"encoding":"inplace","label":"bool","numberOfBytes":"1"},"t_bytes32":{"encoding":"inplace","label":"bytes32","numberOfBytes":"32"},"t_contract(IERC20)331":{"encoding":"inplace","label":"contract IERC20","numberOfBytes":"20"},"t_enum(TransactionType)1788":{"encoding":"inplace","label":"enum MultiSigTransaction.TransactionType","numberOfBytes":"1"},"t_mapping(t_address,t_bool)":{"encoding":"mapping","key":"t_address","label":"mapping(address => bool)","numberOfBytes":"32","value":"t_bool"},"t_mapping(t_address,t_uint256)":{"encoding":"mapping","key":"t_address","label":"mapping(address => uint256)","numberOfBytes":"32","value":"t_uint256"},"t_mapping(t_bytes32,t_mapping(t_address,t_uint256))":{"encoding":"mapping","key":"t_bytes32","label":"mapping(bytes32 => mapping(address => uint256))","numberOfBytes":"32","value":"t_mapping(t_address,t_uint256)"},"t_mapping(t_bytes32,t_struct(Transaction)1800_storage)":{"encoding":"mapping","key":"t_bytes32","label":"mapping(bytes32 => struct MultiSigTransaction.Transaction)","numberOfBytes":"32","value":"t_struct(Transaction)1800_storage"},"t_mapping(t_uint256,t_bytes32)":{"encoding":"mapping","key":"t_uint256","label":"mapping(uint256 => bytes32)","numberOfBytes":"32","value":"t_bytes32"},"t_struct(Transaction)1800_storage":{"encoding":"inplace","label":"struct MultiSigTransaction.Transaction","members":[{"astId":1790,"contract":"contracts/MultiSigTransactions.sol:MultiSigTransaction","label":"destination","offset":0,"slot":"0","type":"t_address"},{"astId":1792,"contract":"contracts/MultiSigTransactions.sol:MultiSigTransaction","label":"submitterAddress","offset":0,"slot":"1","type":"t_address"},{"astId":1794,"contract":"contracts/MultiSigTransactions.sol:MultiSigTransaction","label":"value","offset":0,"slot":"2","type":"t_uint256"},{"astId":1797,"contract":"contracts/MultiSigTransactions.sol:MultiSigTransaction","label":"transactionType","offset":0,"slot":"3","type":"t_enum(TransactionType)1788"},{"astId":1799,"contract":"contracts/MultiSigTransactions.sol:MultiSigTransaction","label":"executed","offset":1,"slot":"3","type":"t_bool"}],"numberOfBytes":"128"},"t_uint256":{"encoding":"inplace","label":"uint256","numberOfBytes":"32"}}},"userdoc":{"kind":"user","methods":{},"notice":"This contract integrates multi-signature administration features with transaction          execution logic, supporting both native and ERC20 token transfers.","version":1}}}}