{"contracts/MultiSigFactory.sol":{"MultiSigFactory":{"abi":[{"anonymous":false,"inputs":[{"indexed":false,"internalType":"address","name":"sender","type":"address"},{"indexed":false,"internalType":"address","name":"instantiation","type":"address"}],"name":"ContractInstantiation","type":"event"},{"anonymous":false,"inputs":[{"indexed":true,"internalType":"address","name":"multiSig","type":"address"}],"name":"MultiSigAdministrationCreation","type":"event"},{"inputs":[{"internalType":"address[]","name":"owners","type":"address[]"},{"internalType":"uint256","name":"quorum","type":"uint256"}],"name":"createMultiSigAdministration","outputs":[{"internalType":"address","name":"wallet","type":"address"}],"stateMutability":"nonpayable","type":"function"},{"inputs":[],"name":"getInstancesOfMultisigs","outputs":[{"internalType":"address[]","name":"","type":"address[]"}],"stateMutability":"view","type":"function"},{"inputs":[{"internalType":"address","name":"creator","type":"address"}],"name":"getInstantiationCount","outputs":[{"internalType":"uint256","name":"","type":"uint256"}],"stateMutability":"view","type":"function"},{"inputs":[],"name":"getNumberOfMultiSigs","outputs":[{"internalType":"uint256","name":"","type":"uint256"}],"stateMutability":"view","type":"function"},{"inputs":[{"internalType":"address","name":"","type":"address"},{"internalType":"uint256","name":"","type":"uint256"}],"name":"instantiations","outputs":[{"internalType":"address","name":"","type":"address"}],"stateMutability":"view","type":"function"},{"inputs":[{"internalType":"address","name":"","type":"address"}],"name":"isInstantiated","outputs":[{"internalType":"bool","name":"","type":"bool"}],"stateMutability":"view","type":"function"},{"inputs":[{"internalType":"uint256","name":"","type":"uint256"}],"name":"multiSigs","outputs":[{"internalType":"address","name":"","type":"address"}],"stateMutability":"view","type":"function"}],"devdoc":{"details":"Contract to create new instances of MultiSigTransaction and MultiSigMaster contracts.","events":{"ContractInstantiation(address,address)":{"details":"Emitted when a new contract instance is registered in the factory.","params":{"instantiation":"The address of the newly created contract instance.","sender":"The address that created and registered the contract instance."}},"MultiSigAdministrationCreation(address)":{"details":"Emitted when a new MultiSigMaster contract is created.","params":{"multiSig":"The address of the newly created MultiSigMaster contract."}}},"kind":"dev","methods":{"createMultiSigAdministration(address[],uint256)":{"details":"Creates a new MultiSigMaster contract with specified owners, quorum, and a master address.","params":{"owners":"Array of addresses that will be the owners in the created MultiSigMaster.","quorum":"The number of required confirmations for a transaction."},"returns":{"wallet":"The address of the newly created MultiSigMaster contract."}},"getInstancesOfMultisigs()":{"details":"Returns the addresses of all multi-signature contracts created by this factory.","returns":{"_0":"A list of addresses of the multi-signature contracts."}},"getInstantiationCount(address)":{"details":"Retrieves the count of contract instances created by a specific address.","params":{"creator":"The address of the creator whose instantiations are being counted."},"returns":{"_0":"The number of contract instances created by the specified creator."}},"getNumberOfMultiSigs()":{"details":"Returns the number of multi-signature contracts created by this factory.","returns":{"_0":"The total number of multi-signature contracts created."}}},"title":"Multi-Signature Factory Contract","version":1},"evm":{"bytecode":{"linkReferences":{},"object":"608060405234801561001057600080fd5b506112b6806100206000396000f3fe60806040523480156200001157600080fd5b5060043610620000865760003560e01c806357183c82116200006257806357183c8214620001095780638f8384781462000120578063c67fdb94146200014c578063e8500479146200016357600080fd5b806241dfdc146200008b57806310955ff414620000bf578063482af68914620000d2575b600080fd5b620000a26200009c366004620003e2565b6200017c565b6040516001600160a01b0390911681526020015b60405180910390f35b6002545b604051908152602001620000b6565b620000f8620000e3366004620004bb565b60006020819052908152604090205460ff1681565b6040519015158152602001620000b6565b620000a26200011a366004620004e0565b62000250565b620000c362000131366004620004bb565b6001600160a01b031660009081526001602052604090205490565b620000a26200015d3660046200050d565b62000289565b6200016d620002b4565b604051620000b691906200056d565b60008083836040516200018f90620003a1565b6200019c92919062000582565b604051809103906000f080158015620001b9573d6000803e3d6000fd5b50600280546001810182556000919091527f405787fa12a823e0f2b7631cc41b3ba8828b3321ca811111fa75cd3aa3bb5ace0180546001600160a01b0319166001600160a01b0383161790559150819050620002158162000318565b6040516001600160a01b038316907fc0849e34bed2e01fe7bd516e505035be04d3a11fd34ea9c1e0559ff3279a0f6590600090a25092915050565b600160205281600052604060002081815481106200026d57600080fd5b6000918252602090912001546001600160a01b03169150829050565b600281815481106200029a57600080fd5b6000918252602090912001546001600160a01b0316905081565b606060028054806020026020016040519081016040528092919081815260200182805480156200030e57602002820191906000526020600020905b81546001600160a01b03168152600190910190602001808311620002ef575b5050505050905090565b6001600160a01b038116600081815260208181526040808320805460ff1916600190811790915533808552818452828520805492830181558552938390200180546001600160a01b031916851790558051928352908201929092527f4fb057ad4a26ed17a57957fa69c306f11987596069b89521c511fc9a894e6161910160405180910390a150565b610cda80620005a783390190565b634e487b7160e01b600052604160045260246000fd5b80356001600160a01b0381168114620003dd57600080fd5b919050565b60008060408385031215620003f657600080fd5b823567ffffffffffffffff808211156200040f57600080fd5b818501915085601f8301126200042457600080fd5b81356020828211156200043b576200043b620003af565b8160051b604051601f19603f83011681018181108682111715620004635762000463620003af565b6040529283528183019350848101820192898411156200048257600080fd5b948201945b83861015620004ab576200049b86620003c5565b8552948201949382019362000487565b9997909101359750505050505050565b600060208284031215620004ce57600080fd5b620004d982620003c5565b9392505050565b60008060408385031215620004f457600080fd5b620004ff83620003c5565b946020939093013593505050565b6000602082840312156200052057600080fd5b5035919050565b600081518084526020808501945080840160005b83811015620005625781516001600160a01b0316875295820195908201906001016200053b565b509495945050505050565b602081526000620004d9602083018462000527565b60408152600062000597604083018562000527565b9050826020830152939250505056fe60806040523480156200001157600080fd5b5060405162000cda38038062000cda8339810160408190526200003491620002e6565b8151818181111580156200004757508015155b80156200005357508115155b620000a55760405162461bcd60e51b815260206004820152601660248201527f436f6e646974696f6e7320617265206e6f74206d65740000000000000000000060448201526064015b60405180910390fd5b60005b84518110156200020f57600080868381518110620000ca57620000ca620003c0565b6020908102919091018101516001600160a01b031682528101919091526040016000205460ff161580156200012e575060006001600160a01b03168582815181106200011a576200011a620003c0565b60200260200101516001600160a01b031614155b620001ae5760405162461bcd60e51b815260206004820152604360248201527f416464726573732073686f756c646e277420626520616c7265616479206c697360448201527f746564206173206f776e65722c206e6f722073686f756c64206974206265204e60648201526215531360ea1b608482015260a4016200009c565b6001600080878481518110620001c857620001c8620003c0565b6020908102919091018101516001600160a01b03168252810191909152604001600020805460ff1916911515919091179055806200020681620003d6565b915050620000a8565b5083516200022590600190602087019062000232565b50505060025550620003fe565b8280548282559060005260206000209081019282156200028a579160200282015b828111156200028a57825182546001600160a01b0319166001600160a01b0390911617825560209092019160019091019062000253565b50620002989291506200029c565b5090565b5b808211156200029857600081556001016200029d565b634e487b7160e01b600052604160045260246000fd5b80516001600160a01b0381168114620002e157600080fd5b919050565b60008060408385031215620002fa57600080fd5b82516001600160401b03808211156200031257600080fd5b818501915085601f8301126200032757600080fd5b81516020828211156200033e576200033e620002b3565b8160051b604051601f19603f83011681018181108682111715620003665762000366620002b3565b6040529283528183019350848101820192898411156200038557600080fd5b948201945b83861015620003ae576200039e86620002c9565b855294820194938201936200038a565b97909101519698969750505050505050565b634e487b7160e01b600052603260045260246000fd5b600060018201620003f757634e487b7160e01b600052601160045260246000fd5b5060010190565b6108cc806200040e6000396000f3fe608060405234801561001057600080fd5b506004361061009e5760003560e01c80638c85cd85116100665780638c85cd8514610145578063a0e67e2b14610171578063c26c12eb14610186578063d2cd96bd1461018e578063ef18374a146101a157600080fd5b8063025e7c27146100a35780631703a018146100d3578063173825d9146100ea5780632f54bf6e146100ff5780637065cb4814610132575b600080fd5b6100b66100b1366004610742565b6101a9565b6040516001600160a01b0390911681526020015b60405180910390f35b6100dc60025481565b6040519081526020016100ca565b6100fd6100f836600461075b565b6101d3565b005b61012261010d36600461075b565b60006020819052908152604090205460ff1681565b60405190151581526020016100ca565b6100fd61014036600461075b565b61042a565b61012261015336600461075b565b6001600160a01b031660009081526020819052604090205460ff1690565b610179610610565b6040516100ca919061078b565b6002546100dc565b6100fd61019c366004610742565b610672565b6001546100dc565b600181815481106101b957600080fd5b6000918252602090912001546001600160a01b0316905081565b3360008181526020819052604090205460ff1661020b5760405162461bcd60e51b8152600401610202906107d8565b60405180910390fd5b6001600160a01b038216600090815260208190526040902054829060ff166102455760405162461bcd60e51b8152600401610202906107d8565b60018054116102965760405162461bcd60e51b815260206004820152601760248201527f43616e27742072656d6f7665206c617374206f776e65720000000000000000006044820152606401610202565b600180546102a49190610825565b60025411156102be57600180546102be9161019c91610825565b60005b600180546102cf9190610825565b81101561039d57836001600160a01b0316600182815481106102f3576102f361083e565b6000918252602090912001546001600160a01b03160361038b576001805461031c908290610825565b8154811061032c5761032c61083e565b600091825260209091200154600180546001600160a01b0390921691839081106103585761035861083e565b9060005260206000200160006101000a8154816001600160a01b0302191690836001600160a01b0316021790555061039d565b8061039581610854565b9150506102c1565b506001600160a01b0383166000908152602081905260409020805460ff1916905560018054806103cf576103cf61086d565b600082815260208120820160001990810180546001600160a01b03191690559091019091556040516001600160a01b038516917f8001553a916ef2f495d26a907cc54d96ed840d7bda71e73194bf5a9df7a76b9091a2505050565b6001600160a01b038116600090815260208190526040902054819060ff16156104955760405162461bcd60e51b815260206004820181905260248201527f54686973206164647265737320697320616c726561647920616e206f776e65726044820152606401610202565b3360008181526020819052604090205460ff166104c45760405162461bcd60e51b8152600401610202906107d8565b826001600160a01b0381166105115760405162461bcd60e51b8152602060048201526013602482015272151a19481859191c995cdcc81a5cc81b9d5b1b606a1b6044820152606401610202565b6001805461051e91610883565b60025481811115801561053057508015155b801561053b57508115155b6105805760405162461bcd60e51b815260206004820152601660248201527510dbdb991a5d1a5bdb9cc8185c99481b9bdd081b595d60521b6044820152606401610202565b6001600160a01b038616600081815260208190526040808220805460ff19166001908117909155805480820182559083527fb10e2d527612073b26eecdfd717e6a320cf44b4afac2b0732d9fcbe2b7fa0cf60180546001600160a01b03191684179055517ff39e6e1eb0edcf53c221607b54b00cd28f3196fed0a24994dc308b8f611b682d9190a2505050505050565b6060600180548060200260200160405190810160405280929190818152602001828054801561066857602002820191906000526020600020905b81546001600160a01b0316815260019091019060200180831161064a575b5050505050905090565b3360008181526020819052604090205460ff166106a15760405162461bcd60e51b8152600401610202906107d8565b600154828181118015906106b457508015155b80156106bf57508115155b6107045760405162461bcd60e51b815260206004820152601660248201527510dbdb991a5d1a5bdb9cc8185c99481b9bdd081b595d60521b6044820152606401610202565b60028490556040518481527f027863d12a407097e086a48e36475bfc859d0b200b7e6f65b5fd3b218e46632e9060200160405180910390a150505050565b60006020828403121561075457600080fd5b5035919050565b60006020828403121561076d57600080fd5b81356001600160a01b038116811461078457600080fd5b9392505050565b6020808252825182820181905260009190848201906040850190845b818110156107cc5783516001600160a01b0316835292840192918401916001016107a7565b50909695505050505050565b6020808252601c908201527f546869732061646472657373206973206e6f7420616e206f776e657200000000604082015260600190565b634e487b7160e01b600052601160045260246000fd5b818103818111156108385761083861080f565b92915050565b634e487b7160e01b600052603260045260246000fd5b6000600182016108665761086661080f565b5060010190565b634e487b7160e01b600052603160045260246000fd5b808201808211156108385761083861080f56fea26469706673582212203016d5fa5b24bcb6973abca212b667383358e7f8b844d7fb085f3be6e604366464736f6c63430008140033a2646970667358221220bc9aa792dc12926a98a5775c44738fda0c3ec81e2279650ee37d37ff43ca8aa764736f6c63430008140033","opcodes":"PUSH1 0x80 PUSH1 0x40 MSTORE CALLVALUE DUP1 ISZERO PUSH2 0x10 JUMPI PUSH1 0x0 DUP1 REVERT JUMPDEST POP PUSH2 0x12B6 DUP1 PUSH2 0x20 PUSH1 0x0 CODECOPY PUSH1 0x0 RETURN INVALID PUSH1 0x80 PUSH1 0x40 MSTORE CALLVALUE DUP1 ISZERO PUSH3 0x11 JUMPI PUSH1 0x0 DUP1 REVERT JUMPDEST POP PUSH1 0x4 CALLDATASIZE LT PUSH3 0x86 JUMPI PUSH1 0x0 CALLDATALOAD PUSH1 0xE0 SHR DUP1 PUSH4 0x57183C82 GT PUSH3 0x62 JUMPI DUP1 PUSH4 0x57183C82 EQ PUSH3 0x109 JUMPI DUP1 PUSH4 0x8F838478 EQ PUSH3 0x120 JUMPI DUP1 PUSH4 0xC67FDB94 EQ PUSH3 0x14C JUMPI DUP1 PUSH4 0xE8500479 EQ PUSH3 0x163 JUMPI PUSH1 0x0 DUP1 REVERT JUMPDEST DUP1 PUSH3 0x41DFDC EQ PUSH3 0x8B JUMPI DUP1 PUSH4 0x10955FF4 EQ PUSH3 0xBF JUMPI DUP1 PUSH4 0x482AF689 EQ PUSH3 0xD2 JUMPI JUMPDEST PUSH1 0x0 DUP1 REVERT JUMPDEST PUSH3 0xA2 PUSH3 0x9C CALLDATASIZE PUSH1 0x4 PUSH3 0x3E2 JUMP JUMPDEST PUSH3 0x17C JUMP JUMPDEST PUSH1 0x40 MLOAD PUSH1 0x1 PUSH1 0x1 PUSH1 0xA0 SHL SUB SWAP1 SWAP2 AND DUP2 MSTORE PUSH1 0x20 ADD JUMPDEST PUSH1 0x40 MLOAD DUP1 SWAP2 SUB SWAP1 RETURN JUMPDEST PUSH1 0x2 SLOAD JUMPDEST PUSH1 0x40 MLOAD SWAP1 DUP2 MSTORE PUSH1 0x20 ADD PUSH3 0xB6 JUMP JUMPDEST PUSH3 0xF8 PUSH3 0xE3 CALLDATASIZE PUSH1 0x4 PUSH3 0x4BB JUMP JUMPDEST PUSH1 0x0 PUSH1 0x20 DUP2 SWAP1 MSTORE SWAP1 DUP2 MSTORE PUSH1 0x40 SWAP1 KECCAK256 SLOAD PUSH1 0xFF AND DUP2 JUMP JUMPDEST PUSH1 0x40 MLOAD SWAP1 ISZERO ISZERO DUP2 MSTORE PUSH1 0x20 ADD PUSH3 0xB6 JUMP JUMPDEST PUSH3 0xA2 PUSH3 0x11A CALLDATASIZE PUSH1 0x4 PUSH3 0x4E0 JUMP JUMPDEST PUSH3 0x250 JUMP JUMPDEST PUSH3 0xC3 PUSH3 0x131 CALLDATASIZE PUSH1 0x4 PUSH3 0x4BB JUMP JUMPDEST PUSH1 0x1 PUSH1 0x1 PUSH1 0xA0 SHL SUB AND PUSH1 0x0 SWAP1 DUP2 MSTORE PUSH1 0x1 PUSH1 0x20 MSTORE PUSH1 0x40 SWAP1 KECCAK256 SLOAD SWAP1 JUMP JUMPDEST PUSH3 0xA2 PUSH3 0x15D CALLDATASIZE PUSH1 0x4 PUSH3 0x50D JUMP JUMPDEST PUSH3 0x289 JUMP JUMPDEST PUSH3 0x16D PUSH3 0x2B4 JUMP JUMPDEST PUSH1 0x40 MLOAD PUSH3 0xB6 SWAP2 SWAP1 PUSH3 0x56D JUMP JUMPDEST PUSH1 0x0 DUP1 DUP4 DUP4 PUSH1 0x40 MLOAD PUSH3 0x18F SWAP1 PUSH3 0x3A1 JUMP JUMPDEST PUSH3 0x19C SWAP3 SWAP2 SWAP1 PUSH3 0x582 JUMP JUMPDEST PUSH1 0x40 MLOAD DUP1 SWAP2 SUB SWAP1 PUSH1 0x0 CREATE DUP1 ISZERO DUP1 ISZERO PUSH3 0x1B9 JUMPI RETURNDATASIZE PUSH1 0x0 DUP1 RETURNDATACOPY RETURNDATASIZE PUSH1 0x0 REVERT JUMPDEST POP PUSH1 0x2 DUP1 SLOAD PUSH1 0x1 DUP2 ADD DUP3 SSTORE PUSH1 0x0 SWAP2 SWAP1 SWAP2 MSTORE PUSH32 0x405787FA12A823E0F2B7631CC41B3BA8828B3321CA811111FA75CD3AA3BB5ACE ADD DUP1 SLOAD PUSH1 0x1 PUSH1 0x1 PUSH1 0xA0 SHL SUB NOT AND PUSH1 0x1 PUSH1 0x1 PUSH1 0xA0 SHL SUB DUP4 AND OR SWAP1 SSTORE SWAP2 POP DUP2 SWAP1 POP PUSH3 0x215 DUP2 PUSH3 0x318 JUMP JUMPDEST PUSH1 0x40 MLOAD PUSH1 0x1 PUSH1 0x1 PUSH1 0xA0 SHL SUB DUP4 AND SWAP1 PUSH32 0xC0849E34BED2E01FE7BD516E505035BE04D3A11FD34EA9C1E0559FF3279A0F65 SWAP1 PUSH1 0x0 SWAP1 LOG2 POP SWAP3 SWAP2 POP POP JUMP JUMPDEST PUSH1 0x1 PUSH1 0x20 MSTORE DUP2 PUSH1 0x0 MSTORE PUSH1 0x40 PUSH1 0x0 KECCAK256 DUP2 DUP2 SLOAD DUP2 LT PUSH3 0x26D JUMPI PUSH1 0x0 DUP1 REVERT JUMPDEST PUSH1 0x0 SWAP2 DUP3 MSTORE PUSH1 0x20 SWAP1 SWAP2 KECCAK256 ADD SLOAD PUSH1 0x1 PUSH1 0x1 PUSH1 0xA0 SHL SUB AND SWAP2 POP DUP3 SWAP1 POP JUMP JUMPDEST PUSH1 0x2 DUP2 DUP2 SLOAD DUP2 LT PUSH3 0x29A JUMPI PUSH1 0x0 DUP1 REVERT JUMPDEST PUSH1 0x0 SWAP2 DUP3 MSTORE PUSH1 0x20 SWAP1 SWAP2 KECCAK256 ADD SLOAD PUSH1 0x1 PUSH1 0x1 PUSH1 0xA0 SHL SUB AND SWAP1 POP DUP2 JUMP JUMPDEST PUSH1 0x60 PUSH1 0x2 DUP1 SLOAD DUP1 PUSH1 0x20 MUL PUSH1 0x20 ADD PUSH1 0x40 MLOAD SWAP1 DUP2 ADD PUSH1 0x40 MSTORE DUP1 SWAP3 SWAP2 SWAP1 DUP2 DUP2 MSTORE PUSH1 0x20 ADD DUP3 DUP1 SLOAD DUP1 ISZERO PUSH3 0x30E JUMPI PUSH1 0x20 MUL DUP3 ADD SWAP2 SWAP1 PUSH1 0x0 MSTORE PUSH1 0x20 PUSH1 0x0 KECCAK256 SWAP1 JUMPDEST DUP2 SLOAD PUSH1 0x1 PUSH1 0x1 PUSH1 0xA0 SHL SUB AND DUP2 MSTORE PUSH1 0x1 SWAP1 SWAP2 ADD SWAP1 PUSH1 0x20 ADD DUP1 DUP4 GT PUSH3 0x2EF JUMPI JUMPDEST POP POP POP POP POP SWAP1 POP SWAP1 JUMP JUMPDEST PUSH1 0x1 PUSH1 0x1 PUSH1 0xA0 SHL SUB DUP2 AND PUSH1 0x0 DUP2 DUP2 MSTORE PUSH1 0x20 DUP2 DUP2 MSTORE PUSH1 0x40 DUP1 DUP4 KECCAK256 DUP1 SLOAD PUSH1 0xFF NOT AND PUSH1 0x1 SWAP1 DUP2 OR SWAP1 SWAP2 SSTORE CALLER DUP1 DUP6 MSTORE DUP2 DUP5 MSTORE DUP3 DUP6 KECCAK256 DUP1 SLOAD SWAP3 DUP4 ADD DUP2 SSTORE DUP6 MSTORE SWAP4 DUP4 SWAP1 KECCAK256 ADD DUP1 SLOAD PUSH1 0x1 PUSH1 0x1 PUSH1 0xA0 SHL SUB NOT AND DUP6 OR SWAP1 SSTORE DUP1 MLOAD SWAP3 DUP4 MSTORE SWAP1 DUP3 ADD SWAP3 SWAP1 SWAP3 MSTORE PUSH32 0x4FB057AD4A26ED17A57957FA69C306F11987596069B89521C511FC9A894E6161 SWAP2 ADD PUSH1 0x40 MLOAD DUP1 SWAP2 SUB SWAP1 LOG1 POP JUMP JUMPDEST PUSH2 0xCDA DUP1 PUSH3 0x5A7 DUP4 CODECOPY ADD SWAP1 JUMP JUMPDEST PUSH4 0x4E487B71 PUSH1 0xE0 SHL PUSH1 0x0 MSTORE PUSH1 0x41 PUSH1 0x4 MSTORE PUSH1 0x24 PUSH1 0x0 REVERT JUMPDEST DUP1 CALLDATALOAD PUSH1 0x1 PUSH1 0x1 PUSH1 0xA0 SHL SUB DUP2 AND DUP2 EQ PUSH3 0x3DD JUMPI PUSH1 0x0 DUP1 REVERT JUMPDEST SWAP2 SWAP1 POP JUMP JUMPDEST PUSH1 0x0 DUP1 PUSH1 0x40 DUP4 DUP6 SUB SLT ISZERO PUSH3 0x3F6 JUMPI PUSH1 0x0 DUP1 REVERT JUMPDEST DUP3 CALLDATALOAD PUSH8 0xFFFFFFFFFFFFFFFF DUP1 DUP3 GT ISZERO PUSH3 0x40F JUMPI PUSH1 0x0 DUP1 REVERT JUMPDEST DUP2 DUP6 ADD SWAP2 POP DUP6 PUSH1 0x1F DUP4 ADD SLT PUSH3 0x424 JUMPI PUSH1 0x0 DUP1 REVERT JUMPDEST DUP2 CALLDATALOAD PUSH1 0x20 DUP3 DUP3 GT ISZERO PUSH3 0x43B JUMPI PUSH3 0x43B PUSH3 0x3AF JUMP JUMPDEST DUP2 PUSH1 0x5 SHL PUSH1 0x40 MLOAD PUSH1 0x1F NOT PUSH1 0x3F DUP4 ADD AND DUP2 ADD DUP2 DUP2 LT DUP7 DUP3 GT OR ISZERO PUSH3 0x463 JUMPI PUSH3 0x463 PUSH3 0x3AF JUMP JUMPDEST PUSH1 0x40 MSTORE SWAP3 DUP4 MSTORE DUP2 DUP4 ADD SWAP4 POP DUP5 DUP2 ADD DUP3 ADD SWAP3 DUP10 DUP5 GT ISZERO PUSH3 0x482 JUMPI PUSH1 0x0 DUP1 REVERT JUMPDEST SWAP5 DUP3 ADD SWAP5 JUMPDEST DUP4 DUP7 LT ISZERO PUSH3 0x4AB JUMPI PUSH3 0x49B DUP7 PUSH3 0x3C5 JUMP JUMPDEST DUP6 MSTORE SWAP5 DUP3 ADD SWAP5 SWAP4 DUP3 ADD SWAP4 PUSH3 0x487 JUMP JUMPDEST SWAP10 SWAP8 SWAP1 SWAP2 ADD CALLDATALOAD SWAP8 POP POP POP POP POP POP POP JUMP JUMPDEST PUSH1 0x0 PUSH1 0x20 DUP3 DUP5 SUB SLT ISZERO PUSH3 0x4CE JUMPI PUSH1 0x0 DUP1 REVERT JUMPDEST PUSH3 0x4D9 DUP3 PUSH3 0x3C5 JUMP JUMPDEST SWAP4 SWAP3 POP POP POP JUMP JUMPDEST PUSH1 0x0 DUP1 PUSH1 0x40 DUP4 DUP6 SUB SLT ISZERO PUSH3 0x4F4 JUMPI PUSH1 0x0 DUP1 REVERT JUMPDEST PUSH3 0x4FF DUP4 PUSH3 0x3C5 JUMP JUMPDEST SWAP5 PUSH1 0x20 SWAP4 SWAP1 SWAP4 ADD CALLDATALOAD SWAP4 POP POP POP JUMP JUMPDEST PUSH1 0x0 PUSH1 0x20 DUP3 DUP5 SUB SLT ISZERO PUSH3 0x520 JUMPI PUSH1 0x0 DUP1 REVERT JUMPDEST POP CALLDATALOAD SWAP2 SWAP1 POP JUMP JUMPDEST PUSH1 0x0 DUP2 MLOAD DUP1 DUP5 MSTORE PUSH1 0x20 DUP1 DUP6 ADD SWAP5 POP DUP1 DUP5 ADD PUSH1 0x0 JUMPDEST DUP4 DUP2 LT ISZERO PUSH3 0x562 JUMPI DUP2 MLOAD PUSH1 0x1 PUSH1 0x1 PUSH1 0xA0 SHL SUB AND DUP8 MSTORE SWAP6 DUP3 ADD SWAP6 SWAP1 DUP3 ADD SWAP1 PUSH1 0x1 ADD PUSH3 0x53B JUMP JUMPDEST POP SWAP5 SWAP6 SWAP5 POP POP POP POP POP JUMP JUMPDEST PUSH1 0x20 DUP2 MSTORE PUSH1 0x0 PUSH3 0x4D9 PUSH1 0x20 DUP4 ADD DUP5 PUSH3 0x527 JUMP JUMPDEST PUSH1 0x40 DUP2 MSTORE PUSH1 0x0 PUSH3 0x597 PUSH1 0x40 DUP4 ADD DUP6 PUSH3 0x527 JUMP JUMPDEST SWAP1 POP DUP3 PUSH1 0x20 DUP4 ADD MSTORE SWAP4 SWAP3 POP POP POP JUMP INVALID PUSH1 0x80 PUSH1 0x40 MSTORE CALLVALUE DUP1 ISZERO PUSH3 0x11 JUMPI PUSH1 0x0 DUP1 REVERT JUMPDEST POP PUSH1 0x40 MLOAD PUSH3 0xCDA CODESIZE SUB DUP1 PUSH3 0xCDA DUP4 CODECOPY DUP2 ADD PUSH1 0x40 DUP2 SWAP1 MSTORE PUSH3 0x34 SWAP2 PUSH3 0x2E6 JUMP JUMPDEST DUP2 MLOAD DUP2 DUP2 DUP2 GT ISZERO DUP1 ISZERO PUSH3 0x47 JUMPI POP DUP1 ISZERO ISZERO JUMPDEST DUP1 ISZERO PUSH3 0x53 JUMPI POP DUP2 ISZERO ISZERO JUMPDEST PUSH3 0xA5 JUMPI PUSH1 0x40 MLOAD PUSH3 0x461BCD PUSH1 0xE5 SHL DUP2 MSTORE PUSH1 0x20 PUSH1 0x4 DUP3 ADD MSTORE PUSH1 0x16 PUSH1 0x24 DUP3 ADD MSTORE PUSH32 0x436F6E646974696F6E7320617265206E6F74206D657400000000000000000000 PUSH1 0x44 DUP3 ADD MSTORE PUSH1 0x64 ADD JUMPDEST PUSH1 0x40 MLOAD DUP1 SWAP2 SUB SWAP1 REVERT JUMPDEST PUSH1 0x0 JUMPDEST DUP5 MLOAD DUP2 LT ISZERO PUSH3 0x20F JUMPI PUSH1 0x0 DUP1 DUP7 DUP4 DUP2 MLOAD DUP2 LT PUSH3 0xCA JUMPI PUSH3 0xCA PUSH3 0x3C0 JUMP JUMPDEST PUSH1 0x20 SWAP1 DUP2 MUL SWAP2 SWAP1 SWAP2 ADD DUP2 ADD MLOAD PUSH1 0x1 PUSH1 0x1 PUSH1 0xA0 SHL SUB AND DUP3 MSTORE DUP2 ADD SWAP2 SWAP1 SWAP2 MSTORE PUSH1 0x40 ADD PUSH1 0x0 KECCAK256 SLOAD PUSH1 0xFF AND ISZERO DUP1 ISZERO PUSH3 0x12E JUMPI POP PUSH1 0x0 PUSH1 0x1 PUSH1 0x1 PUSH1 0xA0 SHL SUB AND DUP6 DUP3 DUP2 MLOAD DUP2 LT PUSH3 0x11A JUMPI PUSH3 0x11A PUSH3 0x3C0 JUMP JUMPDEST PUSH1 0x20 MUL PUSH1 0x20 ADD ADD MLOAD PUSH1 0x1 PUSH1 0x1 PUSH1 0xA0 SHL SUB AND EQ ISZERO JUMPDEST PUSH3 0x1AE JUMPI PUSH1 0x40 MLOAD PUSH3 0x461BCD PUSH1 0xE5 SHL DUP2 MSTORE PUSH1 0x20 PUSH1 0x4 DUP3 ADD MSTORE PUSH1 0x43 PUSH1 0x24 DUP3 ADD MSTORE PUSH32 0x416464726573732073686F756C646E277420626520616C7265616479206C6973 PUSH1 0x44 DUP3 ADD MSTORE PUSH32 0x746564206173206F776E65722C206E6F722073686F756C64206974206265204E PUSH1 0x64 DUP3 ADD MSTORE PUSH3 0x155313 PUSH1 0xEA SHL PUSH1 0x84 DUP3 ADD MSTORE PUSH1 0xA4 ADD PUSH3 0x9C JUMP JUMPDEST PUSH1 0x1 PUSH1 0x0 DUP1 DUP8 DUP5 DUP2 MLOAD DUP2 LT PUSH3 0x1C8 JUMPI PUSH3 0x1C8 PUSH3 0x3C0 JUMP JUMPDEST PUSH1 0x20 SWAP1 DUP2 MUL SWAP2 SWAP1 SWAP2 ADD DUP2 ADD MLOAD PUSH1 0x1 PUSH1 0x1 PUSH1 0xA0 SHL SUB AND DUP3 MSTORE DUP2 ADD SWAP2 SWAP1 SWAP2 MSTORE PUSH1 0x40 ADD PUSH1 0x0 KECCAK256 DUP1 SLOAD PUSH1 0xFF NOT AND SWAP2 ISZERO ISZERO SWAP2 SWAP1 SWAP2 OR SWAP1 SSTORE DUP1 PUSH3 0x206 DUP2 PUSH3 0x3D6 JUMP JUMPDEST SWAP2 POP POP PUSH3 0xA8 JUMP JUMPDEST POP DUP4 MLOAD PUSH3 0x225 SWAP1 PUSH1 0x1 SWAP1 PUSH1 0x20 DUP8 ADD SWAP1 PUSH3 0x232 JUMP JUMPDEST POP POP POP PUSH1 0x2 SSTORE POP PUSH3 0x3FE JUMP JUMPDEST DUP3 DUP1 SLOAD DUP3 DUP3 SSTORE SWAP1 PUSH1 0x0 MSTORE PUSH1 0x20 PUSH1 0x0 KECCAK256 SWAP1 DUP2 ADD SWAP3 DUP3 ISZERO PUSH3 0x28A JUMPI SWAP2 PUSH1 0x20 MUL DUP3 ADD JUMPDEST DUP3 DUP2 GT ISZERO PUSH3 0x28A JUMPI DUP3 MLOAD DUP3 SLOAD PUSH1 0x1 PUSH1 0x1 PUSH1 0xA0 SHL SUB NOT AND PUSH1 0x1 PUSH1 0x1 PUSH1 0xA0 SHL SUB SWAP1 SWAP2 AND OR DUP3 SSTORE PUSH1 0x20 SWAP1 SWAP3 ADD SWAP2 PUSH1 0x1 SWAP1 SWAP2 ADD SWAP1 PUSH3 0x253 JUMP JUMPDEST POP PUSH3 0x298 SWAP3 SWAP2 POP PUSH3 0x29C JUMP JUMPDEST POP SWAP1 JUMP JUMPDEST JUMPDEST DUP1 DUP3 GT ISZERO PUSH3 0x298 JUMPI PUSH1 0x0 DUP2 SSTORE PUSH1 0x1 ADD PUSH3 0x29D JUMP JUMPDEST PUSH4 0x4E487B71 PUSH1 0xE0 SHL PUSH1 0x0 MSTORE PUSH1 0x41 PUSH1 0x4 MSTORE PUSH1 0x24 PUSH1 0x0 REVERT JUMPDEST DUP1 MLOAD PUSH1 0x1 PUSH1 0x1 PUSH1 0xA0 SHL SUB DUP2 AND DUP2 EQ PUSH3 0x2E1 JUMPI PUSH1 0x0 DUP1 REVERT JUMPDEST SWAP2 SWAP1 POP JUMP JUMPDEST PUSH1 0x0 DUP1 PUSH1 0x40 DUP4 DUP6 SUB SLT ISZERO PUSH3 0x2FA JUMPI PUSH1 0x0 DUP1 REVERT JUMPDEST DUP3 MLOAD PUSH1 0x1 PUSH1 0x1 PUSH1 0x40 SHL SUB DUP1 DUP3 GT ISZERO PUSH3 0x312 JUMPI PUSH1 0x0 DUP1 REVERT JUMPDEST DUP2 DUP6 ADD SWAP2 POP DUP6 PUSH1 0x1F DUP4 ADD SLT PUSH3 0x327 JUMPI PUSH1 0x0 DUP1 REVERT JUMPDEST DUP2 MLOAD PUSH1 0x20 DUP3 DUP3 GT ISZERO PUSH3 0x33E JUMPI PUSH3 0x33E PUSH3 0x2B3 JUMP JUMPDEST DUP2 PUSH1 0x5 SHL PUSH1 0x40 MLOAD PUSH1 0x1F NOT PUSH1 0x3F DUP4 ADD AND DUP2 ADD DUP2 DUP2 LT DUP7 DUP3 GT OR ISZERO PUSH3 0x366 JUMPI PUSH3 0x366 PUSH3 0x2B3 JUMP JUMPDEST PUSH1 0x40 MSTORE SWAP3 DUP4 MSTORE DUP2 DUP4 ADD SWAP4 POP DUP5 DUP2 ADD DUP3 ADD SWAP3 DUP10 DUP5 GT ISZERO PUSH3 0x385 JUMPI PUSH1 0x0 DUP1 REVERT JUMPDEST SWAP5 DUP3 ADD SWAP5 JUMPDEST DUP4 DUP7 LT ISZERO PUSH3 0x3AE JUMPI PUSH3 0x39E DUP7 PUSH3 0x2C9 JUMP JUMPDEST DUP6 MSTORE SWAP5 DUP3 ADD SWAP5 SWAP4 DUP3 ADD SWAP4 PUSH3 0x38A JUMP JUMPDEST SWAP8 SWAP1 SWAP2 ADD MLOAD SWAP7 SWAP9 SWAP7 SWAP8 POP POP POP POP POP POP POP JUMP JUMPDEST PUSH4 0x4E487B71 PUSH1 0xE0 SHL PUSH1 0x0 MSTORE PUSH1 0x32 PUSH1 0x4 MSTORE PUSH1 0x24 PUSH1 0x0 REVERT JUMPDEST PUSH1 0x0 PUSH1 0x1 DUP3 ADD PUSH3 0x3F7 JUMPI PUSH4 0x4E487B71 PUSH1 0xE0 SHL PUSH1 0x0 MSTORE PUSH1 0x11 PUSH1 0x4 MSTORE PUSH1 0x24 PUSH1 0x0 REVERT JUMPDEST POP PUSH1 0x1 ADD SWAP1 JUMP JUMPDEST PUSH2 0x8CC DUP1 PUSH3 0x40E PUSH1 0x0 CODECOPY PUSH1 0x0 RETURN INVALID PUSH1 0x80 PUSH1 0x40 MSTORE CALLVALUE DUP1 ISZERO PUSH2 0x10 JUMPI PUSH1 0x0 DUP1 REVERT JUMPDEST POP PUSH1 0x4 CALLDATASIZE LT PUSH2 0x9E JUMPI PUSH1 0x0 CALLDATALOAD PUSH1 0xE0 SHR DUP1 PUSH4 0x8C85CD85 GT PUSH2 0x66 JUMPI DUP1 PUSH4 0x8C85CD85 EQ PUSH2 0x145 JUMPI DUP1 PUSH4 0xA0E67E2B EQ PUSH2 0x171 JUMPI DUP1 PUSH4 0xC26C12EB EQ PUSH2 0x186 JUMPI DUP1 PUSH4 0xD2CD96BD EQ PUSH2 0x18E JUMPI DUP1 PUSH4 0xEF18374A EQ PUSH2 0x1A1 JUMPI PUSH1 0x0 DUP1 REVERT JUMPDEST DUP1 PUSH4 0x25E7C27 EQ PUSH2 0xA3 JUMPI DUP1 PUSH4 0x1703A018 EQ PUSH2 0xD3 JUMPI DUP1 PUSH4 0x173825D9 EQ PUSH2 0xEA JUMPI DUP1 PUSH4 0x2F54BF6E EQ PUSH2 0xFF JUMPI DUP1 PUSH4 0x7065CB48 EQ PUSH2 0x132 JUMPI JUMPDEST PUSH1 0x0 DUP1 REVERT JUMPDEST PUSH2 0xB6 PUSH2 0xB1 CALLDATASIZE PUSH1 0x4 PUSH2 0x742 JUMP JUMPDEST PUSH2 0x1A9 JUMP JUMPDEST PUSH1 0x40 MLOAD PUSH1 0x1 PUSH1 0x1 PUSH1 0xA0 SHL SUB SWAP1 SWAP2 AND DUP2 MSTORE PUSH1 0x20 ADD JUMPDEST PUSH1 0x40 MLOAD DUP1 SWAP2 SUB SWAP1 RETURN JUMPDEST PUSH2 0xDC PUSH1 0x2 SLOAD DUP2 JUMP JUMPDEST PUSH1 0x40 MLOAD SWAP1 DUP2 MSTORE PUSH1 0x20 ADD PUSH2 0xCA JUMP JUMPDEST PUSH2 0xFD PUSH2 0xF8 CALLDATASIZE PUSH1 0x4 PUSH2 0x75B JUMP JUMPDEST PUSH2 0x1D3 JUMP JUMPDEST STOP JUMPDEST PUSH2 0x122 PUSH2 0x10D CALLDATASIZE PUSH1 0x4 PUSH2 0x75B JUMP JUMPDEST PUSH1 0x0 PUSH1 0x20 DUP2 SWAP1 MSTORE SWAP1 DUP2 MSTORE PUSH1 0x40 SWAP1 KECCAK256 SLOAD PUSH1 0xFF AND DUP2 JUMP JUMPDEST PUSH1 0x40 MLOAD SWAP1 ISZERO ISZERO DUP2 MSTORE PUSH1 0x20 ADD PUSH2 0xCA JUMP JUMPDEST PUSH2 0xFD PUSH2 0x140 CALLDATASIZE PUSH1 0x4 PUSH2 0x75B JUMP JUMPDEST PUSH2 0x42A JUMP JUMPDEST PUSH2 0x122 PUSH2 0x153 CALLDATASIZE PUSH1 0x4 PUSH2 0x75B JUMP JUMPDEST PUSH1 0x1 PUSH1 0x1 PUSH1 0xA0 SHL SUB AND PUSH1 0x0 SWAP1 DUP2 MSTORE PUSH1 0x20 DUP2 SWAP1 MSTORE PUSH1 0x40 SWAP1 KECCAK256 SLOAD PUSH1 0xFF AND SWAP1 JUMP JUMPDEST PUSH2 0x179 PUSH2 0x610 JUMP JUMPDEST PUSH1 0x40 MLOAD PUSH2 0xCA SWAP2 SWAP1 PUSH2 0x78B JUMP JUMPDEST PUSH1 0x2 SLOAD PUSH2 0xDC JUMP JUMPDEST PUSH2 0xFD PUSH2 0x19C CALLDATASIZE PUSH1 0x4 PUSH2 0x742 JUMP JUMPDEST PUSH2 0x672 JUMP JUMPDEST PUSH1 0x1 SLOAD PUSH2 0xDC JUMP JUMPDEST PUSH1 0x1 DUP2 DUP2 SLOAD DUP2 LT PUSH2 0x1B9 JUMPI PUSH1 0x0 DUP1 REVERT JUMPDEST PUSH1 0x0 SWAP2 DUP3 MSTORE PUSH1 0x20 SWAP1 SWAP2 KECCAK256 ADD SLOAD PUSH1 0x1 PUSH1 0x1 PUSH1 0xA0 SHL SUB AND SWAP1 POP DUP2 JUMP JUMPDEST CALLER PUSH1 0x0 DUP2 DUP2 MSTORE PUSH1 0x20 DUP2 SWAP1 MSTORE PUSH1 0x40 SWAP1 KECCAK256 SLOAD PUSH1 0xFF AND PUSH2 0x20B JUMPI PUSH1 0x40 MLOAD PUSH3 0x461BCD PUSH1 0xE5 SHL DUP2 MSTORE PUSH1 0x4 ADD PUSH2 0x202 SWAP1 PUSH2 0x7D8 JUMP JUMPDEST PUSH1 0x40 MLOAD DUP1 SWAP2 SUB SWAP1 REVERT JUMPDEST PUSH1 0x1 PUSH1 0x1 PUSH1 0xA0 SHL SUB DUP3 AND PUSH1 0x0 SWAP1 DUP2 MSTORE PUSH1 0x20 DUP2 SWAP1 MSTORE PUSH1 0x40 SWAP1 KECCAK256 SLOAD DUP3 SWAP1 PUSH1 0xFF AND PUSH2 0x245 JUMPI PUSH1 0x40 MLOAD PUSH3 0x461BCD PUSH1 0xE5 SHL DUP2 MSTORE PUSH1 0x4 ADD PUSH2 0x202 SWAP1 PUSH2 0x7D8 JUMP JUMPDEST PUSH1 0x1 DUP1 SLOAD GT PUSH2 0x296 JUMPI PUSH1 0x40 MLOAD PUSH3 0x461BCD PUSH1 0xE5 SHL DUP2 MSTORE PUSH1 0x20 PUSH1 0x4 DUP3 ADD MSTORE PUSH1 0x17 PUSH1 0x24 DUP3 ADD MSTORE PUSH32 0x43616E27742072656D6F7665206C617374206F776E6572000000000000000000 PUSH1 0x44 DUP3 ADD MSTORE PUSH1 0x64 ADD PUSH2 0x202 JUMP JUMPDEST PUSH1 0x1 DUP1 SLOAD PUSH2 0x2A4 SWAP2 SWAP1 PUSH2 0x825 JUMP JUMPDEST PUSH1 0x2 SLOAD GT ISZERO PUSH2 0x2BE JUMPI PUSH1 0x1 DUP1 SLOAD PUSH2 0x2BE SWAP2 PUSH2 0x19C SWAP2 PUSH2 0x825 JUMP JUMPDEST PUSH1 0x0 JUMPDEST PUSH1 0x1 DUP1 SLOAD PUSH2 0x2CF SWAP2 SWAP1 PUSH2 0x825 JUMP JUMPDEST DUP2 LT ISZERO PUSH2 0x39D JUMPI DUP4 PUSH1 0x1 PUSH1 0x1 PUSH1 0xA0 SHL SUB AND PUSH1 0x1 DUP3 DUP2 SLOAD DUP2 LT PUSH2 0x2F3 JUMPI PUSH2 0x2F3 PUSH2 0x83E JUMP JUMPDEST PUSH1 0x0 SWAP2 DUP3 MSTORE PUSH1 0x20 SWAP1 SWAP2 KECCAK256 ADD SLOAD PUSH1 0x1 PUSH1 0x1 PUSH1 0xA0 SHL SUB AND SUB PUSH2 0x38B JUMPI PUSH1 0x1 DUP1 SLOAD PUSH2 0x31C SWAP1 DUP3 SWAP1 PUSH2 0x825 JUMP JUMPDEST DUP2 SLOAD DUP2 LT PUSH2 0x32C JUMPI PUSH2 0x32C PUSH2 0x83E JUMP JUMPDEST PUSH1 0x0 SWAP2 DUP3 MSTORE PUSH1 0x20 SWAP1 SWAP2 KECCAK256 ADD SLOAD PUSH1 0x1 DUP1 SLOAD PUSH1 0x1 PUSH1 0x1 PUSH1 0xA0 SHL SUB SWAP1 SWAP3 AND SWAP2 DUP4 SWAP1 DUP2 LT PUSH2 0x358 JUMPI PUSH2 0x358 PUSH2 0x83E JUMP JUMPDEST SWAP1 PUSH1 0x0 MSTORE PUSH1 0x20 PUSH1 0x0 KECCAK256 ADD PUSH1 0x0 PUSH2 0x100 EXP DUP2 SLOAD DUP2 PUSH1 0x1 PUSH1 0x1 PUSH1 0xA0 SHL SUB MUL NOT AND SWAP1 DUP4 PUSH1 0x1 PUSH1 0x1 PUSH1 0xA0 SHL SUB AND MUL OR SWAP1 SSTORE POP PUSH2 0x39D JUMP JUMPDEST DUP1 PUSH2 0x395 DUP2 PUSH2 0x854 JUMP JUMPDEST SWAP2 POP POP PUSH2 0x2C1 JUMP JUMPDEST POP PUSH1 0x1 PUSH1 0x1 PUSH1 0xA0 SHL SUB DUP4 AND PUSH1 0x0 SWAP1 DUP2 MSTORE PUSH1 0x20 DUP2 SWAP1 MSTORE PUSH1 0x40 SWAP1 KECCAK256 DUP1 SLOAD PUSH1 0xFF NOT AND SWAP1 SSTORE PUSH1 0x1 DUP1 SLOAD DUP1 PUSH2 0x3CF JUMPI PUSH2 0x3CF PUSH2 0x86D JUMP JUMPDEST PUSH1 0x0 DUP3 DUP2 MSTORE PUSH1 0x20 DUP2 KECCAK256 DUP3 ADD PUSH1 0x0 NOT SWAP1 DUP2 ADD DUP1 SLOAD PUSH1 0x1 PUSH1 0x1 PUSH1 0xA0 SHL SUB NOT AND SWAP1 SSTORE SWAP1 SWAP2 ADD SWAP1 SWAP2 SSTORE PUSH1 0x40 MLOAD PUSH1 0x1 PUSH1 0x1 PUSH1 0xA0 SHL SUB DUP6 AND SWAP2 PUSH32 0x8001553A916EF2F495D26A907CC54D96ED840D7BDA71E73194BF5A9DF7A76B90 SWAP2 LOG2 POP POP POP JUMP JUMPDEST PUSH1 0x1 PUSH1 0x1 PUSH1 0xA0 SHL SUB DUP2 AND PUSH1 0x0 SWAP1 DUP2 MSTORE PUSH1 0x20 DUP2 SWAP1 MSTORE PUSH1 0x40 SWAP1 KECCAK256 SLOAD DUP2 SWAP1 PUSH1 0xFF AND ISZERO PUSH2 0x495 JUMPI PUSH1 0x40 MLOAD PUSH3 0x461BCD PUSH1 0xE5 SHL DUP2 MSTORE PUSH1 0x20 PUSH1 0x4 DUP3 ADD DUP2 SWAP1 MSTORE PUSH1 0x24 DUP3 ADD MSTORE PUSH32 0x54686973206164647265737320697320616C726561647920616E206F776E6572 PUSH1 0x44 DUP3 ADD MSTORE PUSH1 0x64 ADD PUSH2 0x202 JUMP JUMPDEST CALLER PUSH1 0x0 DUP2 DUP2 MSTORE PUSH1 0x20 DUP2 SWAP1 MSTORE PUSH1 0x40 SWAP1 KECCAK256 SLOAD PUSH1 0xFF AND PUSH2 0x4C4 JUMPI PUSH1 0x40 MLOAD PUSH3 0x461BCD PUSH1 0xE5 SHL DUP2 MSTORE PUSH1 0x4 ADD PUSH2 0x202 SWAP1 PUSH2 0x7D8 JUMP JUMPDEST DUP3 PUSH1 0x1 PUSH1 0x1 PUSH1 0xA0 SHL SUB DUP2 AND PUSH2 0x511 JUMPI PUSH1 0x40 MLOAD PUSH3 0x461BCD PUSH1 0xE5 SHL DUP2 MSTORE PUSH1 0x20 PUSH1 0x4 DUP3 ADD MSTORE PUSH1 0x13 PUSH1 0x24 DUP3 ADD MSTORE PUSH19 0x151A19481859191C995CDCC81A5CC81B9D5B1B PUSH1 0x6A SHL PUSH1 0x44 DUP3 ADD MSTORE PUSH1 0x64 ADD PUSH2 0x202 JUMP JUMPDEST PUSH1 0x1 DUP1 SLOAD PUSH2 0x51E SWAP2 PUSH2 0x883 JUMP JUMPDEST PUSH1 0x2 SLOAD DUP2 DUP2 GT ISZERO DUP1 ISZERO PUSH2 0x530 JUMPI POP DUP1 ISZERO ISZERO JUMPDEST DUP1 ISZERO PUSH2 0x53B JUMPI POP DUP2 ISZERO ISZERO JUMPDEST PUSH2 0x580 JUMPI PUSH1 0x40 MLOAD PUSH3 0x461BCD PUSH1 0xE5 SHL DUP2 MSTORE PUSH1 0x20 PUSH1 0x4 DUP3 ADD MSTORE PUSH1 0x16 PUSH1 0x24 DUP3 ADD MSTORE PUSH22 0x10DBDB991A5D1A5BDB9CC8185C99481B9BDD081B595D PUSH1 0x52 SHL PUSH1 0x44 DUP3 ADD MSTORE PUSH1 0x64 ADD PUSH2 0x202 JUMP JUMPDEST PUSH1 0x1 PUSH1 0x1 PUSH1 0xA0 SHL SUB DUP7 AND PUSH1 0x0 DUP2 DUP2 MSTORE PUSH1 0x20 DUP2 SWAP1 MSTORE PUSH1 0x40 DUP1 DUP3 KECCAK256 DUP1 SLOAD PUSH1 0xFF NOT AND PUSH1 0x1 SWAP1 DUP2 OR SWAP1 SWAP2 SSTORE DUP1 SLOAD DUP1 DUP3 ADD DUP3 SSTORE SWAP1 DUP4 MSTORE PUSH32 0xB10E2D527612073B26EECDFD717E6A320CF44B4AFAC2B0732D9FCBE2B7FA0CF6 ADD DUP1 SLOAD PUSH1 0x1 PUSH1 0x1 PUSH1 0xA0 SHL SUB NOT AND DUP5 OR SWAP1 SSTORE MLOAD PUSH32 0xF39E6E1EB0EDCF53C221607B54B00CD28F3196FED0A24994DC308B8F611B682D SWAP2 SWAP1 LOG2 POP POP POP POP POP POP JUMP JUMPDEST PUSH1 0x60 PUSH1 0x1 DUP1 SLOAD DUP1 PUSH1 0x20 MUL PUSH1 0x20 ADD PUSH1 0x40 MLOAD SWAP1 DUP2 ADD PUSH1 0x40 MSTORE DUP1 SWAP3 SWAP2 SWAP1 DUP2 DUP2 MSTORE PUSH1 0x20 ADD DUP3 DUP1 SLOAD DUP1 ISZERO PUSH2 0x668 JUMPI PUSH1 0x20 MUL DUP3 ADD SWAP2 SWAP1 PUSH1 0x0 MSTORE PUSH1 0x20 PUSH1 0x0 KECCAK256 SWAP1 JUMPDEST DUP2 SLOAD PUSH1 0x1 PUSH1 0x1 PUSH1 0xA0 SHL SUB AND DUP2 MSTORE PUSH1 0x1 SWAP1 SWAP2 ADD SWAP1 PUSH1 0x20 ADD DUP1 DUP4 GT PUSH2 0x64A JUMPI JUMPDEST POP POP POP POP POP SWAP1 POP SWAP1 JUMP JUMPDEST CALLER PUSH1 0x0 DUP2 DUP2 MSTORE PUSH1 0x20 DUP2 SWAP1 MSTORE PUSH1 0x40 SWAP1 KECCAK256 SLOAD PUSH1 0xFF AND PUSH2 0x6A1 JUMPI PUSH1 0x40 MLOAD PUSH3 0x461BCD PUSH1 0xE5 SHL DUP2 MSTORE PUSH1 0x4 ADD PUSH2 0x202 SWAP1 PUSH2 0x7D8 JUMP JUMPDEST PUSH1 0x1 SLOAD DUP3 DUP2 DUP2 GT DUP1 ISZERO SWAP1 PUSH2 0x6B4 JUMPI POP DUP1 ISZERO ISZERO JUMPDEST DUP1 ISZERO PUSH2 0x6BF JUMPI POP DUP2 ISZERO ISZERO JUMPDEST PUSH2 0x704 JUMPI PUSH1 0x40 MLOAD PUSH3 0x461BCD PUSH1 0xE5 SHL DUP2 MSTORE PUSH1 0x20 PUSH1 0x4 DUP3 ADD MSTORE PUSH1 0x16 PUSH1 0x24 DUP3 ADD MSTORE PUSH22 0x10DBDB991A5D1A5BDB9CC8185C99481B9BDD081B595D PUSH1 0x52 SHL PUSH1 0x44 DUP3 ADD MSTORE PUSH1 0x64 ADD PUSH2 0x202 JUMP JUMPDEST PUSH1 0x2 DUP5 SWAP1 SSTORE PUSH1 0x40 MLOAD DUP5 DUP2 MSTORE PUSH32 0x27863D12A407097E086A48E36475BFC859D0B200B7E6F65B5FD3B218E46632E SWAP1 PUSH1 0x20 ADD PUSH1 0x40 MLOAD DUP1 SWAP2 SUB SWAP1 LOG1 POP POP POP POP JUMP JUMPDEST PUSH1 0x0 PUSH1 0x20 DUP3 DUP5 SUB SLT ISZERO PUSH2 0x754 JUMPI PUSH1 0x0 DUP1 REVERT JUMPDEST POP CALLDATALOAD SWAP2 SWAP1 POP JUMP JUMPDEST PUSH1 0x0 PUSH1 0x20 DUP3 DUP5 SUB SLT ISZERO PUSH2 0x76D JUMPI PUSH1 0x0 DUP1 REVERT JUMPDEST DUP2 CALLDATALOAD PUSH1 0x1 PUSH1 0x1 PUSH1 0xA0 SHL SUB DUP2 AND DUP2 EQ PUSH2 0x784 JUMPI PUSH1 0x0 DUP1 REVERT JUMPDEST SWAP4 SWAP3 POP POP POP JUMP JUMPDEST PUSH1 0x20 DUP1 DUP3 MSTORE DUP3 MLOAD DUP3 DUP3 ADD DUP2 SWAP1 MSTORE PUSH1 0x0 SWAP2 SWAP1 DUP5 DUP3 ADD SWAP1 PUSH1 0x40 DUP6 ADD SWAP1 DUP5 JUMPDEST DUP2 DUP2 LT ISZERO PUSH2 0x7CC JUMPI DUP4 MLOAD PUSH1 0x1 PUSH1 0x1 PUSH1 0xA0 SHL SUB AND DUP4 MSTORE SWAP3 DUP5 ADD SWAP3 SWAP2 DUP5 ADD SWAP2 PUSH1 0x1 ADD PUSH2 0x7A7 JUMP JUMPDEST POP SWAP1 SWAP7 SWAP6 POP POP POP POP POP POP JUMP JUMPDEST PUSH1 0x20 DUP1 DUP3 MSTORE PUSH1 0x1C SWAP1 DUP3 ADD MSTORE PUSH32 0x546869732061646472657373206973206E6F7420616E206F776E657200000000 PUSH1 0x40 DUP3 ADD MSTORE PUSH1 0x60 ADD SWAP1 JUMP JUMPDEST PUSH4 0x4E487B71 PUSH1 0xE0 SHL PUSH1 0x0 MSTORE PUSH1 0x11 PUSH1 0x4 MSTORE PUSH1 0x24 PUSH1 0x0 REVERT JUMPDEST DUP2 DUP2 SUB DUP2 DUP2 GT ISZERO PUSH2 0x838 JUMPI PUSH2 0x838 PUSH2 0x80F JUMP JUMPDEST SWAP3 SWAP2 POP POP JUMP JUMPDEST PUSH4 0x4E487B71 PUSH1 0xE0 SHL PUSH1 0x0 MSTORE PUSH1 0x32 PUSH1 0x4 MSTORE PUSH1 0x24 PUSH1 0x0 REVERT JUMPDEST PUSH1 0x0 PUSH1 0x1 DUP3 ADD PUSH2 0x866 JUMPI PUSH2 0x866 PUSH2 0x80F JUMP JUMPDEST POP PUSH1 0x1 ADD SWAP1 JUMP JUMPDEST PUSH4 0x4E487B71 PUSH1 0xE0 SHL PUSH1 0x0 MSTORE PUSH1 0x31 PUSH1 0x4 MSTORE PUSH1 0x24 PUSH1 0x0 REVERT JUMPDEST DUP1 DUP3 ADD DUP1 DUP3 GT ISZERO PUSH2 0x838 JUMPI PUSH2 0x838 PUSH2 0x80F JUMP INVALID LOG2 PUSH5 0x6970667358 0x22 SLT KECCAK256 ADDRESS AND 0xD5 STATICCALL JUMPDEST 0x24 0xBC 0xB6 SWAP8 GASPRICE 0xBC LOG2 SLT 0xB6 PUSH8 0x383358E7F8B844D7 0xFB ADDMOD PUSH0 EXTCODESIZE 0xE6 0xE6 DIV CALLDATASIZE PUSH5 0x64736F6C63 NUMBER STOP ADDMOD EQ STOP CALLER LOG2 PUSH5 0x6970667358 0x22 SLT KECCAK256 0xBC SWAP11 0xA7 SWAP3 0xDC SLT SWAP3 PUSH11 0x98A5775C44738FDA0C3EC8 0x1E 0x22 PUSH26 0x650EE37D37FF43CA8AA764736F6C634300081400330000000000 "},"gasEstimates":{"creation":{"codeDepositCost":"958000","executionCost":"994","totalCost":"958994"},"external":{"createMultiSigAdministration(address[],uint256)":"infinite","getInstancesOfMultisigs()":"infinite","getInstantiationCount(address)":"2559","getNumberOfMultiSigs()":"2304","instantiations(address,uint256)":"4773","isInstantiated(address)":"2579","multiSigs(uint256)":"4647"}},"methodIdentifiers":{"createMultiSigAdministration(address[],uint256)":"0041dfdc","getInstancesOfMultisigs()":"e8500479","getInstantiationCount(address)":"8f838478","getNumberOfMultiSigs()":"10955ff4","instantiations(address,uint256)":"57183c82","isInstantiated(address)":"482af689","multiSigs(uint256)":"c67fdb94"}},"storageLayout":{"storage":[{"astId":974,"contract":"contracts/MultiSigFactory.sol:MultiSigFactory","label":"isInstantiated","offset":0,"slot":"0","type":"t_mapping(t_address,t_bool)"},{"astId":979,"contract":"contracts/MultiSigFactory.sol:MultiSigFactory","label":"instantiations","offset":0,"slot":"1","type":"t_mapping(t_address,t_array(t_address)dyn_storage)"},{"astId":1489,"contract":"contracts/MultiSigFactory.sol:MultiSigFactory","label":"multiSigs","offset":0,"slot":"2","type":"t_array(t_address)dyn_storage"}],"types":{"t_address":{"encoding":"inplace","label":"address","numberOfBytes":"20"},"t_array(t_address)dyn_storage":{"base":"t_address","encoding":"dynamic_array","label":"address[]","numberOfBytes":"32"},"t_bool":{"encoding":"inplace","label":"bool","numberOfBytes":"1"},"t_mapping(t_address,t_array(t_address)dyn_storage)":{"encoding":"mapping","key":"t_address","label":"mapping(address => address[])","numberOfBytes":"32","value":"t_array(t_address)dyn_storage"},"t_mapping(t_address,t_bool)":{"encoding":"mapping","key":"t_address","label":"mapping(address => bool)","numberOfBytes":"32","value":"t_bool"}}},"userdoc":{"kind":"user","methods":{},"notice":"This factory contract serves as a centralized point for creating and keeping track         of various multi-signature wallets or contracts.","version":1}}}}