{
  "_format": "hh-sol-artifact-1",
  "contractName": "ERC20",
  "sourceName": "contracts/ERC20.sol",
  "abi": [
    {
      "anonymous": false,
      "inputs": [
        {
          "indexed": true,
          "internalType": "address",
          "name": "owner",
          "type": "address"
        },
        {
          "indexed": true,
          "internalType": "address",
          "name": "spender",
          "type": "address"
        },
        {
          "indexed": false,
          "internalType": "uint256",
          "name": "amount",
          "type": "uint256"
        }
      ],
      "name": "Approved",
      "type": "event"
    },
    {
      "anonymous": false,
      "inputs": [
        {
          "indexed": true,
          "internalType": "address",
          "name": "from",
          "type": "address"
        },
        {
          "indexed": true,
          "internalType": "address",
          "name": "to",
          "type": "address"
        },
        {
          "indexed": false,
          "internalType": "uint256",
          "name": "amount",
          "type": "uint256"
        }
      ],
      "name": "Transfer",
      "type": "event"
    },
    {
      "inputs": [
        {
          "internalType": "address",
          "name": "owner",
          "type": "address"
        },
        {
          "internalType": "address",
          "name": "spender",
          "type": "address"
        }
      ],
      "name": "allowance",
      "outputs": [
        {
          "internalType": "uint256",
          "name": "",
          "type": "uint256"
        }
      ],
      "stateMutability": "view",
      "type": "function"
    },
    {
      "inputs": [
        {
          "internalType": "address",
          "name": "spender",
          "type": "address"
        },
        {
          "internalType": "uint256",
          "name": "value",
          "type": "uint256"
        }
      ],
      "name": "approve",
      "outputs": [
        {
          "internalType": "bool",
          "name": "",
          "type": "bool"
        }
      ],
      "stateMutability": "nonpayable",
      "type": "function"
    },
    {
      "inputs": [
        {
          "internalType": "address",
          "name": "owner",
          "type": "address"
        }
      ],
      "name": "balanceOf",
      "outputs": [
        {
          "internalType": "uint256",
          "name": "",
          "type": "uint256"
        }
      ],
      "stateMutability": "view",
      "type": "function"
    },
    {
      "inputs": [
        {
          "internalType": "address",
          "name": "spender",
          "type": "address"
        },
        {
          "internalType": "uint256",
          "name": "subtractedValue",
          "type": "uint256"
        }
      ],
      "name": "decreaseAllowance",
      "outputs": [
        {
          "internalType": "bool",
          "name": "",
          "type": "bool"
        }
      ],
      "stateMutability": "nonpayable",
      "type": "function"
    },
    {
      "inputs": [
        {
          "internalType": "address",
          "name": "spender",
          "type": "address"
        },
        {
          "internalType": "uint256",
          "name": "addedValue",
          "type": "uint256"
        }
      ],
      "name": "increaseAllowance",
      "outputs": [
        {
          "internalType": "bool",
          "name": "",
          "type": "bool"
        }
      ],
      "stateMutability": "nonpayable",
      "type": "function"
    },
    {
      "inputs": [],
      "name": "totalSupply",
      "outputs": [
        {
          "internalType": "uint256",
          "name": "",
          "type": "uint256"
        }
      ],
      "stateMutability": "view",
      "type": "function"
    },
    {
      "inputs": [
        {
          "internalType": "address",
          "name": "to",
          "type": "address"
        },
        {
          "internalType": "uint256",
          "name": "value",
          "type": "uint256"
        }
      ],
      "name": "transfer",
      "outputs": [
        {
          "internalType": "bool",
          "name": "",
          "type": "bool"
        }
      ],
      "stateMutability": "nonpayable",
      "type": "function"
    },
    {
      "inputs": [
        {
          "internalType": "address",
          "name": "from",
          "type": "address"
        },
        {
          "internalType": "address",
          "name": "to",
          "type": "address"
        },
        {
          "internalType": "uint256",
          "name": "value",
          "type": "uint256"
        }
      ],
      "name": "transferFrom",
      "outputs": [
        {
          "internalType": "bool",
          "name": "",
          "type": "bool"
        }
      ],
      "stateMutability": "nonpayable",
      "type": "function"
    }
  ],
  "bytecode": "0x608060405234801561001057600080fd5b506105e2806100206000396000f3fe608060405234801561001057600080fd5b50600436106100885760003560e01c806370a082311161005b57806370a08231146100ed578063a457c2d714610116578063a9059cbb14610129578063dd62ed3e1461013c57600080fd5b8063095ea7b31461008d57806318160ddd146100b557806323b872dd146100c757806339509351146100da575b600080fd5b6100a061009b3660046104bc565b610173565b60405190151581526020015b60405180910390f35b6002545b6040519081526020016100ac565b6100a06100d53660046104e6565b6101ec565b6100a06100e83660046104bc565b6102a7565b6100b96100fb366004610522565b6001600160a01b031660009081526001602052604090205490565b6100a06101243660046104bc565b61033d565b6100a06101373660046104bc565b61037e565b6100b961014a36600461053d565b6001600160a01b0391821660009081526020818152604080832093909416825291909152205490565b60006001600160a01b03831661018857600080fd5b336000818152602081815260408083206001600160a01b03881680855290835292819020869055518581529192917f80da462ebfbe41cfc9bc015e7a9a3c7a2a73dbccede72d8ceb583606c27f8f9091015b60405180910390a35060015b92915050565b6001600160a01b0383166000908152602081815260408083203384529091528120546102189083610394565b6001600160a01b0385166000908152602081815260408083203384529091529020556102458484846103b7565b6001600160a01b03841660008181526020818152604080832033808552908352928190205490519081529192917f80da462ebfbe41cfc9bc015e7a9a3c7a2a73dbccede72d8ceb583606c27f8f90910160405180910390a35060019392505050565b60006001600160a01b0383166102bc57600080fd5b336000908152602081815260408083206001600160a01b03871684529091529020546102e8908361047d565b336000818152602081815260408083206001600160a01b038916808552908352928190208590555193845290927f80da462ebfbe41cfc9bc015e7a9a3c7a2a73dbccede72d8ceb583606c27f8f9091016101da565b60006001600160a01b03831661035257600080fd5b336000908152602081815260408083206001600160a01b03871684529091529020546102e89083610394565b600061038b3384846103b7565b50600192915050565b6000828211156103a357600080fd5b60006103af8385610586565b949350505050565b6001600160a01b0382166103ca57600080fd5b6001600160a01b0383166000908152600160205260409020546103ed9082610394565b6001600160a01b03808516600090815260016020526040808220939093559084168152205461041c908261047d565b6001600160a01b0380841660008181526001602052604090819020939093559151908516907fddf252ad1be2c89b69c2b068fc378daa952ba7f163c4a11628f55a4df523b3ef906104709085815260200190565b60405180910390a3505050565b60008061048a8385610599565b90508381101561049957600080fd5b9392505050565b80356001600160a01b03811681146104b757600080fd5b919050565b600080604083850312156104cf57600080fd5b6104d8836104a0565b946020939093013593505050565b6000806000606084860312156104fb57600080fd5b610504846104a0565b9250610512602085016104a0565b9150604084013590509250925092565b60006020828403121561053457600080fd5b610499826104a0565b6000806040838503121561055057600080fd5b610559836104a0565b9150610567602084016104a0565b90509250929050565b634e487b7160e01b600052601160045260246000fd5b818103818111156101e6576101e6610570565b808201808211156101e6576101e661057056fea26469706673582212209e95b0d05733a812a289e8bb88c415764734563d1c2f9830601a6307944f5b8e64736f6c63430008140033",
  "linkReferences": {},
  "deployedLinkReferences": {}
}