{
  "_format": "hh-sol-artifact-1",
  "contractName": "MultiSigMaster",
  "sourceName": "contracts/MultiSigMaster.sol",
  "abi": [
    {
      "inputs": [
        {
          "internalType": "address",
          "name": "master",
          "type": "address"
        },
        {
          "internalType": "address[]",
          "name": "_owners",
          "type": "address[]"
        },
        {
          "internalType": "uint256",
          "name": "_quorum",
          "type": "uint256"
        }
      ],
      "stateMutability": "nonpayable",
      "type": "constructor"
    },
    {
      "anonymous": false,
      "inputs": [
        {
          "indexed": true,
          "internalType": "address",
          "name": "sender",
          "type": "address"
        },
        {
          "indexed": false,
          "internalType": "uint256",
          "name": "transactionId",
          "type": "uint256"
        }
      ],
      "name": "Confirmation",
      "type": "event"
    },
    {
      "anonymous": false,
      "inputs": [
        {
          "indexed": true,
          "internalType": "address",
          "name": "sender",
          "type": "address"
        },
        {
          "indexed": false,
          "internalType": "uint256",
          "name": "amount",
          "type": "uint256"
        }
      ],
      "name": "Deposit",
      "type": "event"
    },
    {
      "anonymous": false,
      "inputs": [
        {
          "indexed": false,
          "internalType": "uint256",
          "name": "amount",
          "type": "uint256"
        },
        {
          "indexed": false,
          "internalType": "uint256",
          "name": "transactionId",
          "type": "uint256"
        }
      ],
      "name": "ExecutionERC20",
      "type": "event"
    },
    {
      "anonymous": false,
      "inputs": [
        {
          "indexed": false,
          "internalType": "uint256",
          "name": "amount",
          "type": "uint256"
        },
        {
          "indexed": false,
          "internalType": "uint256",
          "name": "transactionId",
          "type": "uint256"
        }
      ],
      "name": "ExecutionNative",
      "type": "event"
    },
    {
      "anonymous": false,
      "inputs": [
        {
          "indexed": true,
          "internalType": "address",
          "name": "master",
          "type": "address"
        }
      ],
      "name": "MasterChanged",
      "type": "event"
    },
    {
      "anonymous": false,
      "inputs": [
        {
          "indexed": true,
          "internalType": "address",
          "name": "owner",
          "type": "address"
        }
      ],
      "name": "OwnerAddition",
      "type": "event"
    },
    {
      "anonymous": false,
      "inputs": [
        {
          "indexed": true,
          "internalType": "address",
          "name": "owner",
          "type": "address"
        }
      ],
      "name": "OwnerRemoval",
      "type": "event"
    },
    {
      "anonymous": false,
      "inputs": [
        {
          "indexed": false,
          "internalType": "uint256",
          "name": "quorum",
          "type": "uint256"
        }
      ],
      "name": "QuorumChanged",
      "type": "event"
    },
    {
      "anonymous": false,
      "inputs": [
        {
          "indexed": true,
          "internalType": "address",
          "name": "sender",
          "type": "address"
        },
        {
          "indexed": false,
          "internalType": "uint256",
          "name": "transactionId",
          "type": "uint256"
        }
      ],
      "name": "Revocation",
      "type": "event"
    },
    {
      "anonymous": false,
      "inputs": [
        {
          "indexed": true,
          "internalType": "address",
          "name": "destination",
          "type": "address"
        },
        {
          "indexed": false,
          "internalType": "uint256",
          "name": "transactionId",
          "type": "uint256"
        }
      ],
      "name": "Submission",
      "type": "event"
    },
    {
      "anonymous": false,
      "inputs": [
        {
          "indexed": true,
          "internalType": "address",
          "name": "receiver",
          "type": "address"
        },
        {
          "indexed": false,
          "internalType": "uint256",
          "name": "amount",
          "type": "uint256"
        }
      ],
      "name": "Withdraw",
      "type": "event"
    },
    {
      "stateMutability": "payable",
      "type": "fallback"
    },
    {
      "inputs": [
        {
          "internalType": "address",
          "name": "owner",
          "type": "address"
        }
      ],
      "name": "addOwner",
      "outputs": [],
      "stateMutability": "nonpayable",
      "type": "function"
    },
    {
      "inputs": [
        {
          "internalType": "address",
          "name": "newMaster",
          "type": "address"
        }
      ],
      "name": "changeMaster",
      "outputs": [],
      "stateMutability": "nonpayable",
      "type": "function"
    },
    {
      "inputs": [
        {
          "internalType": "uint256",
          "name": "newQuorum",
          "type": "uint256"
        }
      ],
      "name": "changeQuorum",
      "outputs": [],
      "stateMutability": "nonpayable",
      "type": "function"
    },
    {
      "inputs": [
        {
          "internalType": "uint256",
          "name": "transactionId",
          "type": "uint256"
        }
      ],
      "name": "confirmTransaction",
      "outputs": [],
      "stateMutability": "nonpayable",
      "type": "function"
    },
    {
      "inputs": [
        {
          "internalType": "bytes32",
          "name": "",
          "type": "bytes32"
        },
        {
          "internalType": "address",
          "name": "",
          "type": "address"
        }
      ],
      "name": "confirmations",
      "outputs": [
        {
          "internalType": "uint256",
          "name": "",
          "type": "uint256"
        }
      ],
      "stateMutability": "view",
      "type": "function"
    },
    {
      "inputs": [],
      "name": "deposit",
      "outputs": [],
      "stateMutability": "payable",
      "type": "function"
    },
    {
      "inputs": [
        {
          "internalType": "uint256",
          "name": "transactionId",
          "type": "uint256"
        }
      ],
      "name": "executeTransaction",
      "outputs": [],
      "stateMutability": "nonpayable",
      "type": "function"
    },
    {
      "inputs": [],
      "name": "getBalance",
      "outputs": [
        {
          "internalType": "uint256",
          "name": "",
          "type": "uint256"
        }
      ],
      "stateMutability": "view",
      "type": "function"
    },
    {
      "inputs": [
        {
          "internalType": "uint256",
          "name": "transactionId",
          "type": "uint256"
        }
      ],
      "name": "getConfirmationCount",
      "outputs": [
        {
          "internalType": "uint256",
          "name": "count",
          "type": "uint256"
        }
      ],
      "stateMutability": "nonpayable",
      "type": "function"
    },
    {
      "inputs": [
        {
          "internalType": "uint256",
          "name": "transactionId",
          "type": "uint256"
        }
      ],
      "name": "getConfirmations",
      "outputs": [
        {
          "internalType": "address[]",
          "name": "_confirmations",
          "type": "address[]"
        }
      ],
      "stateMutability": "nonpayable",
      "type": "function"
    },
    {
      "inputs": [],
      "name": "getMaster",
      "outputs": [
        {
          "internalType": "address",
          "name": "res",
          "type": "address"
        }
      ],
      "stateMutability": "view",
      "type": "function"
    },
    {
      "inputs": [],
      "name": "getOwnerCount",
      "outputs": [
        {
          "internalType": "uint256",
          "name": "res",
          "type": "uint256"
        }
      ],
      "stateMutability": "view",
      "type": "function"
    },
    {
      "inputs": [],
      "name": "getOwners",
      "outputs": [
        {
          "internalType": "address[]",
          "name": "",
          "type": "address[]"
        }
      ],
      "stateMutability": "view",
      "type": "function"
    },
    {
      "inputs": [],
      "name": "getQuorum",
      "outputs": [
        {
          "internalType": "uint256",
          "name": "res",
          "type": "uint256"
        }
      ],
      "stateMutability": "view",
      "type": "function"
    },
    {
      "inputs": [
        {
          "internalType": "uint256",
          "name": "transactionId",
          "type": "uint256"
        }
      ],
      "name": "getRevocationCount",
      "outputs": [
        {
          "internalType": "uint256",
          "name": "count",
          "type": "uint256"
        }
      ],
      "stateMutability": "nonpayable",
      "type": "function"
    },
    {
      "inputs": [
        {
          "internalType": "uint256",
          "name": "transactionId",
          "type": "uint256"
        }
      ],
      "name": "getRevocations",
      "outputs": [
        {
          "internalType": "address[]",
          "name": "_confirmations",
          "type": "address[]"
        }
      ],
      "stateMutability": "nonpayable",
      "type": "function"
    },
    {
      "inputs": [],
      "name": "getTokenBalance",
      "outputs": [
        {
          "internalType": "uint256",
          "name": "bal",
          "type": "uint256"
        }
      ],
      "stateMutability": "view",
      "type": "function"
    },
    {
      "inputs": [],
      "name": "getTransactionCount",
      "outputs": [
        {
          "internalType": "uint256",
          "name": "count",
          "type": "uint256"
        }
      ],
      "stateMutability": "view",
      "type": "function"
    },
    {
      "inputs": [
        {
          "internalType": "uint256",
          "name": "transactionId",
          "type": "uint256"
        },
        {
          "internalType": "address",
          "name": "owner",
          "type": "address"
        }
      ],
      "name": "getUserConfirmationStatus",
      "outputs": [
        {
          "internalType": "bool",
          "name": "",
          "type": "bool"
        }
      ],
      "stateMutability": "nonpayable",
      "type": "function"
    },
    {
      "inputs": [],
      "name": "hashId",
      "outputs": [
        {
          "internalType": "bytes32",
          "name": "",
          "type": "bytes32"
        }
      ],
      "stateMutability": "view",
      "type": "function"
    },
    {
      "inputs": [
        {
          "internalType": "uint256",
          "name": "",
          "type": "uint256"
        }
      ],
      "name": "hashesId",
      "outputs": [
        {
          "internalType": "bytes32",
          "name": "",
          "type": "bytes32"
        }
      ],
      "stateMutability": "view",
      "type": "function"
    },
    {
      "inputs": [
        {
          "internalType": "uint256",
          "name": "",
          "type": "uint256"
        }
      ],
      "name": "idToHashes",
      "outputs": [
        {
          "internalType": "bytes32",
          "name": "",
          "type": "bytes32"
        }
      ],
      "stateMutability": "view",
      "type": "function"
    },
    {
      "inputs": [
        {
          "internalType": "uint256",
          "name": "transactionId",
          "type": "uint256"
        }
      ],
      "name": "isConfirmed",
      "outputs": [
        {
          "internalType": "bool",
          "name": "res",
          "type": "bool"
        }
      ],
      "stateMutability": "nonpayable",
      "type": "function"
    },
    {
      "inputs": [
        {
          "internalType": "address",
          "name": "",
          "type": "address"
        }
      ],
      "name": "isOwner",
      "outputs": [
        {
          "internalType": "bool",
          "name": "",
          "type": "bool"
        }
      ],
      "stateMutability": "view",
      "type": "function"
    },
    {
      "inputs": [
        {
          "internalType": "uint256",
          "name": "transactionId",
          "type": "uint256"
        }
      ],
      "name": "isRevoked",
      "outputs": [
        {
          "internalType": "bool",
          "name": "res",
          "type": "bool"
        }
      ],
      "stateMutability": "nonpayable",
      "type": "function"
    },
    {
      "inputs": [
        {
          "internalType": "uint256",
          "name": "",
          "type": "uint256"
        }
      ],
      "name": "owners",
      "outputs": [
        {
          "internalType": "address",
          "name": "",
          "type": "address"
        }
      ],
      "stateMutability": "view",
      "type": "function"
    },
    {
      "inputs": [],
      "name": "quorum",
      "outputs": [
        {
          "internalType": "uint256",
          "name": "",
          "type": "uint256"
        }
      ],
      "stateMutability": "view",
      "type": "function"
    },
    {
      "inputs": [
        {
          "internalType": "address",
          "name": "owner",
          "type": "address"
        }
      ],
      "name": "removeOwner",
      "outputs": [],
      "stateMutability": "nonpayable",
      "type": "function"
    },
    {
      "inputs": [
        {
          "internalType": "uint256",
          "name": "transactionId",
          "type": "uint256"
        }
      ],
      "name": "revokeTransaction",
      "outputs": [],
      "stateMutability": "nonpayable",
      "type": "function"
    },
    {
      "inputs": [
        {
          "internalType": "address",
          "name": "tokenContractAddress",
          "type": "address"
        }
      ],
      "name": "setTokenContractAddress",
      "outputs": [],
      "stateMutability": "nonpayable",
      "type": "function"
    },
    {
      "inputs": [
        {
          "internalType": "address",
          "name": "destination",
          "type": "address"
        },
        {
          "internalType": "uint256",
          "name": "value",
          "type": "uint256"
        },
        {
          "internalType": "enum MultiSigTransaction.TransactionType",
          "name": "transactionType",
          "type": "uint8"
        }
      ],
      "name": "submitTransaction",
      "outputs": [
        {
          "internalType": "uint256",
          "name": "transactionId",
          "type": "uint256"
        }
      ],
      "stateMutability": "nonpayable",
      "type": "function"
    },
    {
      "inputs": [],
      "name": "transactionCount",
      "outputs": [
        {
          "internalType": "uint256",
          "name": "",
          "type": "uint256"
        }
      ],
      "stateMutability": "view",
      "type": "function"
    },
    {
      "inputs": [
        {
          "internalType": "bytes32",
          "name": "",
          "type": "bytes32"
        }
      ],
      "name": "transactions",
      "outputs": [
        {
          "internalType": "address",
          "name": "destination",
          "type": "address"
        },
        {
          "internalType": "address",
          "name": "submitterAddress",
          "type": "address"
        },
        {
          "internalType": "uint256",
          "name": "value",
          "type": "uint256"
        },
        {
          "internalType": "enum MultiSigTransaction.TransactionType",
          "name": "transactionType",
          "type": "uint8"
        },
        {
          "internalType": "bool",
          "name": "executed",
          "type": "bool"
        }
      ],
      "stateMutability": "view",
      "type": "function"
    },
    {
      "inputs": [
        {
          "internalType": "address",
          "name": "addressToVerify",
          "type": "address"
        }
      ],
      "name": "verifyOwner",
      "outputs": [
        {
          "internalType": "bool",
          "name": "res",
          "type": "bool"
        }
      ],
      "stateMutability": "view",
      "type": "function"
    },
    {
      "inputs": [
        {
          "internalType": "address",
          "name": "to",
          "type": "address"
        },
        {
          "internalType": "uint256",
          "name": "amount",
          "type": "uint256"
        }
      ],
      "name": "withdraw",
      "outputs": [
        {
          "internalType": "bool",
          "name": "",
          "type": "bool"
        }
      ],
      "stateMutability": "nonpayable",
      "type": "function"
    },
    {
      "stateMutability": "payable",
      "type": "receive"
    }
  ],
  "bytecode": "0x60806040523480156200001157600080fd5b5060405162002da538038062002da5833981016040819052620000349162000314565b818181818151818181111580156200004b57508015155b80156200005757508115155b620000a95760405162461bcd60e51b815260206004820152601660248201527f436f6e646974696f6e7320617265206e6f74206d65740000000000000000000060448201526064015b60405180910390fd5b60005b84518110156200021357600080868381518110620000ce57620000ce62000406565b6020908102919091018101516001600160a01b031682528101919091526040016000205460ff1615801562000132575060006001600160a01b03168582815181106200011e576200011e62000406565b60200260200101516001600160a01b031614155b620001b25760405162461bcd60e51b815260206004820152604360248201527f416464726573732073686f756c646e277420626520616c7265616479206c697360448201527f746564206173206f776e65722c206e6f722073686f756c64206974206265204e60648201526215531360ea1b608482015260a401620000a0565b6001600080878481518110620001cc57620001cc62000406565b6020908102919091018101516001600160a01b03168252810191909152604001600020805460ff1916911515919091179055806200020a816200041c565b915050620000ac565b5083516200022990600190602087019062000260565b505050600255505060006005555050600a80546001600160a01b0319166001600160a01b0393909316929092179091555062000444565b828054828255906000526020600020908101928215620002b8579160200282015b82811115620002b857825182546001600160a01b0319166001600160a01b0390911617825560209092019160019091019062000281565b50620002c6929150620002ca565b5090565b5b80821115620002c65760008155600101620002cb565b80516001600160a01b0381168114620002f957600080fd5b919050565b634e487b7160e01b600052604160045260246000fd5b6000806000606084860312156200032a57600080fd5b6200033584620002e1565b602085810151919450906001600160401b03808211156200035557600080fd5b818701915087601f8301126200036a57600080fd5b8151818111156200037f576200037f620002fe565b8060051b604051601f19603f83011681018181108582111715620003a757620003a7620002fe565b60405291825284820192508381018501918a831115620003c657600080fd5b938501935b82851015620003ef57620003df85620002e1565b84529385019392850192620003cb565b809750505050505050604084015190509250925092565b634e487b7160e01b600052603260045260246000fd5b6000600182016200043d57634e487b7160e01b600052601160045260246000fd5b5060010190565b61295180620004546000396000f3fe6080604052600436106102085760003560e01c80638b51d13f11610118578063c59bcee8116100a0578063ee22610b1161006f578063ee22610b14610634578063ef18374a14610654578063f3fef3a314610669578063f4ff78bf14610689578063f6bdc030146106a957610217565b8063c59bcee8146105de578063c85c41e9146105f4578063d0e30db014610217578063d2cd96bd1461061457610217565b8063b23d4854116100e7578063b23d485414610553578063b5dc40c314610573578063b77bf60014610593578063c01a8c84146105a9578063c26c12eb146105c957610217565b80638b51d13f146104b85780638c85cd85146104d8578063a0e67e2b14610511578063af05445a1461053357610217565b80632f54bf6e1161019b578063642f2eaf1161016a578063642f2eaf146103d75780637065cb4814610443578063735631ad14610463578063784547a71461048357806382b2e257146104a357610217565b80632f54bf6e146103525780633c680462146103825780635a99719e146103a25780635ccc561e146103b757610217565b80631703a018116101d75780631703a018146102e7578063173825d9146102fd57806329cd11b21461031d5780632e7700f01461033d57610217565b8063025e7c271461021f5780630c4ecab41461025c57806312065fe0146102a2578063144dee38146102b757610217565b36610217576102156106d6565b005b6102156106d6565b34801561022b57600080fd5b5061023f61023a366004612518565b610714565b6040516001600160a01b0390911681526020015b60405180910390f35b34801561026857600080fd5b5061029461027736600461254d565b600660209081526000928352604080842090915290825290205481565b604051908152602001610253565b3480156102ae57600080fd5b5061029461073e565b3480156102c357600080fd5b506102d76102d236600461254d565b61077d565b6040519015158152602001610253565b3480156102f357600080fd5b5061029460025481565b34801561030957600080fd5b50610215610318366004612579565b610846565b34801561032957600080fd5b50610294610338366004612518565b610a94565b34801561034957600080fd5b50600554610294565b34801561035e57600080fd5b506102d761036d366004612579565b60006020819052908152604090205460ff1681565b34801561038e57600080fd5b5061029461039d36600461259b565b610ab5565b3480156103ae57600080fd5b5061023f610bc7565b3480156103c357600080fd5b506102d76103d2366004612518565b610c07565b3480156103e357600080fd5b506104326103f2366004612518565b60046020526000908152604090208054600182015460028301546003909301546001600160a01b0392831693919092169160ff8082169161010090041685565b6040516102539594939291906125f5565b34801561044f57600080fd5b5061021561045e366004612579565b610d29565b34801561046f57600080fd5b5061021561047e366004612518565b610f0f565b34801561048f57600080fd5b506102d761049e366004612518565b61102c565b3480156104af57600080fd5b50610294611147565b3480156104c457600080fd5b506102946104d3366004612518565b6111bf565b3480156104e457600080fd5b506102d76104f3366004612579565b6001600160a01b031660009081526020819052604090205460ff1690565b34801561051d57600080fd5b506105266112ca565b604051610253919061264a565b34801561053f57600080fd5b5061052661054e366004612518565b61132c565b34801561055f57600080fd5b5061021561056e366004612579565b61158f565b34801561057f57600080fd5b5061052661058e366004612518565b6115e1565b34801561059f57600080fd5b5061029460055481565b3480156105b557600080fd5b506102156105c4366004612518565b61183c565b3480156105d557600080fd5b50600254610294565b3480156105ea57600080fd5b5061029460095481565b34801561060057600080fd5b5061029461060f366004612518565b61194f565b34801561062057600080fd5b5061021561062f366004612518565b611a54565b34801561064057600080fd5b5061021561064f366004612518565b611b24565b34801561066057600080fd5b50600154610294565b34801561067557600080fd5b506102d7610684366004612697565b611e2b565b34801561069557600080fd5b506102156106a4366004612579565b611f4b565b3480156106b557600080fd5b506102946106c4366004612518565b60076020526000908152604090205481565b34156107125760405134815233907fe1fffcc4923d04b559f4d29a8bfc6cda04eb5b0d3c460751c2402c5c5cc9109c9060200160405180910390a25b565b6001818154811061072457600080fd5b6000918252602090912001546001600160a01b0316905081565b600a5460009033906001600160a01b031681146107765760405162461bcd60e51b815260040161076d906126c1565b60405180910390fd5b4791505090565b600082815260076020908152604080832054600955600880548251818502810185019093528083526107e5938301828280156107d857602002820191906000526020600020905b8154815260200190600101908083116107c4575b5050505050600954611fc2565b6108015760405162461bcd60e51b815260040161076d9061270c565b60095460009081526006602090815260408083206001600160a01b0386168452909152902054600181900361083a576001915050610840565b60009150505b92915050565b3360008181526020819052604090205460ff166108755760405162461bcd60e51b815260040161076d90612758565b6001600160a01b038216600090815260208190526040902054829060ff166108af5760405162461bcd60e51b815260040161076d90612758565b60018054116109005760405162461bcd60e51b815260206004820152601760248201527f43616e27742072656d6f7665206c617374206f776e6572000000000000000000604482015260640161076d565b6001805461090e91906127a5565b600254111561092857600180546109289161062f916127a5565b60005b6001805461093991906127a5565b811015610a0757836001600160a01b03166001828154811061095d5761095d6127b8565b6000918252602090912001546001600160a01b0316036109f557600180546109869082906127a5565b81548110610996576109966127b8565b600091825260209091200154600180546001600160a01b0390921691839081106109c2576109c26127b8565b9060005260206000200160006101000a8154816001600160a01b0302191690836001600160a01b03160217905550610a07565b806109ff816127ce565b91505061092b565b506001600160a01b0383166000908152602081905260409020805460ff191690556001805480610a3957610a396127e7565b600082815260208120820160001990810180546001600160a01b03191690559091019091556040516001600160a01b038516917f8001553a916ef2f495d26a907cc54d96ed840d7bda71e73194bf5a9df7a76b9091a2505050565b60088181548110610aa457600080fd5b600091825260209091200154905081565b3360008181526020819052604081205490919060ff16610ae75760405162461bcd60e51b815260040161076d90612758565b604080513360601b6bffffffffffffffffffffffff1916602080830191909152603482018790524260548084019190915283518084039091018152607490920190925280519101206009819055600880546001810182556000919091527ff3f7a9fe364faab93b216da50a3214154f22a0a2b415b23a84c8169e8b636ee301819055610b7a908690339087908790612015565b9150846001600160a01b03167f7353684080cb3af2a27a8f7a2ea1d406494bd8e78dadcfad3519da376da14bfb83604051610bb791815260200190565b60405180910390a2509392505050565b600a5460009033906001600160a01b03168114610bf65760405162461bcd60e51b815260040161076d906126c1565b5050600a546001600160a01b031690565b60008181526007602090815260408083205460095560088054825181850281018501909352808352610c6d938301828280156107d857602002820191906000526020600020908154815260200190600101908083116107c4575050505050600954611fc2565b610c895760405162461bcd60e51b815260040161076d9061270c565b50600080805b600154811015610d2257600660006009548152602001908152602001600020600060018381548110610cc357610cc36127b8565b60009182526020808320909101546001600160a01b03168352820192909252604001902054600203610cfd57610cfa6001836127fd565b91505b6002548210610d10575060019392505050565b80610d1a816127ce565b915050610c8f565b5050919050565b6001600160a01b038116600090815260208190526040902054819060ff1615610d945760405162461bcd60e51b815260206004820181905260248201527f54686973206164647265737320697320616c726561647920616e206f776e6572604482015260640161076d565b3360008181526020819052604090205460ff16610dc35760405162461bcd60e51b815260040161076d90612758565b826001600160a01b038116610e105760405162461bcd60e51b8152602060048201526013602482015272151a19481859191c995cdcc81a5cc81b9d5b1b606a1b604482015260640161076d565b60018054610e1d916127fd565b600254818111158015610e2f57508015155b8015610e3a57508115155b610e7f5760405162461bcd60e51b815260206004820152601660248201527510dbdb991a5d1a5bdb9cc8185c99481b9bdd081b595d60521b604482015260640161076d565b6001600160a01b038616600081815260208190526040808220805460ff19166001908117909155805480820182559083527fb10e2d527612073b26eecdfd717e6a320cf44b4afac2b0732d9fcbe2b7fa0cf60180546001600160a01b03191684179055517ff39e6e1eb0edcf53c221607b54b00cd28f3196fed0a24994dc308b8f611b682d9190a2505050505050565b3360008181526020819052604090205460ff16610f3e5760405162461bcd60e51b815260040161076d90612758565b6000828152600760209081526040808320548084526004909252909120546001600160a01b0316610f815760405162461bcd60e51b815260040161076d90612810565b600083815260076020908152604080832054808452600490925290912060030154610100900460ff1615610fc75760405162461bcd60e51b815260040161076d90612861565b6000848152600760209081526040808320546009819055835260068252808320338085529083529281902060029055518681527ff6a317157440607f36269043eb55f1287a5a19ba2216afeab88cd46cbcfb88e991015b60405180910390a250505050565b60008181526007602090815260408083205460095560088054825181850281018501909352808352611092938301828280156107d857602002820191906000526020600020908154815260200190600101908083116107c4575050505050600954611fc2565b6110ae5760405162461bcd60e51b815260040161076d9061270c565b50600080805b600154811015610d22576006600060095481526020019081526020016000206000600183815481106110e8576110e86127b8565b60009182526020808320909101546001600160a01b031683528201929092526040019020546001036111225761111f6001836127fd565b91505b6002548210611135575060019392505050565b8061113f816127ce565b9150506110b4565b600354604051636eb1769f60e11b81523360048201523060248201526000916001600160a01b03169063dd62ed3e90604401602060405180830381865afa158015611196573d6000803e3d6000fd5b505050506040513d601f19601f820116820180604052508101906111ba91906128ca565b905090565b60008181526007602090815260408083205460095560088054825181850281018501909352808352611225938301828280156107d857602002820191906000526020600020908154815260200190600101908083116107c4575050505050600954611fc2565b6112415760405162461bcd60e51b815260040161076d9061270c565b60005b6001548110156112c457600660006009548152602001908152602001600020600060018381548110611278576112786127b8565b60009182526020808320909101546001600160a01b031683528201929092526040019020546001036112b2576112af6001836127fd565b91505b806112bc816127ce565b915050611244565b50919050565b6060600180548060200260200160405190810160405280929190818152602001828054801561132257602002820191906000526020600020905b81546001600160a01b03168152600190910190602001808311611304575b5050505050905090565b600081815260076020908152604091829020546009556008805483518184028101840190945280845260609361139a93909291908301828280156107d857602002820191906000526020600020908154815260200190600101908083116107c4575050505050600954611fc2565b6113b65760405162461bcd60e51b815260040161076d9061270c565b60015460009067ffffffffffffffff8111156113d4576113d46128e3565b6040519080825280602002602001820160405280156113fd578160200160208202803683370190505b5090506000805b6001548110156114df57600660006009548152602001908152602001600020600060018381548110611438576114386127b8565b60009182526020808320909101546001600160a01b031683528201929092526040019020546002036114cd5760018181548110611477576114776127b8565b9060005260206000200160009054906101000a90046001600160a01b03168383815181106114a7576114a76127b8565b6001600160a01b03909216602092830291909101909101526114ca6001836127fd565b91505b806114d7816127ce565b915050611404565b8167ffffffffffffffff8111156114f8576114f86128e3565b604051908082528060200260200182016040528015611521578160200160208202803683370190505b509350600090505b8181101561158757828181518110611543576115436127b8565b602002602001015184828151811061155d5761155d6127b8565b6001600160a01b03909216602092830291909101909101528061157f816127ce565b915050611529565b505050919050565b3360008181526020819052604090205460ff166115be5760405162461bcd60e51b815260040161076d90612758565b50600380546001600160a01b0319166001600160a01b0392909216919091179055565b600081815260076020908152604091829020546009556008805483518184028101840190945280845260609361164f93909291908301828280156107d857602002820191906000526020600020908154815260200190600101908083116107c4575050505050600954611fc2565b61166b5760405162461bcd60e51b815260040161076d9061270c565b60015460009067ffffffffffffffff811115611689576116896128e3565b6040519080825280602002602001820160405280156116b2578160200160208202803683370190505b5090506000805b600154811015611794576006600060095481526020019081526020016000206000600183815481106116ed576116ed6127b8565b60009182526020808320909101546001600160a01b03168352820192909252604001902054600103611782576001818154811061172c5761172c6127b8565b9060005260206000200160009054906101000a90046001600160a01b031683838151811061175c5761175c6127b8565b6001600160a01b039092166020928302919091019091015261177f6001836127fd565b91505b8061178c816127ce565b9150506116b9565b8167ffffffffffffffff8111156117ad576117ad6128e3565b6040519080825280602002602001820160405280156117d6578160200160208202803683370190505b509350600090505b81811015611587578281815181106117f8576117f86127b8565b6020026020010151848281518110611812576118126127b8565b6001600160a01b039092166020928302919091019091015280611834816127ce565b9150506117de565b3360008181526020819052604090205460ff1661186b5760405162461bcd60e51b815260040161076d90612758565b6000828152600760209081526040808320548084526004909252909120546001600160a01b03166118ae5760405162461bcd60e51b815260040161076d90612810565b600083815260076020908152604080832054808452600490925290912060030154610100900460ff16156118f45760405162461bcd60e51b815260040161076d90612861565b6000848152600760209081526040808320546009819055835260068252808320338085529083529281902060019055518681527f4a504a94899432a9846e1aa406dceb1bcfd538bb839071d49d1e5e23f5be30ef910161101e565b600081815260076020908152604080832054600955600880548251818502810185019093528083526119b5938301828280156107d857602002820191906000526020600020908154815260200190600101908083116107c4575050505050600954611fc2565b6119d15760405162461bcd60e51b815260040161076d9061270c565b60005b6001548110156112c457600660006009548152602001908152602001600020600060018381548110611a0857611a086127b8565b60009182526020808320909101546001600160a01b03168352820192909252604001902054600203611a4257611a3f6001836127fd565b91505b80611a4c816127ce565b9150506119d4565b3360008181526020819052604090205460ff16611a835760405162461bcd60e51b815260040161076d90612758565b60015482818111801590611a9657508015155b8015611aa157508115155b611ae65760405162461bcd60e51b815260206004820152601660248201527510dbdb991a5d1a5bdb9cc8185c99481b9bdd081b595d60521b604482015260640161076d565b60028490556040518481527f027863d12a407097e086a48e36475bfc859d0b200b7e6f65b5fd3b218e46632e9060200160405180910390a150505050565b3360008181526020819052604090205460ff16611b535760405162461bcd60e51b815260040161076d90612758565b81611b5d8161102c565b80611b6c5750611b6c81610c07565b611bca5760405162461bcd60e51b815260206004820152602960248201527f51756f72756d20686173206e6f74206265656e2072656163686564206279206f6044820152681ddb995c9cc81e595d60ba1b606482015260840161076d565b82611bd48161102c565b611c3d5760405162461bcd60e51b815260206004820152603460248201527f546865207472616e73616374696f6e20686173206e6f74206265656e20636f6e604482015273199a5c9b595908189e481bdddb995c9cc81e595d60621b606482015260840161076d565b600084815260076020908152604080832054808452600490925290912060030154610100900460ff1615611c835760405162461bcd60e51b815260040161076d90612861565b6000858152600760209081526040918290205460095560088054835181840281018401909452808452611ceb93928301828280156107d857602002820191906000526020600020908154815260200190600101908083116107c4575050505050600954611fc2565b611d075760405162461bcd60e51b815260040161076d9061270c565b6009546000908152600460205260409020611d218661102c565b8015611d335750611d3186610c07565b155b15611e23576000600382015460ff166004811115611d5357611d536125df565b03611d71578054611d6c906001600160a01b0316610d29565b611e23565b6001600382015460ff166004811115611d8c57611d8c6125df565b03611da5578054611d6c906001600160a01b0316610846565b6002600382015460ff166004811115611dc057611dc06125df565b03611dd257611d6c8160020154611a54565b60038082015460ff166004811115611dec57611dec6125df565b03611dfa57611d6c8661218e565b6004600382015460ff166004811115611e1557611e156125df565b03611e2357611e2386612315565b505050505050565b600a5460009033906001600160a01b03168114611e5a5760405162461bcd60e51b815260040161076d906126c1565b600080856001600160a01b03168560405160006040518083038185875af1925050503d8060008114611ea8576040519150601f19603f3d011682016040523d82523d6000602084013e611ead565b606091505b509150915081611eff5760405162461bcd60e51b815260206004820152601860248201527f5769746864726177207472616e73666572206661696c65640000000000000000604482015260640161076d565b856001600160a01b03167f884edad9ce6fa2440d8a54cc123490eb96d2768479d49ff9c7366125a942436486604051611f3a91815260200190565b60405180910390a250949350505050565b600a5433906001600160a01b03168114611f775760405162461bcd60e51b815260040161076d906126c1565b600a80546001600160a01b0319166001600160a01b0384169081179091556040517fc5daac221609fc28d95cb719ad6b3113c8112ce96e9dc6cda5c7530ef20e36a390600090a25050565b6000805b835181101561200b5782848281518110611fe257611fe26127b8565b602002602001015103611ff9576001915050610840565b80612003816127ce565b915050611fc6565b5060009392505050565b6000856001600160a01b0381166120645760405162461bcd60e51b8152602060048201526013602482015272151a19481859191c995cdcc81a5cc81b9d5b1b606a1b604482015260640161076d565b60055491508260076000848152602001908152602001600020819055506040518060a00160405280886001600160a01b03168152602001876001600160a01b031681526020018681526020018560048111156120c2576120c26125df565b8152600060209182018190528581526004808352604091829020845181546001600160a01b039182166001600160a01b031991821617835594860151600183810180549290931691909616179055918401516002830155606084015160038301805493949193909260ff1990911691908490811115612143576121436125df565b021790555060808201518160030160016101000a81548160ff02191690831515021790555090505060016005600082825461217e91906127fd565b9091555091979650505050505050565b600081815260076020908152604080832054600981905583526004909152902060028101544710156122025760405162461bcd60e51b815260206004820181905260248201527f496e73756666696369656e742062616c616e636520696e20636f6e7472616374604482015260640161076d565b805460028201546040516000926001600160a01b031691908381818185875af1925050503d8060008114612252576040519150601f19603f3d011682016040523d82523d6000602084013e612257565b606091505b50509050806122a85760405162461bcd60e51b815260206004820152601b60248201527f4661696c656420746f2073656e64204e617469766520746f6b656e0000000000604482015260640161076d565b60095460009081526004602052604090819020600301805461ff001916610100179055600283015490517f5550ebcd63fe55cfee39f1d5d38991f3a21dd4699ab7c41e14112310fd0f877891612308918690918252602082015260400190565b60405180910390a1505050565b6000818152600760209081526040808320546009819055835260049182905280832060035460018201549251636eb1769f60e11b81526001600160a01b039384169481019490945230602485015290939291169063dd62ed3e90604401602060405180830381865afa15801561238f573d6000803e3d6000fd5b505050506040513d601f19601f820116820180604052508101906123b391906128ca565b9050816002015481101561242f5760405162461bcd60e51b815260206004820152603760248201527f436f6e7472616374206973206e6f7420616c6c6f77656420627920757365722060448201527f746f207472616e73666572207375636820616d6f756e74000000000000000000606482015260840161076d565b6003546001830154835460028501546040516323b872dd60e01b81526001600160a01b039384166004820152918316602483015260448201529116906323b872dd906064016020604051808303816000875af1158015612493573d6000803e3d6000fd5b505050506040513d601f19601f820116820180604052508101906124b791906128f9565b5060095460009081526004602052604090819020600301805461ff001916610100179055600283015490517f4645e2dffcb6b5be91555757773b76bbf2e4612da04db6995aef42facf6c2b5291612308918690918252602082015260400190565b60006020828403121561252a57600080fd5b5035919050565b80356001600160a01b038116811461254857600080fd5b919050565b6000806040838503121561256057600080fd5b8235915061257060208401612531565b90509250929050565b60006020828403121561258b57600080fd5b61259482612531565b9392505050565b6000806000606084860312156125b057600080fd5b6125b984612531565b9250602084013591506040840135600581106125d457600080fd5b809150509250925092565b634e487b7160e01b600052602160045260246000fd5b6001600160a01b038681168252851660208201526040810184905260a081016005841061263257634e487b7160e01b600052602160045260246000fd5b83606083015282151560808301529695505050505050565b6020808252825182820181905260009190848201906040850190845b8181101561268b5783516001600160a01b031683529284019291840191600101612666565b50909695505050505050565b600080604083850312156126aa57600080fd5b6126b383612531565b946020939093013593505050565b6020808252602b908201527f54686973206164647265737320646f65736e27742068617665204d617374657260408201526a2070726976696c6567657360a81b606082015260800190565b6020808252602c908201527f4e6f207472616e73616374696f6e20666f756e64206173736f6369617465642060408201526b1dda5d1a081d1a1a5cc8125960a21b606082015260800190565b6020808252601c908201527f546869732061646472657373206973206e6f7420616e206f776e657200000000604082015260600190565b634e487b7160e01b600052601160045260246000fd5b818103818111156108405761084061278f565b634e487b7160e01b600052603260045260246000fd5b6000600182016127e0576127e061278f565b5060010190565b634e487b7160e01b600052603160045260246000fd5b808201808211156108405761084061278f565b60208082526031908201527f5468657265206973206e6f207472616e73616374696f6e206173736f636961746040820152701959081d1bc81d1a1a5cc81a185cda1259607a1b606082015260800190565b60208082526043908201527f546865207472616e73616374696f6e206173736f63696174656420776974682060408201527f7468697320686173682068617320616c7265616479206265656e2065786563756060820152621d195960ea1b608082015260a00190565b6000602082840312156128dc57600080fd5b5051919050565b634e487b7160e01b600052604160045260246000fd5b60006020828403121561290b57600080fd5b8151801515811461259457600080fdfea264697066735822122084ab461267105e313aab134fd2e1d5592f0d039395bd4c13983b4230ad8f926b64736f6c63430008140033",
  "linkReferences": {},
  "deployedLinkReferences": {}
}