{
  "_format": "hh-sol-artifact-1",
  "contractName": "Factory",
  "sourceName": "contracts/Factory.sol",
  "abi": [
    {
      "anonymous": false,
      "inputs": [
        {
          "indexed": false,
          "internalType": "address",
          "name": "sender",
          "type": "address"
        },
        {
          "indexed": false,
          "internalType": "address",
          "name": "instantiation",
          "type": "address"
        }
      ],
      "name": "ContractInstantiation",
      "type": "event"
    },
    {
      "inputs": [
        {
          "internalType": "address",
          "name": "creator",
          "type": "address"
        }
      ],
      "name": "getInstantiationCount",
      "outputs": [
        {
          "internalType": "uint256",
          "name": "",
          "type": "uint256"
        }
      ],
      "stateMutability": "view",
      "type": "function"
    },
    {
      "inputs": [
        {
          "internalType": "address",
          "name": "",
          "type": "address"
        },
        {
          "internalType": "uint256",
          "name": "",
          "type": "uint256"
        }
      ],
      "name": "instantiations",
      "outputs": [
        {
          "internalType": "address",
          "name": "",
          "type": "address"
        }
      ],
      "stateMutability": "view",
      "type": "function"
    },
    {
      "inputs": [
        {
          "internalType": "address",
          "name": "",
          "type": "address"
        }
      ],
      "name": "isInstantiated",
      "outputs": [
        {
          "internalType": "bool",
          "name": "",
          "type": "bool"
        }
      ],
      "stateMutability": "view",
      "type": "function"
    }
  ],
  "bytecode": "0x608060405234801561001057600080fd5b506101b6806100206000396000f3fe608060405234801561001057600080fd5b50600436106100415760003560e01c8063482af6891461004657806357183c821461007e5780638f838478146100a9575b600080fd5b610069610054366004610134565b60006020819052908152604090205460ff1681565b60405190151581526020015b60405180910390f35b61009161008c366004610156565b6100e0565b6040516001600160a01b039091168152602001610075565b6100d26100b7366004610134565b6001600160a01b031660009081526001602052604090205490565b604051908152602001610075565b600160205281600052604060002081815481106100fc57600080fd5b6000918252602090912001546001600160a01b03169150829050565b80356001600160a01b038116811461012f57600080fd5b919050565b60006020828403121561014657600080fd5b61014f82610118565b9392505050565b6000806040838503121561016957600080fd5b61017283610118565b94602093909301359350505056fea2646970667358221220c7c522e693ab9bf055807229fd222a28c0f65a2906e8f383cb3973f53674f7cf64736f6c63430008140033",
  "linkReferences": {},
  "deployedLinkReferences": {}
}