{
  "_format": "hh-sol-artifact-1",
  "contractName": "Greeter",
  "sourceName": "contracts/Greeter.sol",
  "abi": [
    {
      "inputs": [
        {
          "internalType": "string",
          "name": "_message",
          "type": "string"
        },
        {
          "internalType": "string",
          "name": "_place",
          "type": "string"
        }
      ],
      "stateMutability": "nonpayable",
      "type": "constructor"
    },
    {
      "inputs": [],
      "name": "getGreet",
      "outputs": [
        {
          "internalType": "string",
          "name": "",
          "type": "string"
        }
      ],
      "stateMutability": "view",
      "type": "function"
    },
    {
      "inputs": [],
      "name": "getMeet",
      "outputs": [
        {
          "internalType": "string",
          "name": "",
          "type": "string"
        }
      ],
      "stateMutability": "view",
      "type": "function"
    },
    {
      "inputs": [],
      "name": "greet",
      "outputs": [
        {
          "internalType": "string",
          "name": "",
          "type": "string"
        }
      ],
      "stateMutability": "view",
      "type": "function"
    },
    {
      "inputs": [],
      "name": "meet",
      "outputs": [
        {
          "internalType": "string",
          "name": "",
          "type": "string"
        }
      ],
      "stateMutability": "view",
      "type": "function"
    },
    {
      "inputs": [
        {
          "internalType": "string",
          "name": "_message",
          "type": "string"
        },
        {
          "internalType": "string",
          "name": "_place",
          "type": "string"
        }
      ],
      "name": "setGreetingMeet",
      "outputs": [],
      "stateMutability": "nonpayable",
      "type": "function"
    }
  ],
  "bytecode": "0x60806040523480156200001157600080fd5b5060405162000ad838038062000ad88339818101604052810190620000379190620002be565b81600090805190602001906200004f92919062000071565b5080600190805190602001906200006892919062000071565b505050620003a8565b8280546200007f9062000372565b90600052602060002090601f016020900481019282620000a35760008555620000ef565b82601f10620000be57805160ff1916838001178555620000ef565b82800160010185558215620000ef579182015b82811115620000ee578251825591602001919060010190620000d1565b5b509050620000fe919062000102565b5090565b5b808211156200011d57600081600090555060010162000103565b5090565b6000604051905090565b600080fd5b600080fd5b600080fd5b600080fd5b6000601f19601f8301169050919050565b7f4e487b7100000000000000000000000000000000000000000000000000000000600052604160045260246000fd5b6200018a826200013f565b810181811067ffffffffffffffff82111715620001ac57620001ab62000150565b5b80604052505050565b6000620001c162000121565b9050620001cf82826200017f565b919050565b600067ffffffffffffffff821115620001f257620001f162000150565b5b620001fd826200013f565b9050602081019050919050565b60005b838110156200022a5780820151818401526020810190506200020d565b838111156200023a576000848401525b50505050565b6000620002576200025184620001d4565b620001b5565b9050828152602081018484840111156200027657620002756200013a565b5b620002838482856200020a565b509392505050565b600082601f830112620002a357620002a262000135565b5b8151620002b584826020860162000240565b91505092915050565b60008060408385031215620002d857620002d76200012b565b5b600083015167ffffffffffffffff811115620002f957620002f862000130565b5b62000307858286016200028b565b925050602083015167ffffffffffffffff8111156200032b576200032a62000130565b5b62000339858286016200028b565b9150509250929050565b7f4e487b7100000000000000000000000000000000000000000000000000000000600052602260045260246000fd5b600060028204905060018216806200038b57607f821691505b60208210811415620003a257620003a162000343565b5b50919050565b61072080620003b86000396000f3fe608060405234801561001057600080fd5b50600436106100575760003560e01c806375c3b1371461005c57806383aa5a601461007a578063870f235e14610098578063cfae3217146100b4578063d705a4b5146100d2575b600080fd5b6100646100f0565b60405161007191906104a6565b60405180910390f35b610082610182565b60405161008f91906104a6565b60405180910390f35b6100b260048036038101906100ad9190610611565b610214565b005b6100bc610246565b6040516100c991906104a6565b60405180910390f35b6100da6102d8565b6040516100e791906104a6565b60405180910390f35b6060600180546100ff906106b8565b80601f016020809104026020016040519081016040528092919081815260200182805461012b906106b8565b80156101785780601f1061014d57610100808354040283529160200191610178565b820191906000526020600020905b81548152906001019060200180831161015b57829003601f168201915b5050505050905090565b606060018054610191906106b8565b80601f01602080910402602001604051908101604052809291908181526020018280546101bd906106b8565b801561020a5780601f106101df5761010080835404028352916020019161020a565b820191906000526020600020905b8154815290600101906020018083116101ed57829003601f168201915b5050505050905090565b816000908051906020019061022a92919061036a565b50806001908051906020019061024192919061036a565b505050565b606060008054610255906106b8565b80601f0160208091040260200160405190810160405280929190818152602001828054610281906106b8565b80156102ce5780601f106102a3576101008083540402835291602001916102ce565b820191906000526020600020905b8154815290600101906020018083116102b157829003601f168201915b5050505050905090565b6060600080546102e7906106b8565b80601f0160208091040260200160405190810160405280929190818152602001828054610313906106b8565b80156103605780601f1061033557610100808354040283529160200191610360565b820191906000526020600020905b81548152906001019060200180831161034357829003601f168201915b5050505050905090565b828054610376906106b8565b90600052602060002090601f01602090048101928261039857600085556103df565b82601f106103b157805160ff19168380011785556103df565b828001600101855582156103df579182015b828111156103de5782518255916020019190600101906103c3565b5b5090506103ec91906103f0565b5090565b5b808211156104095760008160009055506001016103f1565b5090565b600081519050919050565b600082825260208201905092915050565b60005b8381101561044757808201518184015260208101905061042c565b83811115610456576000848401525b50505050565b6000601f19601f8301169050919050565b60006104788261040d565b6104828185610418565b9350610492818560208601610429565b61049b8161045c565b840191505092915050565b600060208201905081810360008301526104c0818461046d565b905092915050565b6000604051905090565b600080fd5b600080fd5b600080fd5b600080fd5b7f4e487b7100000000000000000000000000000000000000000000000000000000600052604160045260246000fd5b61051e8261045c565b810181811067ffffffffffffffff8211171561053d5761053c6104e6565b5b80604052505050565b60006105506104c8565b905061055c8282610515565b919050565b600067ffffffffffffffff82111561057c5761057b6104e6565b5b6105858261045c565b9050602081019050919050565b82818337600083830152505050565b60006105b46105af84610561565b610546565b9050828152602081018484840111156105d0576105cf6104e1565b5b6105db848285610592565b509392505050565b600082601f8301126105f8576105f76104dc565b5b81356106088482602086016105a1565b91505092915050565b60008060408385031215610628576106276104d2565b5b600083013567ffffffffffffffff811115610646576106456104d7565b5b610652858286016105e3565b925050602083013567ffffffffffffffff811115610673576106726104d7565b5b61067f858286016105e3565b9150509250929050565b7f4e487b7100000000000000000000000000000000000000000000000000000000600052602260045260246000fd5b600060028204905060018216806106d057607f821691505b602082108114156106e4576106e3610689565b5b5091905056fea2646970667358221220575c71555027d9c6ac61e20cdc583a473d352edf3643a7260a81d4ab47476df064736f6c63430008090033",
  "linkReferences": {},
  "deployedLinkReferences": {}
}