{
  "_format": "hh-sol-artifact-1",
  "contractName": "MultiSigAdministration",
  "sourceName": "contracts/MultiSigAdministration.sol",
  "abi": [
    {
      "inputs": [
        {
          "internalType": "address[]",
          "name": "_owners",
          "type": "address[]"
        },
        {
          "internalType": "uint256",
          "name": "_quorum",
          "type": "uint256"
        }
      ],
      "stateMutability": "nonpayable",
      "type": "constructor"
    },
    {
      "anonymous": false,
      "inputs": [
        {
          "indexed": true,
          "internalType": "address",
          "name": "owner",
          "type": "address"
        }
      ],
      "name": "OwnerAddition",
      "type": "event"
    },
    {
      "anonymous": false,
      "inputs": [
        {
          "indexed": true,
          "internalType": "address",
          "name": "owner",
          "type": "address"
        }
      ],
      "name": "OwnerRemoval",
      "type": "event"
    },
    {
      "anonymous": false,
      "inputs": [
        {
          "indexed": false,
          "internalType": "uint256",
          "name": "quorum",
          "type": "uint256"
        }
      ],
      "name": "QuorumChanged",
      "type": "event"
    },
    {
      "inputs": [
        {
          "internalType": "address",
          "name": "owner",
          "type": "address"
        }
      ],
      "name": "addOwner",
      "outputs": [],
      "stateMutability": "nonpayable",
      "type": "function"
    },
    {
      "inputs": [
        {
          "internalType": "uint256",
          "name": "newQuorum",
          "type": "uint256"
        }
      ],
      "name": "changeQuorum",
      "outputs": [],
      "stateMutability": "nonpayable",
      "type": "function"
    },
    {
      "inputs": [],
      "name": "getOwnerCount",
      "outputs": [
        {
          "internalType": "uint256",
          "name": "res",
          "type": "uint256"
        }
      ],
      "stateMutability": "view",
      "type": "function"
    },
    {
      "inputs": [],
      "name": "getOwners",
      "outputs": [
        {
          "internalType": "address[]",
          "name": "",
          "type": "address[]"
        }
      ],
      "stateMutability": "view",
      "type": "function"
    },
    {
      "inputs": [],
      "name": "getQuorum",
      "outputs": [
        {
          "internalType": "uint256",
          "name": "res",
          "type": "uint256"
        }
      ],
      "stateMutability": "view",
      "type": "function"
    },
    {
      "inputs": [
        {
          "internalType": "address",
          "name": "",
          "type": "address"
        }
      ],
      "name": "isOwner",
      "outputs": [
        {
          "internalType": "bool",
          "name": "",
          "type": "bool"
        }
      ],
      "stateMutability": "view",
      "type": "function"
    },
    {
      "inputs": [
        {
          "internalType": "uint256",
          "name": "",
          "type": "uint256"
        }
      ],
      "name": "owners",
      "outputs": [
        {
          "internalType": "address",
          "name": "",
          "type": "address"
        }
      ],
      "stateMutability": "view",
      "type": "function"
    },
    {
      "inputs": [],
      "name": "quorum",
      "outputs": [
        {
          "internalType": "uint256",
          "name": "",
          "type": "uint256"
        }
      ],
      "stateMutability": "view",
      "type": "function"
    },
    {
      "inputs": [
        {
          "internalType": "address",
          "name": "owner",
          "type": "address"
        }
      ],
      "name": "removeOwner",
      "outputs": [],
      "stateMutability": "nonpayable",
      "type": "function"
    },
    {
      "inputs": [
        {
          "internalType": "address",
          "name": "addressToVerify",
          "type": "address"
        }
      ],
      "name": "verifyOwner",
      "outputs": [
        {
          "internalType": "bool",
          "name": "res",
          "type": "bool"
        }
      ],
      "stateMutability": "view",
      "type": "function"
    }
  ],
  "bytecode": "0x60806040523480156200001157600080fd5b5060405162000cda38038062000cda8339810160408190526200003491620002e6565b8151818181111580156200004757508015155b80156200005357508115155b620000a55760405162461bcd60e51b815260206004820152601660248201527f436f6e646974696f6e7320617265206e6f74206d65740000000000000000000060448201526064015b60405180910390fd5b60005b84518110156200020f57600080868381518110620000ca57620000ca620003c0565b6020908102919091018101516001600160a01b031682528101919091526040016000205460ff161580156200012e575060006001600160a01b03168582815181106200011a576200011a620003c0565b60200260200101516001600160a01b031614155b620001ae5760405162461bcd60e51b815260206004820152604360248201527f416464726573732073686f756c646e277420626520616c7265616479206c697360448201527f746564206173206f776e65722c206e6f722073686f756c64206974206265204e60648201526215531360ea1b608482015260a4016200009c565b6001600080878481518110620001c857620001c8620003c0565b6020908102919091018101516001600160a01b03168252810191909152604001600020805460ff1916911515919091179055806200020681620003d6565b915050620000a8565b5083516200022590600190602087019062000232565b50505060025550620003fe565b8280548282559060005260206000209081019282156200028a579160200282015b828111156200028a57825182546001600160a01b0319166001600160a01b0390911617825560209092019160019091019062000253565b50620002989291506200029c565b5090565b5b808211156200029857600081556001016200029d565b634e487b7160e01b600052604160045260246000fd5b80516001600160a01b0381168114620002e157600080fd5b919050565b60008060408385031215620002fa57600080fd5b82516001600160401b03808211156200031257600080fd5b818501915085601f8301126200032757600080fd5b81516020828211156200033e576200033e620002b3565b8160051b604051601f19603f83011681018181108682111715620003665762000366620002b3565b6040529283528183019350848101820192898411156200038557600080fd5b948201945b83861015620003ae576200039e86620002c9565b855294820194938201936200038a565b97909101519698969750505050505050565b634e487b7160e01b600052603260045260246000fd5b600060018201620003f757634e487b7160e01b600052601160045260246000fd5b5060010190565b6108cc806200040e6000396000f3fe608060405234801561001057600080fd5b506004361061009e5760003560e01c80638c85cd85116100665780638c85cd8514610145578063a0e67e2b14610171578063c26c12eb14610186578063d2cd96bd1461018e578063ef18374a146101a157600080fd5b8063025e7c27146100a35780631703a018146100d3578063173825d9146100ea5780632f54bf6e146100ff5780637065cb4814610132575b600080fd5b6100b66100b1366004610742565b6101a9565b6040516001600160a01b0390911681526020015b60405180910390f35b6100dc60025481565b6040519081526020016100ca565b6100fd6100f836600461075b565b6101d3565b005b61012261010d36600461075b565b60006020819052908152604090205460ff1681565b60405190151581526020016100ca565b6100fd61014036600461075b565b61042a565b61012261015336600461075b565b6001600160a01b031660009081526020819052604090205460ff1690565b610179610610565b6040516100ca919061078b565b6002546100dc565b6100fd61019c366004610742565b610672565b6001546100dc565b600181815481106101b957600080fd5b6000918252602090912001546001600160a01b0316905081565b3360008181526020819052604090205460ff1661020b5760405162461bcd60e51b8152600401610202906107d8565b60405180910390fd5b6001600160a01b038216600090815260208190526040902054829060ff166102455760405162461bcd60e51b8152600401610202906107d8565b60018054116102965760405162461bcd60e51b815260206004820152601760248201527f43616e27742072656d6f7665206c617374206f776e65720000000000000000006044820152606401610202565b600180546102a49190610825565b60025411156102be57600180546102be9161019c91610825565b60005b600180546102cf9190610825565b81101561039d57836001600160a01b0316600182815481106102f3576102f361083e565b6000918252602090912001546001600160a01b03160361038b576001805461031c908290610825565b8154811061032c5761032c61083e565b600091825260209091200154600180546001600160a01b0390921691839081106103585761035861083e565b9060005260206000200160006101000a8154816001600160a01b0302191690836001600160a01b0316021790555061039d565b8061039581610854565b9150506102c1565b506001600160a01b0383166000908152602081905260409020805460ff1916905560018054806103cf576103cf61086d565b600082815260208120820160001990810180546001600160a01b03191690559091019091556040516001600160a01b038516917f8001553a916ef2f495d26a907cc54d96ed840d7bda71e73194bf5a9df7a76b9091a2505050565b6001600160a01b038116600090815260208190526040902054819060ff16156104955760405162461bcd60e51b815260206004820181905260248201527f54686973206164647265737320697320616c726561647920616e206f776e65726044820152606401610202565b3360008181526020819052604090205460ff166104c45760405162461bcd60e51b8152600401610202906107d8565b826001600160a01b0381166105115760405162461bcd60e51b8152602060048201526013602482015272151a19481859191c995cdcc81a5cc81b9d5b1b606a1b6044820152606401610202565b6001805461051e91610883565b60025481811115801561053057508015155b801561053b57508115155b6105805760405162461bcd60e51b815260206004820152601660248201527510dbdb991a5d1a5bdb9cc8185c99481b9bdd081b595d60521b6044820152606401610202565b6001600160a01b038616600081815260208190526040808220805460ff19166001908117909155805480820182559083527fb10e2d527612073b26eecdfd717e6a320cf44b4afac2b0732d9fcbe2b7fa0cf60180546001600160a01b03191684179055517ff39e6e1eb0edcf53c221607b54b00cd28f3196fed0a24994dc308b8f611b682d9190a2505050505050565b6060600180548060200260200160405190810160405280929190818152602001828054801561066857602002820191906000526020600020905b81546001600160a01b0316815260019091019060200180831161064a575b5050505050905090565b3360008181526020819052604090205460ff166106a15760405162461bcd60e51b8152600401610202906107d8565b600154828181118015906106b457508015155b80156106bf57508115155b6107045760405162461bcd60e51b815260206004820152601660248201527510dbdb991a5d1a5bdb9cc8185c99481b9bdd081b595d60521b6044820152606401610202565b60028490556040518481527f027863d12a407097e086a48e36475bfc859d0b200b7e6f65b5fd3b218e46632e9060200160405180910390a150505050565b60006020828403121561075457600080fd5b5035919050565b60006020828403121561076d57600080fd5b81356001600160a01b038116811461078457600080fd5b9392505050565b6020808252825182820181905260009190848201906040850190845b818110156107cc5783516001600160a01b0316835292840192918401916001016107a7565b50909695505050505050565b6020808252601c908201527f546869732061646472657373206973206e6f7420616e206f776e657200000000604082015260600190565b634e487b7160e01b600052601160045260246000fd5b818103818111156108385761083861080f565b92915050565b634e487b7160e01b600052603260045260246000fd5b6000600182016108665761086661080f565b5060010190565b634e487b7160e01b600052603160045260246000fd5b808201808211156108385761083861080f56fea26469706673582212203016d5fa5b24bcb6973abca212b667383358e7f8b844d7fb085f3be6e604366464736f6c63430008140033",
  "linkReferences": {},
  "deployedLinkReferences": {}
}