{
  "_format": "hh-sol-artifact-1",
  "contractName": "MultiSigTransaction",
  "sourceName": "contracts/MultiSigTransactions.sol",
  "abi": [
    {
      "inputs": [
        {
          "internalType": "address[]",
          "name": "_owners",
          "type": "address[]"
        },
        {
          "internalType": "uint256",
          "name": "_quorum",
          "type": "uint256"
        }
      ],
      "stateMutability": "nonpayable",
      "type": "constructor"
    },
    {
      "anonymous": false,
      "inputs": [
        {
          "indexed": true,
          "internalType": "address",
          "name": "sender",
          "type": "address"
        },
        {
          "indexed": false,
          "internalType": "uint256",
          "name": "transactionId",
          "type": "uint256"
        }
      ],
      "name": "Confirmation",
      "type": "event"
    },
    {
      "anonymous": false,
      "inputs": [
        {
          "indexed": true,
          "internalType": "address",
          "name": "sender",
          "type": "address"
        },
        {
          "indexed": false,
          "internalType": "uint256",
          "name": "amount",
          "type": "uint256"
        }
      ],
      "name": "Deposit",
      "type": "event"
    },
    {
      "anonymous": false,
      "inputs": [
        {
          "indexed": false,
          "internalType": "uint256",
          "name": "amount",
          "type": "uint256"
        },
        {
          "indexed": false,
          "internalType": "uint256",
          "name": "transactionId",
          "type": "uint256"
        }
      ],
      "name": "ExecutionERC20",
      "type": "event"
    },
    {
      "anonymous": false,
      "inputs": [
        {
          "indexed": false,
          "internalType": "uint256",
          "name": "amount",
          "type": "uint256"
        },
        {
          "indexed": false,
          "internalType": "uint256",
          "name": "transactionId",
          "type": "uint256"
        }
      ],
      "name": "ExecutionNative",
      "type": "event"
    },
    {
      "anonymous": false,
      "inputs": [
        {
          "indexed": true,
          "internalType": "address",
          "name": "owner",
          "type": "address"
        }
      ],
      "name": "OwnerAddition",
      "type": "event"
    },
    {
      "anonymous": false,
      "inputs": [
        {
          "indexed": true,
          "internalType": "address",
          "name": "owner",
          "type": "address"
        }
      ],
      "name": "OwnerRemoval",
      "type": "event"
    },
    {
      "anonymous": false,
      "inputs": [
        {
          "indexed": false,
          "internalType": "uint256",
          "name": "quorum",
          "type": "uint256"
        }
      ],
      "name": "QuorumChanged",
      "type": "event"
    },
    {
      "anonymous": false,
      "inputs": [
        {
          "indexed": true,
          "internalType": "address",
          "name": "sender",
          "type": "address"
        },
        {
          "indexed": false,
          "internalType": "uint256",
          "name": "transactionId",
          "type": "uint256"
        }
      ],
      "name": "Revocation",
      "type": "event"
    },
    {
      "anonymous": false,
      "inputs": [
        {
          "indexed": true,
          "internalType": "address",
          "name": "destination",
          "type": "address"
        },
        {
          "indexed": false,
          "internalType": "uint256",
          "name": "transactionId",
          "type": "uint256"
        }
      ],
      "name": "Submission",
      "type": "event"
    },
    {
      "stateMutability": "payable",
      "type": "fallback"
    },
    {
      "inputs": [
        {
          "internalType": "address",
          "name": "owner",
          "type": "address"
        }
      ],
      "name": "addOwner",
      "outputs": [],
      "stateMutability": "nonpayable",
      "type": "function"
    },
    {
      "inputs": [
        {
          "internalType": "uint256",
          "name": "newQuorum",
          "type": "uint256"
        }
      ],
      "name": "changeQuorum",
      "outputs": [],
      "stateMutability": "nonpayable",
      "type": "function"
    },
    {
      "inputs": [
        {
          "internalType": "uint256",
          "name": "transactionId",
          "type": "uint256"
        }
      ],
      "name": "confirmTransaction",
      "outputs": [],
      "stateMutability": "nonpayable",
      "type": "function"
    },
    {
      "inputs": [
        {
          "internalType": "bytes32",
          "name": "",
          "type": "bytes32"
        },
        {
          "internalType": "address",
          "name": "",
          "type": "address"
        }
      ],
      "name": "confirmations",
      "outputs": [
        {
          "internalType": "uint256",
          "name": "",
          "type": "uint256"
        }
      ],
      "stateMutability": "view",
      "type": "function"
    },
    {
      "inputs": [],
      "name": "deposit",
      "outputs": [],
      "stateMutability": "payable",
      "type": "function"
    },
    {
      "inputs": [
        {
          "internalType": "uint256",
          "name": "transactionId",
          "type": "uint256"
        }
      ],
      "name": "executeTransaction",
      "outputs": [],
      "stateMutability": "nonpayable",
      "type": "function"
    },
    {
      "inputs": [
        {
          "internalType": "uint256",
          "name": "transactionId",
          "type": "uint256"
        }
      ],
      "name": "getConfirmationCount",
      "outputs": [
        {
          "internalType": "uint256",
          "name": "count",
          "type": "uint256"
        }
      ],
      "stateMutability": "nonpayable",
      "type": "function"
    },
    {
      "inputs": [
        {
          "internalType": "uint256",
          "name": "transactionId",
          "type": "uint256"
        }
      ],
      "name": "getConfirmations",
      "outputs": [
        {
          "internalType": "address[]",
          "name": "_confirmations",
          "type": "address[]"
        }
      ],
      "stateMutability": "nonpayable",
      "type": "function"
    },
    {
      "inputs": [],
      "name": "getOwnerCount",
      "outputs": [
        {
          "internalType": "uint256",
          "name": "res",
          "type": "uint256"
        }
      ],
      "stateMutability": "view",
      "type": "function"
    },
    {
      "inputs": [],
      "name": "getOwners",
      "outputs": [
        {
          "internalType": "address[]",
          "name": "",
          "type": "address[]"
        }
      ],
      "stateMutability": "view",
      "type": "function"
    },
    {
      "inputs": [],
      "name": "getQuorum",
      "outputs": [
        {
          "internalType": "uint256",
          "name": "res",
          "type": "uint256"
        }
      ],
      "stateMutability": "view",
      "type": "function"
    },
    {
      "inputs": [
        {
          "internalType": "uint256",
          "name": "transactionId",
          "type": "uint256"
        }
      ],
      "name": "getRevocationCount",
      "outputs": [
        {
          "internalType": "uint256",
          "name": "count",
          "type": "uint256"
        }
      ],
      "stateMutability": "nonpayable",
      "type": "function"
    },
    {
      "inputs": [
        {
          "internalType": "uint256",
          "name": "transactionId",
          "type": "uint256"
        }
      ],
      "name": "getRevocations",
      "outputs": [
        {
          "internalType": "address[]",
          "name": "_confirmations",
          "type": "address[]"
        }
      ],
      "stateMutability": "nonpayable",
      "type": "function"
    },
    {
      "inputs": [],
      "name": "getTokenBalance",
      "outputs": [
        {
          "internalType": "uint256",
          "name": "bal",
          "type": "uint256"
        }
      ],
      "stateMutability": "view",
      "type": "function"
    },
    {
      "inputs": [],
      "name": "getTransactionCount",
      "outputs": [
        {
          "internalType": "uint256",
          "name": "count",
          "type": "uint256"
        }
      ],
      "stateMutability": "view",
      "type": "function"
    },
    {
      "inputs": [
        {
          "internalType": "uint256",
          "name": "transactionId",
          "type": "uint256"
        },
        {
          "internalType": "address",
          "name": "owner",
          "type": "address"
        }
      ],
      "name": "getUserConfirmationStatus",
      "outputs": [
        {
          "internalType": "bool",
          "name": "",
          "type": "bool"
        }
      ],
      "stateMutability": "nonpayable",
      "type": "function"
    },
    {
      "inputs": [],
      "name": "hashId",
      "outputs": [
        {
          "internalType": "bytes32",
          "name": "",
          "type": "bytes32"
        }
      ],
      "stateMutability": "view",
      "type": "function"
    },
    {
      "inputs": [
        {
          "internalType": "uint256",
          "name": "",
          "type": "uint256"
        }
      ],
      "name": "hashesId",
      "outputs": [
        {
          "internalType": "bytes32",
          "name": "",
          "type": "bytes32"
        }
      ],
      "stateMutability": "view",
      "type": "function"
    },
    {
      "inputs": [
        {
          "internalType": "uint256",
          "name": "",
          "type": "uint256"
        }
      ],
      "name": "idToHashes",
      "outputs": [
        {
          "internalType": "bytes32",
          "name": "",
          "type": "bytes32"
        }
      ],
      "stateMutability": "view",
      "type": "function"
    },
    {
      "inputs": [
        {
          "internalType": "uint256",
          "name": "transactionId",
          "type": "uint256"
        }
      ],
      "name": "isConfirmed",
      "outputs": [
        {
          "internalType": "bool",
          "name": "res",
          "type": "bool"
        }
      ],
      "stateMutability": "nonpayable",
      "type": "function"
    },
    {
      "inputs": [
        {
          "internalType": "address",
          "name": "",
          "type": "address"
        }
      ],
      "name": "isOwner",
      "outputs": [
        {
          "internalType": "bool",
          "name": "",
          "type": "bool"
        }
      ],
      "stateMutability": "view",
      "type": "function"
    },
    {
      "inputs": [
        {
          "internalType": "uint256",
          "name": "transactionId",
          "type": "uint256"
        }
      ],
      "name": "isRevoked",
      "outputs": [
        {
          "internalType": "bool",
          "name": "res",
          "type": "bool"
        }
      ],
      "stateMutability": "nonpayable",
      "type": "function"
    },
    {
      "inputs": [
        {
          "internalType": "uint256",
          "name": "",
          "type": "uint256"
        }
      ],
      "name": "owners",
      "outputs": [
        {
          "internalType": "address",
          "name": "",
          "type": "address"
        }
      ],
      "stateMutability": "view",
      "type": "function"
    },
    {
      "inputs": [],
      "name": "quorum",
      "outputs": [
        {
          "internalType": "uint256",
          "name": "",
          "type": "uint256"
        }
      ],
      "stateMutability": "view",
      "type": "function"
    },
    {
      "inputs": [
        {
          "internalType": "address",
          "name": "owner",
          "type": "address"
        }
      ],
      "name": "removeOwner",
      "outputs": [],
      "stateMutability": "nonpayable",
      "type": "function"
    },
    {
      "inputs": [
        {
          "internalType": "uint256",
          "name": "transactionId",
          "type": "uint256"
        }
      ],
      "name": "revokeTransaction",
      "outputs": [],
      "stateMutability": "nonpayable",
      "type": "function"
    },
    {
      "inputs": [
        {
          "internalType": "address",
          "name": "tokenContractAddress",
          "type": "address"
        }
      ],
      "name": "setTokenContractAddress",
      "outputs": [],
      "stateMutability": "nonpayable",
      "type": "function"
    },
    {
      "inputs": [
        {
          "internalType": "address",
          "name": "destination",
          "type": "address"
        },
        {
          "internalType": "uint256",
          "name": "value",
          "type": "uint256"
        },
        {
          "internalType": "enum MultiSigTransaction.TransactionType",
          "name": "transactionType",
          "type": "uint8"
        }
      ],
      "name": "submitTransaction",
      "outputs": [
        {
          "internalType": "uint256",
          "name": "transactionId",
          "type": "uint256"
        }
      ],
      "stateMutability": "nonpayable",
      "type": "function"
    },
    {
      "inputs": [],
      "name": "transactionCount",
      "outputs": [
        {
          "internalType": "uint256",
          "name": "",
          "type": "uint256"
        }
      ],
      "stateMutability": "view",
      "type": "function"
    },
    {
      "inputs": [
        {
          "internalType": "bytes32",
          "name": "",
          "type": "bytes32"
        }
      ],
      "name": "transactions",
      "outputs": [
        {
          "internalType": "address",
          "name": "destination",
          "type": "address"
        },
        {
          "internalType": "address",
          "name": "submitterAddress",
          "type": "address"
        },
        {
          "internalType": "uint256",
          "name": "value",
          "type": "uint256"
        },
        {
          "internalType": "enum MultiSigTransaction.TransactionType",
          "name": "transactionType",
          "type": "uint8"
        },
        {
          "internalType": "bool",
          "name": "executed",
          "type": "bool"
        }
      ],
      "stateMutability": "view",
      "type": "function"
    },
    {
      "inputs": [
        {
          "internalType": "address",
          "name": "addressToVerify",
          "type": "address"
        }
      ],
      "name": "verifyOwner",
      "outputs": [
        {
          "internalType": "bool",
          "name": "res",
          "type": "bool"
        }
      ],
      "stateMutability": "view",
      "type": "function"
    },
    {
      "stateMutability": "payable",
      "type": "receive"
    }
  ],
  "bytecode": "0x60806040523480156200001157600080fd5b5060405162002a5038038062002a508339810160408190526200003491620002ef565b81818151818181111580156200004957508015155b80156200005557508115155b620000a75760405162461bcd60e51b815260206004820152601660248201527f436f6e646974696f6e7320617265206e6f74206d65740000000000000000000060448201526064015b60405180910390fd5b60005b84518110156200021157600080868381518110620000cc57620000cc620003c9565b6020908102919091018101516001600160a01b031682528101919091526040016000205460ff1615801562000130575060006001600160a01b03168582815181106200011c576200011c620003c9565b60200260200101516001600160a01b031614155b620001b05760405162461bcd60e51b815260206004820152604360248201527f416464726573732073686f756c646e277420626520616c7265616479206c697360448201527f746564206173206f776e65722c206e6f722073686f756c64206974206265204e60648201526215531360ea1b608482015260a4016200009e565b6001600080878481518110620001ca57620001ca620003c9565b6020908102919091018101516001600160a01b03168252810191909152604001600020805460ff1916911515919091179055806200020881620003df565b915050620000aa565b508351620002279060019060208701906200023b565b505050600255505060006005555062000407565b82805482825590600052602060002090810192821562000293579160200282015b828111156200029357825182546001600160a01b0319166001600160a01b039091161782556020909201916001909101906200025c565b50620002a1929150620002a5565b5090565b5b80821115620002a15760008155600101620002a6565b634e487b7160e01b600052604160045260246000fd5b80516001600160a01b0381168114620002ea57600080fd5b919050565b600080604083850312156200030357600080fd5b82516001600160401b03808211156200031b57600080fd5b818501915085601f8301126200033057600080fd5b8151602082821115620003475762000347620002bc565b8160051b604051601f19603f830116810181811086821117156200036f576200036f620002bc565b6040529283528183019350848101820192898411156200038e57600080fd5b948201945b83861015620003b757620003a786620002d2565b8552948201949382019362000393565b97909101519698969750505050505050565b634e487b7160e01b600052603260045260246000fd5b6000600182016200040057634e487b7160e01b600052601160045260246000fd5b5060010190565b61263980620004176000396000f3fe6080604052600436106101dc5760003560e01c80638b51d13f11610102578063c26c12eb11610095578063d2cd96bd11610064578063d2cd96bd146105be578063ee22610b146105de578063ef18374a146105fe578063f6bdc03014610613576101eb565b8063c26c12eb14610573578063c59bcee814610588578063c85c41e91461059e578063d0e30db0146101eb576101eb565b8063b23d4854116100d1578063b23d4854146104fd578063b5dc40c31461051d578063b77bf6001461053d578063c01a8c8414610553576101eb565b80638b51d13f146104625780638c85cd8514610482578063a0e67e2b146104bb578063af05445a146104dd576101eb565b80632f54bf6e1161017a5780637065cb48116101495780637065cb48146103ed578063735631ad1461040d578063784547a71461042d57806382b2e2571461044d576101eb565b80632f54bf6e146103115780633c680462146103415780635ccc561e14610361578063642f2eaf14610381576101eb565b80631703a018116101b65780631703a018146102a6578063173825d9146102bc57806329cd11b2146102dc5780632e7700f0146102fc576101eb565b8063025e7c27146101f35780630c4ecab414610230578063144dee3814610276576101eb565b366101eb576101e9610640565b005b6101e9610640565b3480156101ff57600080fd5b5061021361020e366004612275565b61067e565b6040516001600160a01b0390911681526020015b60405180910390f35b34801561023c57600080fd5b5061026861024b3660046122aa565b600660209081526000928352604080842090915290825290205481565b604051908152602001610227565b34801561028257600080fd5b506102966102913660046122aa565b6106a8565b6040519015158152602001610227565b3480156102b257600080fd5b5061026860025481565b3480156102c857600080fd5b506101e96102d73660046122d6565b61077a565b3480156102e857600080fd5b506102686102f7366004612275565b6109c8565b34801561030857600080fd5b50600554610268565b34801561031d57600080fd5b5061029661032c3660046122d6565b60006020819052908152604090205460ff1681565b34801561034d57600080fd5b5061026861035c3660046122f8565b6109e9565b34801561036d57600080fd5b5061029661037c366004612275565b610afb565b34801561038d57600080fd5b506103dc61039c366004612275565b60046020526000908152604090208054600182015460028301546003909301546001600160a01b0392831693919092169160ff8082169161010090041685565b604051610227959493929190612352565b3480156103f957600080fd5b506101e96104083660046122d6565b610c1d565b34801561041957600080fd5b506101e9610428366004612275565b610e03565b34801561043957600080fd5b50610296610448366004612275565b610f20565b34801561045957600080fd5b5061026861103b565b34801561046e57600080fd5b5061026861047d366004612275565b6110b3565b34801561048e57600080fd5b5061029661049d3660046122d6565b6001600160a01b031660009081526020819052604090205460ff1690565b3480156104c757600080fd5b506104d06111be565b60405161022791906123a7565b3480156104e957600080fd5b506104d06104f8366004612275565b611220565b34801561050957600080fd5b506101e96105183660046122d6565b611483565b34801561052957600080fd5b506104d0610538366004612275565b6114d5565b34801561054957600080fd5b5061026860055481565b34801561055f57600080fd5b506101e961056e366004612275565b611730565b34801561057f57600080fd5b50600254610268565b34801561059457600080fd5b5061026860095481565b3480156105aa57600080fd5b506102686105b9366004612275565b611843565b3480156105ca57600080fd5b506101e96105d9366004612275565b611948565b3480156105ea57600080fd5b506101e96105f9366004612275565b611a18565b34801561060a57600080fd5b50600154610268565b34801561061f57600080fd5b5061026861062e366004612275565b60076020526000908152604090205481565b341561067c5760405134815233907fe1fffcc4923d04b559f4d29a8bfc6cda04eb5b0d3c460751c2402c5c5cc9109c9060200160405180910390a25b565b6001818154811061068e57600080fd5b6000918252602090912001546001600160a01b0316905081565b600082815260076020908152604080832054600955600880548251818502810185019093528083526107109383018282801561070357602002820191906000526020600020905b8154815260200190600101908083116106ef575b5050505050600954611d1f565b6107355760405162461bcd60e51b815260040161072c906123f4565b60405180910390fd5b60095460009081526006602090815260408083206001600160a01b0386168452909152902054600181900361076e576001915050610774565b60009150505b92915050565b3360008181526020819052604090205460ff166107a95760405162461bcd60e51b815260040161072c90612440565b6001600160a01b038216600090815260208190526040902054829060ff166107e35760405162461bcd60e51b815260040161072c90612440565b60018054116108345760405162461bcd60e51b815260206004820152601760248201527f43616e27742072656d6f7665206c617374206f776e6572000000000000000000604482015260640161072c565b60018054610842919061248d565b600254111561085c576001805461085c916105d99161248d565b60005b6001805461086d919061248d565b81101561093b57836001600160a01b031660018281548110610891576108916124a0565b6000918252602090912001546001600160a01b03160361092957600180546108ba90829061248d565b815481106108ca576108ca6124a0565b600091825260209091200154600180546001600160a01b0390921691839081106108f6576108f66124a0565b9060005260206000200160006101000a8154816001600160a01b0302191690836001600160a01b0316021790555061093b565b80610933816124b6565b91505061085f565b506001600160a01b0383166000908152602081905260409020805460ff19169055600180548061096d5761096d6124cf565b600082815260208120820160001990810180546001600160a01b03191690559091019091556040516001600160a01b038516917f8001553a916ef2f495d26a907cc54d96ed840d7bda71e73194bf5a9df7a76b9091a2505050565b600881815481106109d857600080fd5b600091825260209091200154905081565b3360008181526020819052604081205490919060ff16610a1b5760405162461bcd60e51b815260040161072c90612440565b604080513360601b6bffffffffffffffffffffffff1916602080830191909152603482018790524260548084019190915283518084039091018152607490920190925280519101206009819055600880546001810182556000919091527ff3f7a9fe364faab93b216da50a3214154f22a0a2b415b23a84c8169e8b636ee301819055610aae908690339087908790611d72565b9150846001600160a01b03167f7353684080cb3af2a27a8f7a2ea1d406494bd8e78dadcfad3519da376da14bfb83604051610aeb91815260200190565b60405180910390a2509392505050565b60008181526007602090815260408083205460095560088054825181850281018501909352808352610b619383018282801561070357602002820191906000526020600020908154815260200190600101908083116106ef575050505050600954611d1f565b610b7d5760405162461bcd60e51b815260040161072c906123f4565b50600080805b600154811015610c1657600660006009548152602001908152602001600020600060018381548110610bb757610bb76124a0565b60009182526020808320909101546001600160a01b03168352820192909252604001902054600203610bf157610bee6001836124e5565b91505b6002548210610c04575060019392505050565b80610c0e816124b6565b915050610b83565b5050919050565b6001600160a01b038116600090815260208190526040902054819060ff1615610c885760405162461bcd60e51b815260206004820181905260248201527f54686973206164647265737320697320616c726561647920616e206f776e6572604482015260640161072c565b3360008181526020819052604090205460ff16610cb75760405162461bcd60e51b815260040161072c90612440565b826001600160a01b038116610d045760405162461bcd60e51b8152602060048201526013602482015272151a19481859191c995cdcc81a5cc81b9d5b1b606a1b604482015260640161072c565b60018054610d11916124e5565b600254818111158015610d2357508015155b8015610d2e57508115155b610d735760405162461bcd60e51b815260206004820152601660248201527510dbdb991a5d1a5bdb9cc8185c99481b9bdd081b595d60521b604482015260640161072c565b6001600160a01b038616600081815260208190526040808220805460ff19166001908117909155805480820182559083527fb10e2d527612073b26eecdfd717e6a320cf44b4afac2b0732d9fcbe2b7fa0cf60180546001600160a01b03191684179055517ff39e6e1eb0edcf53c221607b54b00cd28f3196fed0a24994dc308b8f611b682d9190a2505050505050565b3360008181526020819052604090205460ff16610e325760405162461bcd60e51b815260040161072c90612440565b6000828152600760209081526040808320548084526004909252909120546001600160a01b0316610e755760405162461bcd60e51b815260040161072c906124f8565b600083815260076020908152604080832054808452600490925290912060030154610100900460ff1615610ebb5760405162461bcd60e51b815260040161072c90612549565b6000848152600760209081526040808320546009819055835260068252808320338085529083529281902060029055518681527ff6a317157440607f36269043eb55f1287a5a19ba2216afeab88cd46cbcfb88e991015b60405180910390a250505050565b60008181526007602090815260408083205460095560088054825181850281018501909352808352610f869383018282801561070357602002820191906000526020600020908154815260200190600101908083116106ef575050505050600954611d1f565b610fa25760405162461bcd60e51b815260040161072c906123f4565b50600080805b600154811015610c1657600660006009548152602001908152602001600020600060018381548110610fdc57610fdc6124a0565b60009182526020808320909101546001600160a01b03168352820192909252604001902054600103611016576110136001836124e5565b91505b6002548210611029575060019392505050565b80611033816124b6565b915050610fa8565b600354604051636eb1769f60e11b81523360048201523060248201526000916001600160a01b03169063dd62ed3e90604401602060405180830381865afa15801561108a573d6000803e3d6000fd5b505050506040513d601f19601f820116820180604052508101906110ae91906125b2565b905090565b600081815260076020908152604080832054600955600880548251818502810185019093528083526111199383018282801561070357602002820191906000526020600020908154815260200190600101908083116106ef575050505050600954611d1f565b6111355760405162461bcd60e51b815260040161072c906123f4565b60005b6001548110156111b85760066000600954815260200190815260200160002060006001838154811061116c5761116c6124a0565b60009182526020808320909101546001600160a01b031683528201929092526040019020546001036111a6576111a36001836124e5565b91505b806111b0816124b6565b915050611138565b50919050565b6060600180548060200260200160405190810160405280929190818152602001828054801561121657602002820191906000526020600020905b81546001600160a01b031681526001909101906020018083116111f8575b5050505050905090565b600081815260076020908152604091829020546009556008805483518184028101840190945280845260609361128e939092919083018282801561070357602002820191906000526020600020908154815260200190600101908083116106ef575050505050600954611d1f565b6112aa5760405162461bcd60e51b815260040161072c906123f4565b60015460009067ffffffffffffffff8111156112c8576112c86125cb565b6040519080825280602002602001820160405280156112f1578160200160208202803683370190505b5090506000805b6001548110156113d35760066000600954815260200190815260200160002060006001838154811061132c5761132c6124a0565b60009182526020808320909101546001600160a01b031683528201929092526040019020546002036113c1576001818154811061136b5761136b6124a0565b9060005260206000200160009054906101000a90046001600160a01b031683838151811061139b5761139b6124a0565b6001600160a01b03909216602092830291909101909101526113be6001836124e5565b91505b806113cb816124b6565b9150506112f8565b8167ffffffffffffffff8111156113ec576113ec6125cb565b604051908082528060200260200182016040528015611415578160200160208202803683370190505b509350600090505b8181101561147b57828181518110611437576114376124a0565b6020026020010151848281518110611451576114516124a0565b6001600160a01b039092166020928302919091019091015280611473816124b6565b91505061141d565b505050919050565b3360008181526020819052604090205460ff166114b25760405162461bcd60e51b815260040161072c90612440565b50600380546001600160a01b0319166001600160a01b0392909216919091179055565b6000818152600760209081526040918290205460095560088054835181840281018401909452808452606093611543939092919083018282801561070357602002820191906000526020600020908154815260200190600101908083116106ef575050505050600954611d1f565b61155f5760405162461bcd60e51b815260040161072c906123f4565b60015460009067ffffffffffffffff81111561157d5761157d6125cb565b6040519080825280602002602001820160405280156115a6578160200160208202803683370190505b5090506000805b600154811015611688576006600060095481526020019081526020016000206000600183815481106115e1576115e16124a0565b60009182526020808320909101546001600160a01b031683528201929092526040019020546001036116765760018181548110611620576116206124a0565b9060005260206000200160009054906101000a90046001600160a01b0316838381518110611650576116506124a0565b6001600160a01b03909216602092830291909101909101526116736001836124e5565b91505b80611680816124b6565b9150506115ad565b8167ffffffffffffffff8111156116a1576116a16125cb565b6040519080825280602002602001820160405280156116ca578160200160208202803683370190505b509350600090505b8181101561147b578281815181106116ec576116ec6124a0565b6020026020010151848281518110611706576117066124a0565b6001600160a01b039092166020928302919091019091015280611728816124b6565b9150506116d2565b3360008181526020819052604090205460ff1661175f5760405162461bcd60e51b815260040161072c90612440565b6000828152600760209081526040808320548084526004909252909120546001600160a01b03166117a25760405162461bcd60e51b815260040161072c906124f8565b600083815260076020908152604080832054808452600490925290912060030154610100900460ff16156117e85760405162461bcd60e51b815260040161072c90612549565b6000848152600760209081526040808320546009819055835260068252808320338085529083529281902060019055518681527f4a504a94899432a9846e1aa406dceb1bcfd538bb839071d49d1e5e23f5be30ef9101610f12565b600081815260076020908152604080832054600955600880548251818502810185019093528083526118a99383018282801561070357602002820191906000526020600020908154815260200190600101908083116106ef575050505050600954611d1f565b6118c55760405162461bcd60e51b815260040161072c906123f4565b60005b6001548110156111b8576006600060095481526020019081526020016000206000600183815481106118fc576118fc6124a0565b60009182526020808320909101546001600160a01b03168352820192909252604001902054600203611936576119336001836124e5565b91505b80611940816124b6565b9150506118c8565b3360008181526020819052604090205460ff166119775760405162461bcd60e51b815260040161072c90612440565b6001548281811180159061198a57508015155b801561199557508115155b6119da5760405162461bcd60e51b815260206004820152601660248201527510dbdb991a5d1a5bdb9cc8185c99481b9bdd081b595d60521b604482015260640161072c565b60028490556040518481527f027863d12a407097e086a48e36475bfc859d0b200b7e6f65b5fd3b218e46632e9060200160405180910390a150505050565b3360008181526020819052604090205460ff16611a475760405162461bcd60e51b815260040161072c90612440565b81611a5181610f20565b80611a605750611a6081610afb565b611abe5760405162461bcd60e51b815260206004820152602960248201527f51756f72756d20686173206e6f74206265656e2072656163686564206279206f6044820152681ddb995c9cc81e595d60ba1b606482015260840161072c565b82611ac881610f20565b611b315760405162461bcd60e51b815260206004820152603460248201527f546865207472616e73616374696f6e20686173206e6f74206265656e20636f6e604482015273199a5c9b595908189e481bdddb995c9cc81e595d60621b606482015260840161072c565b600084815260076020908152604080832054808452600490925290912060030154610100900460ff1615611b775760405162461bcd60e51b815260040161072c90612549565b6000858152600760209081526040918290205460095560088054835181840281018401909452808452611bdf939283018282801561070357602002820191906000526020600020908154815260200190600101908083116106ef575050505050600954611d1f565b611bfb5760405162461bcd60e51b815260040161072c906123f4565b6009546000908152600460205260409020611c1586610f20565b8015611c275750611c2586610afb565b155b15611d17576000600382015460ff166004811115611c4757611c4761233c565b03611c65578054611c60906001600160a01b0316610c1d565b611d17565b6001600382015460ff166004811115611c8057611c8061233c565b03611c99578054611c60906001600160a01b031661077a565b6002600382015460ff166004811115611cb457611cb461233c565b03611cc657611c608160020154611948565b60038082015460ff166004811115611ce057611ce061233c565b03611cee57611c6086611eeb565b6004600382015460ff166004811115611d0957611d0961233c565b03611d1757611d1786612072565b505050505050565b6000805b8351811015611d685782848281518110611d3f57611d3f6124a0565b602002602001015103611d56576001915050610774565b80611d60816124b6565b915050611d23565b5060009392505050565b6000856001600160a01b038116611dc15760405162461bcd60e51b8152602060048201526013602482015272151a19481859191c995cdcc81a5cc81b9d5b1b606a1b604482015260640161072c565b60055491508260076000848152602001908152602001600020819055506040518060a00160405280886001600160a01b03168152602001876001600160a01b03168152602001868152602001856004811115611e1f57611e1f61233c565b8152600060209182018190528581526004808352604091829020845181546001600160a01b039182166001600160a01b031991821617835594860151600183810180549290931691909616179055918401516002830155606084015160038301805493949193909260ff1990911691908490811115611ea057611ea061233c565b021790555060808201518160030160016101000a81548160ff021916908315150217905550905050600160056000828254611edb91906124e5565b9091555091979650505050505050565b60008181526007602090815260408083205460098190558352600490915290206002810154471015611f5f5760405162461bcd60e51b815260206004820181905260248201527f496e73756666696369656e742062616c616e636520696e20636f6e7472616374604482015260640161072c565b805460028201546040516000926001600160a01b031691908381818185875af1925050503d8060008114611faf576040519150601f19603f3d011682016040523d82523d6000602084013e611fb4565b606091505b50509050806120055760405162461bcd60e51b815260206004820152601b60248201527f4661696c656420746f2073656e64204e617469766520746f6b656e0000000000604482015260640161072c565b60095460009081526004602052604090819020600301805461ff001916610100179055600283015490517f5550ebcd63fe55cfee39f1d5d38991f3a21dd4699ab7c41e14112310fd0f877891612065918690918252602082015260400190565b60405180910390a1505050565b6000818152600760209081526040808320546009819055835260049182905280832060035460018201549251636eb1769f60e11b81526001600160a01b039384169481019490945230602485015290939291169063dd62ed3e90604401602060405180830381865afa1580156120ec573d6000803e3d6000fd5b505050506040513d601f19601f8201168201806040525081019061211091906125b2565b9050816002015481101561218c5760405162461bcd60e51b815260206004820152603760248201527f436f6e7472616374206973206e6f7420616c6c6f77656420627920757365722060448201527f746f207472616e73666572207375636820616d6f756e74000000000000000000606482015260840161072c565b6003546001830154835460028501546040516323b872dd60e01b81526001600160a01b039384166004820152918316602483015260448201529116906323b872dd906064016020604051808303816000875af11580156121f0573d6000803e3d6000fd5b505050506040513d601f19601f8201168201806040525081019061221491906125e1565b5060095460009081526004602052604090819020600301805461ff001916610100179055600283015490517f4645e2dffcb6b5be91555757773b76bbf2e4612da04db6995aef42facf6c2b5291612065918690918252602082015260400190565b60006020828403121561228757600080fd5b5035919050565b80356001600160a01b03811681146122a557600080fd5b919050565b600080604083850312156122bd57600080fd5b823591506122cd6020840161228e565b90509250929050565b6000602082840312156122e857600080fd5b6122f18261228e565b9392505050565b60008060006060848603121561230d57600080fd5b6123168461228e565b92506020840135915060408401356005811061233157600080fd5b809150509250925092565b634e487b7160e01b600052602160045260246000fd5b6001600160a01b038681168252851660208201526040810184905260a081016005841061238f57634e487b7160e01b600052602160045260246000fd5b83606083015282151560808301529695505050505050565b6020808252825182820181905260009190848201906040850190845b818110156123e85783516001600160a01b0316835292840192918401916001016123c3565b50909695505050505050565b6020808252602c908201527f4e6f207472616e73616374696f6e20666f756e64206173736f6369617465642060408201526b1dda5d1a081d1a1a5cc8125960a21b606082015260800190565b6020808252601c908201527f546869732061646472657373206973206e6f7420616e206f776e657200000000604082015260600190565b634e487b7160e01b600052601160045260246000fd5b8181038181111561077457610774612477565b634e487b7160e01b600052603260045260246000fd5b6000600182016124c8576124c8612477565b5060010190565b634e487b7160e01b600052603160045260246000fd5b8082018082111561077457610774612477565b60208082526031908201527f5468657265206973206e6f207472616e73616374696f6e206173736f636961746040820152701959081d1bc81d1a1a5cc81a185cda1259607a1b606082015260800190565b60208082526043908201527f546865207472616e73616374696f6e206173736f63696174656420776974682060408201527f7468697320686173682068617320616c7265616479206265656e2065786563756060820152621d195960ea1b608082015260a00190565b6000602082840312156125c457600080fd5b5051919050565b634e487b7160e01b600052604160045260246000fd5b6000602082840312156125f357600080fd5b815180151581146122f157600080fdfea2646970667358221220a767dae04807b8afa00adccc05341278aba052500c1dfd8579b58e5f90f7998364736f6c63430008140033",
  "linkReferences": {},
  "deployedLinkReferences": {}
}