{
  "address": "0x8b65c35E5C8fabD93ECbB6C9adDBA1c9D3C92A0B",
  "abi": [
    {
      "inputs": [
        {
          "internalType": "string",
          "name": "_message",
          "type": "string"
        },
        {
          "internalType": "string",
          "name": "_place",
          "type": "string"
        }
      ],
      "stateMutability": "nonpayable",
      "type": "constructor"
    },
    {
      "inputs": [],
      "name": "getGreet",
      "outputs": [
        {
          "internalType": "string",
          "name": "",
          "type": "string"
        }
      ],
      "stateMutability": "view",
      "type": "function"
    },
    {
      "inputs": [],
      "name": "getMeet",
      "outputs": [
        {
          "internalType": "string",
          "name": "",
          "type": "string"
        }
      ],
      "stateMutability": "view",
      "type": "function"
    },
    {
      "inputs": [],
      "name": "greet",
      "outputs": [
        {
          "internalType": "string",
          "name": "",
          "type": "string"
        }
      ],
      "stateMutability": "view",
      "type": "function"
    },
    {
      "inputs": [],
      "name": "meet",
      "outputs": [
        {
          "internalType": "string",
          "name": "",
          "type": "string"
        }
      ],
      "stateMutability": "view",
      "type": "function"
    },
    {
      "inputs": [
        {
          "internalType": "string",
          "name": "_message",
          "type": "string"
        },
        {
          "internalType": "string",
          "name": "_place",
          "type": "string"
        }
      ],
      "name": "setGreetingMeet",
      "outputs": [],
      "stateMutability": "nonpayable",
      "type": "function"
    }
  ],
  "transactionHash": "0x706ba5961c65c11d8afb5c14d4614e5eb5fbdc9c29551f13a14db9e3d8a519b3",
  "args": [
    "Hello",
    "world"
  ],
  "solcInputHash": "ce21c5833f460aa8a0e2ec83ac929958",
  "bytecode": "0x60806040523480156200001157600080fd5b5060405162000ad838038062000ad883398181016040528101906200003791906200019f565b81600090805190602001906200004f92919062000071565b5080600190805190602001906200006892919062000071565b505050620003a8565b8280546200007f90620002b9565b90600052602060002090601f016020900481019282620000a35760008555620000ef565b82601f10620000be57805160ff1916838001178555620000ef565b82800160010185558215620000ef579182015b82811115620000ee578251825591602001919060010190620000d1565b5b509050620000fe919062000102565b5090565b5b808211156200011d57600081600090555060010162000103565b5090565b60006200013862000132846200024d565b62000224565b90508281526020810184848401111562000157576200015662000388565b5b6200016484828562000283565b509392505050565b600082601f83011262000184576200018362000383565b5b81516200019684826020860162000121565b91505092915050565b60008060408385031215620001b957620001b862000392565b5b600083015167ffffffffffffffff811115620001da57620001d96200038d565b5b620001e8858286016200016c565b925050602083015167ffffffffffffffff8111156200020c576200020b6200038d565b5b6200021a858286016200016c565b9150509250929050565b60006200023062000243565b90506200023e8282620002ef565b919050565b6000604051905090565b600067ffffffffffffffff8211156200026b576200026a62000354565b5b620002768262000397565b9050602081019050919050565b60005b83811015620002a357808201518184015260208101905062000286565b83811115620002b3576000848401525b50505050565b60006002820490506001821680620002d257607f821691505b60208210811415620002e957620002e862000325565b5b50919050565b620002fa8262000397565b810181811067ffffffffffffffff821117156200031c576200031b62000354565b5b80604052505050565b7f4e487b7100000000000000000000000000000000000000000000000000000000600052602260045260246000fd5b7f4e487b7100000000000000000000000000000000000000000000000000000000600052604160045260246000fd5b600080fd5b600080fd5b600080fd5b600080fd5b6000601f19601f8301169050919050565b61072080620003b86000396000f3fe608060405234801561001057600080fd5b50600436106100575760003560e01c806375c3b1371461005c57806383aa5a601461007a578063870f235e14610098578063cfae3217146100b4578063d705a4b5146100d2575b600080fd5b6100646100f0565b604051610071919061052e565b60405180910390f35b610082610182565b60405161008f919061052e565b60405180910390f35b6100b260048036038101906100ad919061047d565b610214565b005b6100bc610246565b6040516100c9919061052e565b60405180910390f35b6100da6102d8565b6040516100e7919061052e565b60405180910390f35b6060600180546100ff90610604565b80601f016020809104026020016040519081016040528092919081815260200182805461012b90610604565b80156101785780601f1061014d57610100808354040283529160200191610178565b820191906000526020600020905b81548152906001019060200180831161015b57829003601f168201915b5050505050905090565b60606001805461019190610604565b80601f01602080910402602001604051908101604052809291908181526020018280546101bd90610604565b801561020a5780601f106101df5761010080835404028352916020019161020a565b820191906000526020600020905b8154815290600101906020018083116101ed57829003601f168201915b5050505050905090565b816000908051906020019061022a92919061036a565b50806001908051906020019061024192919061036a565b505050565b60606000805461025590610604565b80601f016020809104026020016040519081016040528092919081815260200182805461028190610604565b80156102ce5780601f106102a3576101008083540402835291602001916102ce565b820191906000526020600020905b8154815290600101906020018083116102b157829003601f168201915b5050505050905090565b6060600080546102e790610604565b80601f016020809104026020016040519081016040528092919081815260200182805461031390610604565b80156103605780601f1061033557610100808354040283529160200191610360565b820191906000526020600020905b81548152906001019060200180831161034357829003601f168201915b5050505050905090565b82805461037690610604565b90600052602060002090601f01602090048101928261039857600085556103df565b82601f106103b157805160ff19168380011785556103df565b828001600101855582156103df579182015b828111156103de5782518255916020019190600101906103c3565b5b5090506103ec91906103f0565b5090565b5b808211156104095760008160009055506001016103f1565b5090565b600061042061041b84610575565b610550565b90508281526020810184848401111561043c5761043b6106ca565b5b6104478482856105c2565b509392505050565b600082601f830112610464576104636106c5565b5b813561047484826020860161040d565b91505092915050565b60008060408385031215610494576104936106d4565b5b600083013567ffffffffffffffff8111156104b2576104b16106cf565b5b6104be8582860161044f565b925050602083013567ffffffffffffffff8111156104df576104de6106cf565b5b6104eb8582860161044f565b9150509250929050565b6000610500826105a6565b61050a81856105b1565b935061051a8185602086016105d1565b610523816106d9565b840191505092915050565b6000602082019050818103600083015261054881846104f5565b905092915050565b600061055a61056b565b90506105668282610636565b919050565b6000604051905090565b600067ffffffffffffffff8211156105905761058f610696565b5b610599826106d9565b9050602081019050919050565b600081519050919050565b600082825260208201905092915050565b82818337600083830152505050565b60005b838110156105ef5780820151818401526020810190506105d4565b838111156105fe576000848401525b50505050565b6000600282049050600182168061061c57607f821691505b602082108114156106305761062f610667565b5b50919050565b61063f826106d9565b810181811067ffffffffffffffff8211171561065e5761065d610696565b5b80604052505050565b7f4e487b7100000000000000000000000000000000000000000000000000000000600052602260045260246000fd5b7f4e487b7100000000000000000000000000000000000000000000000000000000600052604160045260246000fd5b600080fd5b600080fd5b600080fd5b600080fd5b6000601f19601f830116905091905056fea2646970667358221220eb0903b5b260b05d15c685367363597fc218ea3a870ec1232dc3a106d6121a2464736f6c63430008060033",
  "devdoc": {
    "custom:experimental": "This is an experimental contract.",
    "details": "All function calls are currently implemented without side effects",
    "kind": "dev",
    "methods": {
      "greet()": {
        "returns": {
          "_0": "Greeting string"
        }
      },
      "meet()": {
        "returns": {
          "_0": "Greeting string"
        }
      },
      "setGreetingMeet(string,string)": {
        "details": "Contains a console log output",
        "params": {
          "_message": "The greeting phrase"
        }
      }
    },
    "title": "An example Greeter contract",
    "version": 1
  },
  "userdoc": {
    "kind": "user",
    "methods": {
      "greet()": {
        "notice": "Returns a greeting phrase"
      },
      "meet()": {
        "notice": "Returns a greeting phrase"
      },
      "setGreetingMeet(string,string)": {
        "notice": "Sets a greeting phrase"
      }
    },
    "notice": "This contract is only for simulation purposes",
    "version": 1
  },
  "storageLayout": {
    "storage": [
      {
        "astId": 4,
        "contract": "contracts/Greeter.sol:Greeter",
        "label": "message",
        "offset": 0,
        "slot": "0",
        "type": "t_string_storage"
      },
      {
        "astId": 6,
        "contract": "contracts/Greeter.sol:Greeter",
        "label": "place",
        "offset": 0,
        "slot": "1",
        "type": "t_string_storage"
      }
    ],
    "types": {
      "t_string_storage": {
        "encoding": "bytes",
        "label": "string",
        "numberOfBytes": "32"
      }
    }
  }
}