{
  "_format": "hh-sol-artifact-1",
  "contractName": "MyToken",
  "sourceName": "contracts/MyToken.sol",
  "abi": [
    {
      "inputs": [
        {
          "internalType": "string",
          "name": "name",
          "type": "string"
        },
        {
          "internalType": "string",
          "name": "symbol",
          "type": "string"
        },
        {
          "internalType": "uint8",
          "name": "decimals",
          "type": "uint8"
        },
        {
          "internalType": "uint256",
          "name": "totalSupply",
          "type": "uint256"
        }
      ],
      "stateMutability": "nonpayable",
      "type": "constructor"
    },
    {
      "anonymous": false,
      "inputs": [
        {
          "indexed": true,
          "internalType": "address",
          "name": "owner",
          "type": "address"
        },
        {
          "indexed": true,
          "internalType": "address",
          "name": "spender",
          "type": "address"
        },
        {
          "indexed": false,
          "internalType": "uint256",
          "name": "amount",
          "type": "uint256"
        }
      ],
      "name": "Approved",
      "type": "event"
    },
    {
      "anonymous": false,
      "inputs": [
        {
          "indexed": false,
          "internalType": "address",
          "name": "account",
          "type": "address"
        }
      ],
      "name": "Paused",
      "type": "event"
    },
    {
      "anonymous": false,
      "inputs": [
        {
          "indexed": true,
          "internalType": "address",
          "name": "account",
          "type": "address"
        }
      ],
      "name": "PauserAdded",
      "type": "event"
    },
    {
      "anonymous": false,
      "inputs": [
        {
          "indexed": true,
          "internalType": "address",
          "name": "account",
          "type": "address"
        }
      ],
      "name": "PauserRemoved",
      "type": "event"
    },
    {
      "anonymous": false,
      "inputs": [
        {
          "indexed": true,
          "internalType": "address",
          "name": "from",
          "type": "address"
        },
        {
          "indexed": true,
          "internalType": "address",
          "name": "to",
          "type": "address"
        },
        {
          "indexed": false,
          "internalType": "uint256",
          "name": "amount",
          "type": "uint256"
        }
      ],
      "name": "Transfer",
      "type": "event"
    },
    {
      "anonymous": false,
      "inputs": [
        {
          "indexed": false,
          "internalType": "address",
          "name": "account",
          "type": "address"
        }
      ],
      "name": "Unpaused",
      "type": "event"
    },
    {
      "inputs": [
        {
          "internalType": "address",
          "name": "account",
          "type": "address"
        }
      ],
      "name": "addPauser",
      "outputs": [],
      "stateMutability": "nonpayable",
      "type": "function"
    },
    {
      "inputs": [
        {
          "internalType": "address",
          "name": "owner",
          "type": "address"
        },
        {
          "internalType": "address",
          "name": "spender",
          "type": "address"
        }
      ],
      "name": "allowance",
      "outputs": [
        {
          "internalType": "uint256",
          "name": "",
          "type": "uint256"
        }
      ],
      "stateMutability": "view",
      "type": "function"
    },
    {
      "inputs": [
        {
          "internalType": "address",
          "name": "spender",
          "type": "address"
        },
        {
          "internalType": "uint256",
          "name": "value",
          "type": "uint256"
        }
      ],
      "name": "approve",
      "outputs": [
        {
          "internalType": "bool",
          "name": "",
          "type": "bool"
        }
      ],
      "stateMutability": "nonpayable",
      "type": "function"
    },
    {
      "inputs": [
        {
          "internalType": "address",
          "name": "owner",
          "type": "address"
        }
      ],
      "name": "balanceOf",
      "outputs": [
        {
          "internalType": "uint256",
          "name": "",
          "type": "uint256"
        }
      ],
      "stateMutability": "view",
      "type": "function"
    },
    {
      "inputs": [],
      "name": "decimals",
      "outputs": [
        {
          "internalType": "uint8",
          "name": "",
          "type": "uint8"
        }
      ],
      "stateMutability": "view",
      "type": "function"
    },
    {
      "inputs": [
        {
          "internalType": "address",
          "name": "spender",
          "type": "address"
        },
        {
          "internalType": "uint256",
          "name": "subtractedValue",
          "type": "uint256"
        }
      ],
      "name": "decreaseAllowance",
      "outputs": [
        {
          "internalType": "bool",
          "name": "success",
          "type": "bool"
        }
      ],
      "stateMutability": "nonpayable",
      "type": "function"
    },
    {
      "inputs": [
        {
          "internalType": "address",
          "name": "spender",
          "type": "address"
        },
        {
          "internalType": "uint256",
          "name": "addedValue",
          "type": "uint256"
        }
      ],
      "name": "increaseAllowance",
      "outputs": [
        {
          "internalType": "bool",
          "name": "success",
          "type": "bool"
        }
      ],
      "stateMutability": "nonpayable",
      "type": "function"
    },
    {
      "inputs": [
        {
          "internalType": "address",
          "name": "account",
          "type": "address"
        }
      ],
      "name": "isPauser",
      "outputs": [
        {
          "internalType": "bool",
          "name": "",
          "type": "bool"
        }
      ],
      "stateMutability": "view",
      "type": "function"
    },
    {
      "inputs": [],
      "name": "name",
      "outputs": [
        {
          "internalType": "string",
          "name": "",
          "type": "string"
        }
      ],
      "stateMutability": "view",
      "type": "function"
    },
    {
      "inputs": [],
      "name": "pause",
      "outputs": [],
      "stateMutability": "nonpayable",
      "type": "function"
    },
    {
      "inputs": [],
      "name": "paused",
      "outputs": [
        {
          "internalType": "bool",
          "name": "",
          "type": "bool"
        }
      ],
      "stateMutability": "view",
      "type": "function"
    },
    {
      "inputs": [],
      "name": "renouncePauser",
      "outputs": [],
      "stateMutability": "nonpayable",
      "type": "function"
    },
    {
      "inputs": [],
      "name": "symbol",
      "outputs": [
        {
          "internalType": "string",
          "name": "",
          "type": "string"
        }
      ],
      "stateMutability": "view",
      "type": "function"
    },
    {
      "inputs": [],
      "name": "totalSupply",
      "outputs": [
        {
          "internalType": "uint256",
          "name": "",
          "type": "uint256"
        }
      ],
      "stateMutability": "view",
      "type": "function"
    },
    {
      "inputs": [
        {
          "internalType": "address",
          "name": "to",
          "type": "address"
        },
        {
          "internalType": "uint256",
          "name": "value",
          "type": "uint256"
        }
      ],
      "name": "transfer",
      "outputs": [
        {
          "internalType": "bool",
          "name": "",
          "type": "bool"
        }
      ],
      "stateMutability": "nonpayable",
      "type": "function"
    },
    {
      "inputs": [
        {
          "internalType": "address",
          "name": "from",
          "type": "address"
        },
        {
          "internalType": "address",
          "name": "to",
          "type": "address"
        },
        {
          "internalType": "uint256",
          "name": "value",
          "type": "uint256"
        }
      ],
      "name": "transferFrom",
      "outputs": [
        {
          "internalType": "bool",
          "name": "",
          "type": "bool"
        }
      ],
      "stateMutability": "nonpayable",
      "type": "function"
    },
    {
      "inputs": [],
      "name": "unpause",
      "outputs": [],
      "stateMutability": "nonpayable",
      "type": "function"
    }
  ],
  "bytecode": "0x60806040523480156200001157600080fd5b5060405162000ff438038062000ff48339810160408190526200003491620002f7565b838383620000423362000097565b6004805460ff1916905560056200005a848262000411565b50600662000069838262000411565b506007805460ff191660ff92909216919091179055506200008d90503382620000db565b50505050620004ff565b620000a460038262000184565b6040516001600160a01b038216907f6719d08c1888103bea251a4ed56406bd0c3e69723c8a1686e017e7bbe159b6f890600090a250565b6001600160a01b038216620000ef57600080fd5b600254620000fe9082620001d4565b6002556001600160a01b038216600090815260016020526040902054620001269082620001d4565b6001600160a01b0383166000818152600160205260408082209390935591519091907fddf252ad1be2c89b69c2b068fc378daa952ba7f163c4a11628f55a4df523b3ef90620001789085815260200190565b60405180910390a35050565b6001600160a01b0381166200019857600080fd5b620001a48282620001fc565b15620001af57600080fd5b6001600160a01b0316600090815260209190915260409020805460ff19166001179055565b600080620001e38385620004dd565b905083811015620001f357600080fd5b90505b92915050565b60006001600160a01b0382166200021257600080fd5b506001600160a01b03166000908152602091909152604090205460ff1690565b634e487b7160e01b600052604160045260246000fd5b600082601f8301126200025a57600080fd5b81516001600160401b038082111562000277576200027762000232565b604051601f8301601f19908116603f01168101908282118183101715620002a257620002a262000232565b81604052838152602092508683858801011115620002bf57600080fd5b600091505b83821015620002e35785820183015181830184015290820190620002c4565b600093810190920192909252949350505050565b600080600080608085870312156200030e57600080fd5b84516001600160401b03808211156200032657600080fd5b620003348883890162000248565b955060208701519150808211156200034b57600080fd5b506200035a8782880162000248565b935050604085015160ff811681146200037257600080fd5b6060959095015193969295505050565b600181811c908216806200039757607f821691505b602082108103620003b857634e487b7160e01b600052602260045260246000fd5b50919050565b601f8211156200040c57600081815260208120601f850160051c81016020861015620003e75750805b601f850160051c820191505b818110156200040857828155600101620003f3565b5050505b505050565b81516001600160401b038111156200042d576200042d62000232565b62000445816200043e845462000382565b84620003be565b602080601f8311600181146200047d5760008415620004645750858301515b600019600386901b1c1916600185901b17855562000408565b600085815260208120601f198616915b82811015620004ae578886015182559484019460019091019084016200048d565b5085821015620004cd5787850151600019600388901b60f8161c191681555b5050505050600190811b01905550565b80820180821115620001f657634e487b7160e01b600052601160045260246000fd5b610ae5806200050f6000396000f3fe608060405234801561001057600080fd5b506004361061010b5760003560e01c80635c975abb116100a25780638456cb59116100715780638456cb591461020a57806395d89b4114610212578063a457c2d71461021a578063a9059cbb1461022d578063dd62ed3e1461024057600080fd5b80635c975abb146101bb5780636ef8d66d146101c657806370a08231146101ce57806382dc1ec4146101f757600080fd5b8063313ce567116100de578063313ce56714610176578063395093511461018b5780633f4ba83a1461019e57806346fbf68e146101a857600080fd5b806306fdde0314610110578063095ea7b31461012e57806318160ddd1461015157806323b872dd14610163575b600080fd5b610118610277565b604051610125919061091b565b60405180910390f35b61014161013c366004610985565b610309565b6040519015158152602001610125565b6002545b604051908152602001610125565b6101416101713660046109af565b61032f565b60075460405160ff9091168152602001610125565b610141610199366004610985565b610355565b6101a6610372565b005b6101416101b63660046109eb565b6103d3565b60045460ff16610141565b6101a66103e0565b6101556101dc3660046109eb565b6001600160a01b031660009081526001602052604090205490565b6101a66102053660046109eb565b6103eb565b6101a6610409565b610118610468565b610141610228366004610985565b610477565b61014161023b366004610985565b610494565b61015561024e366004610a06565b6001600160a01b0391821660009081526020818152604080832093909416825291909152205490565b60606005805461028690610a39565b80601f01602080910402602001604051908101604052809291908181526020018280546102b290610a39565b80156102ff5780601f106102d4576101008083540402835291602001916102ff565b820191906000526020600020905b8154815290600101906020018083116102e257829003601f168201915b5050505050905090565b60045460009060ff161561031c57600080fd5b61032683836104b1565b90505b92915050565b60045460009060ff161561034257600080fd5b61034d848484610529565b949350505050565b60045460009060ff161561036857600080fd5b61032683836105e4565b61037b336103d3565b61038457600080fd5b60045460ff1661039357600080fd5b6004805460ff191690556040513381527f5db9ee0a495bf2e6ff9c91a7834c1ba4fdd244a5e8aa4e537bd38aeae4b073aa906020015b60405180910390a1565b600061032960038361067a565b6103e9336106af565b565b6103f4336103d3565b6103fd57600080fd5b610406816106f1565b50565b610412336103d3565b61041b57600080fd5b60045460ff161561042b57600080fd5b6004805460ff191660011790556040513381527f62e78cea01bee320cd4e420270b5ea74000d11b0c9f74754ebdbfc544b05a258906020016103c9565b60606006805461028690610a39565b60045460009060ff161561048a57600080fd5b6103268383610733565b60045460009060ff16156104a757600080fd5b6103268383610774565b60006001600160a01b0383166104c657600080fd5b336000818152602081815260408083206001600160a01b03881680855290835292819020869055518581529192917f80da462ebfbe41cfc9bc015e7a9a3c7a2a73dbccede72d8ceb583606c27f8f9091015b60405180910390a350600192915050565b6001600160a01b038316600090815260208181526040808320338452909152812054610555908361078a565b6001600160a01b0385166000908152602081815260408083203384529091529020556105828484846107a5565b6001600160a01b03841660008181526020818152604080832033808552908352928190205490519081529192917f80da462ebfbe41cfc9bc015e7a9a3c7a2a73dbccede72d8ceb583606c27f8f90910160405180910390a35060019392505050565b60006001600160a01b0383166105f957600080fd5b336000908152602081815260408083206001600160a01b0387168452909152902054610625908361086b565b336000818152602081815260408083206001600160a01b038916808552908352928190208590555193845290927f80da462ebfbe41cfc9bc015e7a9a3c7a2a73dbccede72d8ceb583606c27f8f909101610518565b60006001600160a01b03821661068f57600080fd5b506001600160a01b03166000908152602091909152604090205460ff1690565b6106ba600382610887565b6040516001600160a01b038216907fcd265ebaf09df2871cc7bd4133404a235ba12eff2041bb89d9c714a2621c7c7e90600090a250565b6106fc6003826108cf565b6040516001600160a01b038216907f6719d08c1888103bea251a4ed56406bd0c3e69723c8a1686e017e7bbe159b6f890600090a250565b60006001600160a01b03831661074857600080fd5b336000908152602081815260408083206001600160a01b0387168452909152902054610625908361078a565b60006107813384846107a5565b50600192915050565b60008282111561079957600080fd5b600061034d8385610a89565b6001600160a01b0382166107b857600080fd5b6001600160a01b0383166000908152600160205260409020546107db908261078a565b6001600160a01b03808516600090815260016020526040808220939093559084168152205461080a908261086b565b6001600160a01b0380841660008181526001602052604090819020939093559151908516907fddf252ad1be2c89b69c2b068fc378daa952ba7f163c4a11628f55a4df523b3ef9061085e9085815260200190565b60405180910390a3505050565b6000806108788385610a9c565b90508381101561032657600080fd5b6001600160a01b03811661089a57600080fd5b6108a4828261067a565b6108ad57600080fd5b6001600160a01b0316600090815260209190915260409020805460ff19169055565b6001600160a01b0381166108e257600080fd5b6108ec828261067a565b156108f657600080fd5b6001600160a01b0316600090815260209190915260409020805460ff19166001179055565b600060208083528351808285015260005b818110156109485785810183015185820160400152820161092c565b506000604082860101526040601f19601f8301168501019250505092915050565b80356001600160a01b038116811461098057600080fd5b919050565b6000806040838503121561099857600080fd5b6109a183610969565b946020939093013593505050565b6000806000606084860312156109c457600080fd5b6109cd84610969565b92506109db60208501610969565b9150604084013590509250925092565b6000602082840312156109fd57600080fd5b61032682610969565b60008060408385031215610a1957600080fd5b610a2283610969565b9150610a3060208401610969565b90509250929050565b600181811c90821680610a4d57607f821691505b602082108103610a6d57634e487b7160e01b600052602260045260246000fd5b50919050565b634e487b7160e01b600052601160045260246000fd5b8181038181111561032957610329610a73565b8082018082111561032957610329610a7356fea2646970667358221220747e29b58bfc5a618a7ed3bad6962aa1d898db8c31d7d9d482506fc585cf0d2164736f6c63430008140033",
  "linkReferences": {},
  "deployedLinkReferences": {}
}